{
  "contractName": "IndexProtocol",
  "abi": [
    {
      "inputs": [],
      "payable": false,
      "stateMutability": "nonpayable",
      "type": "constructor"
    },
    {
      "anonymous": false,
      "inputs": [
        {
          "indexed": true,
          "internalType": "address",
          "name": "owner",
          "type": "address"
        },
        {
          "indexed": true,
          "internalType": "address",
          "name": "spender",
          "type": "address"
        },
        {
          "indexed": false,
          "internalType": "uint256",
          "name": "value",
          "type": "uint256"
        }
      ],
      "name": "Approval",
      "type": "event"
    },
    {
      "anonymous": false,
      "inputs": [
        {
          "indexed": true,
          "internalType": "address",
          "name": "from",
          "type": "address"
        },
        {
          "indexed": true,
          "internalType": "address",
          "name": "to",
          "type": "address"
        },
        {
          "indexed": false,
          "internalType": "uint256",
          "name": "value",
          "type": "uint256"
        }
      ],
      "name": "Transfer",
      "type": "event"
    },
    {
      "constant": true,
      "inputs": [
        {
          "internalType": "address",
          "name": "",
          "type": "address"
        },
        {
          "internalType": "address",
          "name": "",
          "type": "address"
        }
      ],
      "name": "allowance",
      "outputs": [
        {
          "internalType": "uint256",
          "name": "",
          "type": "uint256"
        }
      ],
      "payable": false,
      "stateMutability": "view",
      "type": "function"
    },
    {
      "constant": true,
      "inputs": [
        {
          "internalType": "address",
          "name": "",
          "type": "address"
        }
      ],
      "name": "balances",
      "outputs": [
        {
          "internalType": "uint256",
          "name": "",
          "type": "uint256"
        }
      ],
      "payable": false,
      "stateMutability": "view",
      "type": "function"
    },
    {
      "constant": true,
      "inputs": [],
      "name": "decimals",
      "outputs": [
        {
          "internalType": "uint256",
          "name": "",
          "type": "uint256"
        }
      ],
      "payable": false,
      "stateMutability": "view",
      "type": "function"
    },
    {
      "constant": true,
      "inputs": [
        {
          "internalType": "uint256",
          "name": "",
          "type": "uint256"
        }
      ],
      "name": "holders",
      "outputs": [
        {
          "internalType": "address",
          "name": "",
          "type": "address"
        }
      ],
      "payable": false,
      "stateMutability": "view",
      "type": "function"
    },
    {
      "constant": true,
      "inputs": [],
      "name": "name",
      "outputs": [
        {
          "internalType": "string",
          "name": "",
          "type": "string"
        }
      ],
      "payable": false,
      "stateMutability": "view",
      "type": "function"
    },
    {
      "constant": true,
      "inputs": [],
      "name": "symbol",
      "outputs": [
        {
          "internalType": "string",
          "name": "",
          "type": "string"
        }
      ],
      "payable": false,
      "stateMutability": "view",
      "type": "function"
    },
    {
      "constant": true,
      "inputs": [],
      "name": "totalSupply",
      "outputs": [
        {
          "internalType": "uint256",
          "name": "",
          "type": "uint256"
        }
      ],
      "payable": false,
      "stateMutability": "view",
      "type": "function"
    },
    {
      "constant": true,
      "inputs": [
        {
          "internalType": "address",
          "name": "owner",
          "type": "address"
        }
      ],
      "name": "balanceOf",
      "outputs": [
        {
          "internalType": "uint256",
          "name": "",
          "type": "uint256"
        }
      ],
      "payable": false,
      "stateMutability": "view",
      "type": "function"
    },
    {
      "constant": false,
      "inputs": [
        {
          "internalType": "address",
          "name": "to",
          "type": "address"
        },
        {
          "internalType": "uint256",
          "name": "value",
          "type": "uint256"
        }
      ],
      "name": "transfer",
      "outputs": [
        {
          "internalType": "bool",
          "name": "",
          "type": "bool"
        }
      ],
      "payable": false,
      "stateMutability": "nonpayable",
      "type": "function"
    },
    {
      "constant": false,
      "inputs": [
        {
          "internalType": "address",
          "name": "from",
          "type": "address"
        },
        {
          "internalType": "address",
          "name": "to",
          "type": "address"
        },
        {
          "internalType": "uint256",
          "name": "value",
          "type": "uint256"
        }
      ],
      "name": "transferFrom",
      "outputs": [
        {
          "internalType": "bool",
          "name": "",
          "type": "bool"
        }
      ],
      "payable": false,
      "stateMutability": "nonpayable",
      "type": "function"
    },
    {
      "constant": false,
      "inputs": [
        {
          "internalType": "address",
          "name": "spender",
          "type": "address"
        },
        {
          "internalType": "uint256",
          "name": "value",
          "type": "uint256"
        }
      ],
      "name": "approve",
      "outputs": [
        {
          "internalType": "bool",
          "name": "",
          "type": "bool"
        }
      ],
      "payable": false,
      "stateMutability": "nonpayable",
      "type": "function"
    },
    {
      "constant": false,
      "inputs": [
        {
          "internalType": "address",
          "name": "who",
          "type": "address"
        }
      ],
      "name": "addAddress",
      "outputs": [
        {
          "internalType": "bool",
          "name": "",
          "type": "bool"
        }
      ],
      "payable": false,
      "stateMutability": "nonpayable",
      "type": "function"
    },
    {
      "constant": true,
      "inputs": [],
      "name": "countAddress",
      "outputs": [
        {
          "internalType": "uint256",
          "name": "",
          "type": "uint256"
        }
      ],
      "payable": false,
      "stateMutability": "view",
      "type": "function"
    },
    {
      "constant": true,
      "inputs": [
        {
          "internalType": "address",
          "name": "who",
          "type": "address"
        }
      ],
      "name": "inArray",
      "outputs": [
        {
          "internalType": "bool",
          "name": "",
          "type": "bool"
        }
      ],
      "payable": false,
      "stateMutability": "view",
      "type": "function"
    }
  ],
  "bytecode": "0x60806040526012600455600454600a0a620186a0026005556040518060400160405280600d81526020017f496e64657850726f746f636f6c00000000000000000000000000000000000000815250600690805190602001906100629291906101b5565b506040518060400160405280600481526020017f494e445800000000000000000000000000000000000000000000000000000000815250600790805190602001906100ae9291906101b5565b503480156100bb57600080fd5b506005546000803373ffffffffffffffffffffffffffffffffffffffff1673ffffffffffffffffffffffffffffffffffffffff1681526020019081526020016000208190555060023390806001815401808255809150509060018203906000526020600020016000909192909190916101000a81548173ffffffffffffffffffffffffffffffffffffffff021916908373ffffffffffffffffffffffffffffffffffffffff16021790555050600280549050600360003373ffffffffffffffffffffffffffffffffffffffff1673ffffffffffffffffffffffffffffffffffffffff1681526020019081526020016000208190555061025a565b828054600181600116156101000203166002900490600052602060002090601f016020900481019282601f106101f657805160ff1916838001178555610224565b82800160010185558215610224579182015b82811115610223578251825591602001919060010190610208565b5b5090506102319190610235565b5090565b61025791905b8082111561025357600081600090555060010161023b565b5090565b90565b610f0e806200026a6000396000f3fe608060405234801561001057600080fd5b50600436106100ea5760003560e01c806338eada1c1161008c57806395d89b411161006657806395d89b4114610432578063a9059cbb146104b5578063dd62ed3e1461051b578063deac465914610593576100ea565b806338eada1c1461036057806342154e9c146103bc57806370a08231146103da576100ea565b806323b872dd116100c857806323b872dd146101f657806327e235e31461027c5780632a11ced0146102d4578063313ce56714610342576100ea565b806306fdde03146100ef578063095ea7b31461017257806318160ddd146101d8575b600080fd5b6100f76105ef565b6040518080602001828103825283818151815260200191508051906020019080838360005b8381101561013757808201518184015260208101905061011c565b50505050905090810190601f1680156101645780820380516001836020036101000a031916815260200191505b509250505060405180910390f35b6101be6004803603604081101561018857600080fd5b81019080803573ffffffffffffffffffffffffffffffffffffffff1690602001909291908035906020019092919050505061068d565b604051808215151515815260200191505060405180910390f35b6101e061077f565b6040518082815260200191505060405180910390f35b6102626004803603606081101561020c57600080fd5b81019080803573ffffffffffffffffffffffffffffffffffffffff169060200190929190803573ffffffffffffffffffffffffffffffffffffffff16906020019092919080359060200190929190505050610785565b604051808215151515815260200191505060405180910390f35b6102be6004803603602081101561029257600080fd5b81019080803573ffffffffffffffffffffffffffffffffffffffff1690602001909291905050506109ff565b6040518082815260200191505060405180910390f35b610300600480360360208110156102ea57600080fd5b8101908080359060200190929190505050610a17565b604051808273ffffffffffffffffffffffffffffffffffffffff1673ffffffffffffffffffffffffffffffffffffffff16815260200191505060405180910390f35b61034a610a53565b6040518082815260200191505060405180910390f35b6103a26004803603602081101561037657600080fd5b81019080803573ffffffffffffffffffffffffffffffffffffffff169060200190929190505050610a59565b604051808215151515815260200191505060405180910390f35b6103c4610b21565b6040518082815260200191505060405180910390f35b61041c600480360360208110156103f057600080fd5b81019080803573ffffffffffffffffffffffffffffffffffffffff169060200190929190505050610b2e565b6040518082815260200191505060405180910390f35b61043a610b76565b6040518080602001828103825283818151815260200191508051906020019080838360005b8381101561047a57808201518184015260208101905061045f565b50505050905090810190601f1680156104a75780820380516001836020036101000a031916815260200191505b509250505060405180910390f35b610501600480360360408110156104cb57600080fd5b81019080803573ffffffffffffffffffffffffffffffffffffffff16906020019092919080359060200190929190505050610c14565b604051808215151515815260200191505060405180910390f35b61057d6004803603604081101561053157600080fd5b81019080803573ffffffffffffffffffffffffffffffffffffffff169060200190929190803573ffffffffffffffffffffffffffffffffffffffff169060200190929190505050610e58565b6040518082815260200191505060405180910390f35b6105d5600480360360208110156105a957600080fd5b81019080803573ffffffffffffffffffffffffffffffffffffffff169060200190929190505050610e7d565b604051808215151515815260200191505060405180910390f35b60068054600181600116156101000203166002900480601f0160208091040260200160405190810160405280929190818152602001828054600181600116156101000203166002900480156106855780601f1061065a57610100808354040283529160200191610685565b820191906000526020600020905b81548152906001019060200180831161066857829003601f168201915b505050505081565b600081600160003373ffffffffffffffffffffffffffffffffffffffff1673ffffffffffffffffffffffffffffffffffffffff16815260200190815260200160002060008573ffffffffffffffffffffffffffffffffffffffff1673ffffffffffffffffffffffffffffffffffffffff168152602001908152602001600020819055508273ffffffffffffffffffffffffffffffffffffffff163373ffffffffffffffffffffffffffffffffffffffff167f8c5be1e5ebec7d5bd14f71427d1e84f3dd0314c0f7b2291e5b200ac8c7c3b925846040518082815260200191505060405180910390a36001905092915050565b60055481565b60008161079185610b2e565b1015610805576040517f08c379a000000000000000000000000000000000000000000000000000000000815260040180806020018281038252600f8152602001807f62616c616e636520746f6f206c6f77000000000000000000000000000000000081525060200191505060405180910390fd5b81600160008673ffffffffffffffffffffffffffffffffffffffff1673ffffffffffffffffffffffffffffffffffffffff16815260200190815260200160002060003373ffffffffffffffffffffffffffffffffffffffff1673ffffffffffffffffffffffffffffffffffffffff1681526020019081526020016000205410156108f7576040517f08c379a00000000000000000000000000000000000000000000000000000000081526004018080602001828103825260118152602001807f616c6c6f77616e636520746f6f206c6f7700000000000000000000000000000081525060200191505060405180910390fd5b816000808573ffffffffffffffffffffffffffffffffffffffff1673ffffffffffffffffffffffffffffffffffffffff16815260200190815260200160002060008282540192505081905550816000808673ffffffffffffffffffffffffffffffffffffffff1673ffffffffffffffffffffffffffffffffffffffff168152602001908152602001600020600082825403925050819055508273ffffffffffffffffffffffffffffffffffffffff168473ffffffffffffffffffffffffffffffffffffffff167fddf252ad1be2c89b69c2b068fc378daa952ba7f163c4a11628f55a4df523b3ef846040518082815260200191505060405180910390a3600190509392505050565b60006020528060005260406000206000915090505481565b60028181548110610a2457fe5b906000526020600020016000915054906101000a900473ffffffffffffffffffffffffffffffffffffffff1681565b60045481565b6000610a6482610e7d565b610b1857600280549050600360008473ffffffffffffffffffffffffffffffffffffffff1673ffffffffffffffffffffffffffffffffffffffff1681526020019081526020016000208190555060028290806001815401808255809150509060018203906000526020600020016000909192909190916101000a81548173ffffffffffffffffffffffffffffffffffffffff021916908373ffffffffffffffffffffffffffffffffffffffff160217905550505b60019050919050565b6000600280549050905090565b60008060008373ffffffffffffffffffffffffffffffffffffffff1673ffffffffffffffffffffffffffffffffffffffff168152602001908152602001600020549050919050565b60078054600181600116156101000203166002900480601f016020809104026020016040519081016040528092919081815260200182805460018160011615610100020316600290048015610c0c5780601f10610be157610100808354040283529160200191610c0c565b820191906000526020600020905b815481529060010190602001808311610bef57829003601f168201915b505050505081565b600081610c2033610b2e565b1015610c94576040517f08c379a000000000000000000000000000000000000000000000000000000000815260040180806020018281038252600f8152602001807f62616c616e636520746f6f206c6f77000000000000000000000000000000000081525060200191505060405180910390fd5b816000808573ffffffffffffffffffffffffffffffffffffffff1673ffffffffffffffffffffffffffffffffffffffff16815260200190815260200160002060008282540192505081905550816000803373ffffffffffffffffffffffffffffffffffffffff1673ffffffffffffffffffffffffffffffffffffffff16815260200190815260200160002060008282540392505081905550610d3583610e7d565b610de957600280549050600360008573ffffffffffffffffffffffffffffffffffffffff1673ffffffffffffffffffffffffffffffffffffffff1681526020019081526020016000208190555060028390806001815401808255809150509060018203906000526020600020016000909192909190916101000a81548173ffffffffffffffffffffffffffffffffffffffff021916908373ffffffffffffffffffffffffffffffffffffffff160217905550505b8273ffffffffffffffffffffffffffffffffffffffff163373ffffffffffffffffffffffffffffffffffffffff167fddf252ad1be2c89b69c2b068fc378daa952ba7f163c4a11628f55a4df523b3ef846040518082815260200191505060405180910390a36001905092915050565b6001602052816000526040600020602052806000526040600020600091509150505481565b600080600360008473ffffffffffffffffffffffffffffffffffffffff1673ffffffffffffffffffffffffffffffffffffffff168152602001908152602001600020541115610ecf5760019050610ed4565b600090505b91905056fea265627a7a72315820cbb2bf1796086daf7946313fe56cdacad12614e8db4f78137127d02cd5915c7064736f6c63430005100032",
  "source": "pragma solidity ^0.5.16;\n\nimport \"./lib/SafeMathInt.sol\";\nimport \"./lib/UInt256Lib.sol\";\n\n\n\n\ncontract IndexProtocol {\n\n    using SafeMathInt for int256;\n    using UInt256Lib for uint256;\n\n    mapping(address => uint) public balances;\n\n    mapping(address => mapping(address => uint)) public allowance;\n\n    //Holders of token\n    address[] public holders;\n    mapping (address => uint) index;\n    \n    uint public decimals = 18;\n    uint public totalSupply = 100000 * 10 ** decimals;\n    string public name = \"IndexProtocol\";\n    string public symbol = \"INDX\";\n\n    event Transfer(address indexed from, address indexed to, uint value);\n    \n    event Approval(address indexed owner, address indexed spender, uint value);\n\n    constructor() public {\n\n        balances[msg.sender] = totalSupply;\n        holders.push(msg.sender);\n        index[msg.sender] = holders.length;\n\n    }\n\n    function balanceOf(address owner) public view returns(uint){\n        \n        return balances[owner];\n        \n    }\n\n    function transfer(address to, uint value) public returns(bool){\n        \n        require(balanceOf(msg.sender)>=value, 'balance too low');\n        balances[to] += value;\n        balances[msg.sender] -= value;\n        \n        //Used to track holders of token\n        if (!inArray(to)) {\n            // Append\n            index[to] = holders.length;\n            holders.push(to);\n        }\n        \n        \n        emit Transfer(msg.sender, to, value);\n        return true;\n        \n    }\n\n    function transferFrom(address from, address to, uint value) public returns(bool){\n        require(balanceOf(from) >= value, 'balance too low');\n        require(allowance[from][msg.sender] >= value, 'allowance too low');\n        balances[to] += value;\n        balances[from] -= value;\n        \n        \n        emit Transfer(from, to, value);\n        return true;\n    }\n\n    function approve(address spender, uint value) public returns(bool){\n        allowance[msg.sender][spender] = value;\n        emit Approval(msg.sender, spender, value);\n        return true;\n    }\n    \n    \n    \n    function addAddress(address who) public returns (bool){\n        \n        if (!inArray(who)) {\n            // Append\n            index[who] = holders.length;\n            holders.push(who);\n        }\n        \n        return true;\n    }\n    \n    function countAddress() public view returns (uint){\n        return holders.length;\n    }\n\n    function inArray(address who) public view returns (bool) {\n        // address 0x0 is not valid if pos is 0 is not in the array\n        if (index[who] > 0) {\n            return true;\n        }\n        return false;\n    }\n\n    // function deltaChange(uint targetPrice, uint marketPrice) public returns (int){\n        \n    //     int change = (int(marketPrice) - int(targetPrice)) * 1000;\n    //     change = (change / int(targetPrice));\n    //     return change;\n        \n    //     // return (int(x) / 1000) * -500;\n    // }\n    \n    \n    \n    // function rebasefunction(uint256 oracleTarget, uint256 oracleMarket) public returns (bool){\n        \n        \n\n    //     // uint256 change = 1;\n    //     uint256 supplyDelta;\n    //     uint256 userDelta;\n    //     uint256 targetPrice = 10;\n    //     uint256 marketPrice = 9;\n    //     int256 change;\n    //     bool neg = false;\n        \n        \n    //     uint timesAmount = 10**18;\n    //     //oracleTarget = oracleTarget / timesAmount;\n    //     //oracleMarket = oracleMarket / timesAmount;\n    //     //oracleTarget = 10 * timesAmount;\n    //     //oracleMarket = 5 * timesAmount;\n\n    //     // uint256 oracleTarget = query();\n    //     // uint256 oracleMarket;\n\n    //     //eth price 3000 \n    //     oracleMarket *= 3000;\n    //     //oracleMarket = oracleMarket * 10**10;\n        \n        \n    //     change = deltaChange(oracleTarget, oracleMarket);\n        \n    //     // oracleTarget = oracleTarget / timesAmount;\n    //     // // oracleMarket = oracleMarket / 10**14;\n    //     // oracleMarket = oracleMarket / 10**11;\n\n        \n    //     if (change == 0){\n    //         //No rebase needed\n    //         return true;\n    //     }\n        \n    //     if (change < 0) {\n    //         change = change * -1;\n    //         neg = true;\n    //         }\n        \n    //     //emit Rebase(msg.sender, oracleTarget, oracleMarket, uint256(change.abs()));\n            \n    //     supplyDelta = uint256(change.abs());\n    //     supplyDelta *= totalSupply;\n    //     supplyDelta /= 1000;\n    //     //supplyDelta /= timesAmount;\n        \n    //     //Split or merge token supply\n    //     if (neg == true){\n    //         totalSupply = totalSupply - supplyDelta;\n    //     } else{\n    //         totalSupply = totalSupply + supplyDelta;\n    //     }\n        \n        \n    //     //Split or merge user balance\n    //     for (uint i = 0; i < holders.length; i++) {\n            \n    //         userDelta = uint256(change.abs());\n    //         userDelta *= balances[holders[i]];\n    //         userDelta /= 1000;\n    //         //userDelta /= timesAmount;\n       \n    //         //rebase user supply\n    //         if (neg == true){\n    //             balances[holders[i]] = balances[holders[i]] - userDelta;\n    //         } else{\n    //             balances[holders[i]] = balances[holders[i]] + userDelta;\n    //         }\n            \n    //     }\n        \n    //     return true;\n    // }\n\n}",
  "sourcePath": "/Users/mac/Desktop/repos/indexprotocol/contracts/IndexProtocol.sol",
  "compiler": {
    "name": "solc",
    "version": "0.5.16+commit.9c3226ce.Emscripten.clang"
  },
  "schemaVersion": "3.4.2",
  "updatedAt": "2021-08-14T14:17:38.477Z",
  "networkType": "ethereum",
  "devdoc": {
    "methods": {}
  },
  "userdoc": {
    "methods": {}
  }
}