{
  "contractName": "IndexProtocol",
  "abi": [
    {
      "inputs": [],
      "stateMutability": "nonpayable",
      "type": "constructor"
    },
    {
      "anonymous": false,
      "inputs": [
        {
          "indexed": true,
          "internalType": "address",
          "name": "owner",
          "type": "address"
        },
        {
          "indexed": true,
          "internalType": "address",
          "name": "spender",
          "type": "address"
        },
        {
          "indexed": false,
          "internalType": "uint256",
          "name": "value",
          "type": "uint256"
        }
      ],
      "name": "Approval",
      "type": "event"
    },
    {
      "anonymous": false,
      "inputs": [
        {
          "indexed": true,
          "internalType": "address",
          "name": "from",
          "type": "address"
        },
        {
          "indexed": true,
          "internalType": "address",
          "name": "to",
          "type": "address"
        },
        {
          "indexed": false,
          "internalType": "uint256",
          "name": "value",
          "type": "uint256"
        }
      ],
      "name": "Transfer",
      "type": "event"
    },
    {
      "inputs": [
        {
          "internalType": "address",
          "name": "",
          "type": "address"
        },
        {
          "internalType": "address",
          "name": "",
          "type": "address"
        }
      ],
      "name": "allowance",
      "outputs": [
        {
          "internalType": "uint256",
          "name": "",
          "type": "uint256"
        }
      ],
      "stateMutability": "view",
      "type": "function",
      "constant": true
    },
    {
      "inputs": [
        {
          "internalType": "address",
          "name": "",
          "type": "address"
        }
      ],
      "name": "balances",
      "outputs": [
        {
          "internalType": "uint256",
          "name": "",
          "type": "uint256"
        }
      ],
      "stateMutability": "view",
      "type": "function",
      "constant": true
    },
    {
      "inputs": [],
      "name": "decimals",
      "outputs": [
        {
          "internalType": "uint256",
          "name": "",
          "type": "uint256"
        }
      ],
      "stateMutability": "view",
      "type": "function",
      "constant": true
    },
    {
      "inputs": [
        {
          "internalType": "uint256",
          "name": "",
          "type": "uint256"
        }
      ],
      "name": "holders",
      "outputs": [
        {
          "internalType": "address",
          "name": "",
          "type": "address"
        }
      ],
      "stateMutability": "view",
      "type": "function",
      "constant": true
    },
    {
      "inputs": [],
      "name": "name",
      "outputs": [
        {
          "internalType": "string",
          "name": "",
          "type": "string"
        }
      ],
      "stateMutability": "view",
      "type": "function",
      "constant": true
    },
    {
      "inputs": [],
      "name": "symbol",
      "outputs": [
        {
          "internalType": "string",
          "name": "",
          "type": "string"
        }
      ],
      "stateMutability": "view",
      "type": "function",
      "constant": true
    },
    {
      "inputs": [],
      "name": "totalSupply",
      "outputs": [
        {
          "internalType": "uint256",
          "name": "",
          "type": "uint256"
        }
      ],
      "stateMutability": "view",
      "type": "function",
      "constant": true
    },
    {
      "inputs": [
        {
          "internalType": "address",
          "name": "owner",
          "type": "address"
        }
      ],
      "name": "balanceOf",
      "outputs": [
        {
          "internalType": "uint256",
          "name": "",
          "type": "uint256"
        }
      ],
      "stateMutability": "view",
      "type": "function",
      "constant": true
    },
    {
      "inputs": [
        {
          "internalType": "address",
          "name": "to",
          "type": "address"
        },
        {
          "internalType": "uint256",
          "name": "value",
          "type": "uint256"
        }
      ],
      "name": "transfer",
      "outputs": [
        {
          "internalType": "bool",
          "name": "",
          "type": "bool"
        }
      ],
      "stateMutability": "nonpayable",
      "type": "function"
    },
    {
      "inputs": [
        {
          "internalType": "address",
          "name": "from",
          "type": "address"
        },
        {
          "internalType": "address",
          "name": "to",
          "type": "address"
        },
        {
          "internalType": "uint256",
          "name": "value",
          "type": "uint256"
        }
      ],
      "name": "transferFrom",
      "outputs": [
        {
          "internalType": "bool",
          "name": "",
          "type": "bool"
        }
      ],
      "stateMutability": "nonpayable",
      "type": "function"
    },
    {
      "inputs": [
        {
          "internalType": "address",
          "name": "spender",
          "type": "address"
        },
        {
          "internalType": "uint256",
          "name": "value",
          "type": "uint256"
        }
      ],
      "name": "approve",
      "outputs": [
        {
          "internalType": "bool",
          "name": "",
          "type": "bool"
        }
      ],
      "stateMutability": "nonpayable",
      "type": "function"
    },
    {
      "inputs": [
        {
          "internalType": "address",
          "name": "who",
          "type": "address"
        }
      ],
      "name": "addAddress",
      "outputs": [
        {
          "internalType": "bool",
          "name": "",
          "type": "bool"
        }
      ],
      "stateMutability": "nonpayable",
      "type": "function"
    },
    {
      "inputs": [],
      "name": "countAddress",
      "outputs": [
        {
          "internalType": "uint256",
          "name": "",
          "type": "uint256"
        }
      ],
      "stateMutability": "view",
      "type": "function",
      "constant": true
    },
    {
      "inputs": [
        {
          "internalType": "address",
          "name": "who",
          "type": "address"
        }
      ],
      "name": "inArray",
      "outputs": [
        {
          "internalType": "bool",
          "name": "",
          "type": "bool"
        }
      ],
      "stateMutability": "view",
      "type": "function",
      "constant": true
    },
    {
      "inputs": [
        {
          "internalType": "uint256",
          "name": "targetPrice",
          "type": "uint256"
        },
        {
          "internalType": "uint256",
          "name": "marketPrice",
          "type": "uint256"
        }
      ],
      "name": "deltaChange",
      "outputs": [
        {
          "internalType": "int256",
          "name": "",
          "type": "int256"
        }
      ],
      "stateMutability": "nonpayable",
      "type": "function"
    },
    {
      "inputs": [
        {
          "internalType": "uint256",
          "name": "oracleTarget",
          "type": "uint256"
        },
        {
          "internalType": "uint256",
          "name": "oracleMarket",
          "type": "uint256"
        }
      ],
      "name": "rebasefunction",
      "outputs": [
        {
          "internalType": "bool",
          "name": "",
          "type": "bool"
        }
      ],
      "stateMutability": "nonpayable",
      "type": "function"
    }
  ],
  "bytecode": "0x60806040526012600455600454600a6200001a9190620002d9565b620186a06200002a919062000416565b6005556040518060400160405280600d81526020017f496e64657850726f746f636f6c00000000000000000000000000000000000000815250600690805190602001906200007a929190620001ce565b506040518060400160405280600481526020017f494e44580000000000000000000000000000000000000000000000000000000081525060079080519060200190620000c8929190620001ce565b50348015620000d657600080fd5b506005546000803373ffffffffffffffffffffffffffffffffffffffff1673ffffffffffffffffffffffffffffffffffffffff168152602001908152602001600020819055506002339080600181540180825580915050600190039060005260206000200160009091909190916101000a81548173ffffffffffffffffffffffffffffffffffffffff021916908373ffffffffffffffffffffffffffffffffffffffff160217905550600280549050600360003373ffffffffffffffffffffffffffffffffffffffff1673ffffffffffffffffffffffffffffffffffffffff1681526020019081526020016000208190555062000522565b828054620001dc9062000481565b90600052602060002090601f0160209004810192826200020057600085556200024c565b82601f106200021b57805160ff19168380011785556200024c565b828001600101855582156200024c579182015b828111156200024b5782518255916020019190600101906200022e565b5b5090506200025b91906200025f565b5090565b5b808211156200027a57600081600090555060010162000260565b5090565b6000808291508390505b6001851115620002d057808604811115620002a857620002a7620004b7565b5b6001851615620002b85780820291505b8081029050620002c88562000515565b945062000288565b94509492505050565b6000620002e68262000477565b9150620002f38362000477565b9250620003227fffffffffffffffffffffffffffffffffffffffffffffffffffffffffffffffff84846200032a565b905092915050565b6000826200033c57600190506200040f565b816200034c57600090506200040f565b81600181146200036557600281146200037057620003a6565b60019150506200040f565b60ff841115620003855762000384620004b7565b5b8360020a9150848211156200039f576200039e620004b7565b5b506200040f565b5060208310610133831016604e8410600b8410161715620003e05782820a905083811115620003da57620003d9620004b7565b5b6200040f565b620003ef84848460016200027e565b92509050818404811115620004095762000408620004b7565b5b81810290505b9392505050565b6000620004238262000477565b9150620004308362000477565b9250817fffffffffffffffffffffffffffffffffffffffffffffffffffffffffffffffff04831182151516156200046c576200046b620004b7565b5b828202905092915050565b6000819050919050565b600060028204905060018216806200049a57607f821691505b60208210811415620004b157620004b0620004e6565b5b50919050565b7f4e487b7100000000000000000000000000000000000000000000000000000000600052601160045260246000fd5b7f4e487b7100000000000000000000000000000000000000000000000000000000600052602260045260246000fd5b60008160011c9050919050565b611a1580620005326000396000f3fe608060405234801561001057600080fd5b50600436106101005760003560e01c806338eada1c1161009757806395d89b411161006657806395d89b41146102fd578063a9059cbb1461031b578063dd62ed3e1461034b578063deac46591461037b57610100565b806338eada1c1461024f57806342154e9c1461027f578063485894f91461029d57806370a08231146102cd57610100565b806323b872dd116100d357806323b872dd146101a157806327e235e3146101d15780632a11ced014610201578063313ce5671461023157610100565b806306fdde0314610105578063095ea7b31461012357806311d1ab6b1461015357806318160ddd14610183575b600080fd5b61010d6103ab565b60405161011a9190611407565b60405180910390f35b61013d60048036038101906101389190611220565b610439565b60405161014a91906113d1565b60405180910390f35b61016d60048036038101906101689190611285565b61052b565b60405161017a91906113ec565b60405180910390f35b61018b610562565b6040516101989190611469565b60405180910390f35b6101bb60048036038101906101b691906111d1565b610568565b6040516101c891906113d1565b60405180910390f35b6101eb60048036038101906101e6919061116c565b61078e565b6040516101f89190611469565b60405180910390f35b61021b6004803603810190610216919061125c565b6107a6565b60405161022891906113b6565b60405180910390f35b6102396107e5565b6040516102469190611469565b60405180910390f35b6102696004803603810190610264919061116c565b6107eb565b60405161027691906113d1565b60405180910390f35b6102876108b0565b6040516102949190611469565b60405180910390f35b6102b760048036038101906102b29190611285565b6108bd565b6040516102c491906113d1565b60405180910390f35b6102e760048036038101906102e2919061116c565b610d97565b6040516102f49190611469565b60405180910390f35b610305610ddf565b6040516103129190611407565b60405180910390f35b61033560048036038101906103309190611220565b610e6d565b60405161034291906113d1565b60405180910390f35b61036560048036038101906103609190611195565b61108d565b6040516103729190611469565b60405180910390f35b6103956004803603810190610390919061116c565b6110b2565b6040516103a291906113d1565b60405180910390f35b600680546103b89061184f565b80601f01602080910402602001604051908101604052809291908181526020018280546103e49061184f565b80156104315780601f1061040657610100808354040283529160200191610431565b820191906000526020600020905b81548152906001019060200180831161041457829003601f168201915b505050505081565b600081600160003373ffffffffffffffffffffffffffffffffffffffff1673ffffffffffffffffffffffffffffffffffffffff16815260200190815260200160002060008573ffffffffffffffffffffffffffffffffffffffff1673ffffffffffffffffffffffffffffffffffffffff168152602001908152602001600020819055508273ffffffffffffffffffffffffffffffffffffffff163373ffffffffffffffffffffffffffffffffffffffff167f8c5be1e5ebec7d5bd14f71427d1e84f3dd0314c0f7b2291e5b200ac8c7c3b925846040516105199190611469565b60405180910390a36001905092915050565b600080620186a0848461053e9190611702565b6105489190611591565b9050838161055691906114f6565b90508091505092915050565b60055481565b60008161057485610d97565b10156105b5576040517f08c379a00000000000000000000000000000000000000000000000000000000081526004016105ac90611429565b60405180910390fd5b81600160008673ffffffffffffffffffffffffffffffffffffffff1673ffffffffffffffffffffffffffffffffffffffff16815260200190815260200160002060003373ffffffffffffffffffffffffffffffffffffffff1673ffffffffffffffffffffffffffffffffffffffff168152602001908152602001600020541015610674576040517f08c379a000000000000000000000000000000000000000000000000000000000815260040161066b90611449565b60405180910390fd5b816000808573ffffffffffffffffffffffffffffffffffffffff1673ffffffffffffffffffffffffffffffffffffffff16815260200190815260200160002060008282546106c291906114a0565b92505081905550816000808673ffffffffffffffffffffffffffffffffffffffff1673ffffffffffffffffffffffffffffffffffffffff16815260200190815260200160002060008282546107179190611796565b925050819055508273ffffffffffffffffffffffffffffffffffffffff168473ffffffffffffffffffffffffffffffffffffffff167fddf252ad1be2c89b69c2b068fc378daa952ba7f163c4a11628f55a4df523b3ef8460405161077b9190611469565b60405180910390a3600190509392505050565b60006020528060005260406000206000915090505481565b600281815481106107b657600080fd5b906000526020600020016000915054906101000a900473ffffffffffffffffffffffffffffffffffffffff1681565b60045481565b60006107f6826110b2565b6108a757600280549050600360008473ffffffffffffffffffffffffffffffffffffffff1673ffffffffffffffffffffffffffffffffffffffff168152602001908152602001600020819055506002829080600181540180825580915050600190039060005260206000200160009091909190916101000a81548173ffffffffffffffffffffffffffffffffffffffff021916908373ffffffffffffffffffffffffffffffffffffffff1602179055505b60019050919050565b6000600280549050905090565b600080600080600a9050600060099050600080600090506000670de0b6b3a76400009050610bb8896108ef91906116a8565b98506108fb8a8a61052b565b9250808a6109099190611560565b995064174876e8008961091c9190611560565b98506000831415610937576001975050505050505050610d91565b6000831215610973577fffffffffffffffffffffffffffffffffffffffffffffffffffffffffffffffff8361096c9190611591565b9250600191505b61097c8361110e565b96506005548761098c91906116a8565b9650620186a08761099d9190611560565b96506001151582151514156109c557866005546109ba9190611796565b6005819055506109da565b866005546109d391906114a0565b6005819055505b60005b600280549050811015610d84576109f38461110e565b965060008060028381548110610a32577f4e487b7100000000000000000000000000000000000000000000000000000000600052603260045260246000fd5b9060005260206000200160009054906101000a900473ffffffffffffffffffffffffffffffffffffffff1673ffffffffffffffffffffffffffffffffffffffff1673ffffffffffffffffffffffffffffffffffffffff1681526020019081526020016000205487610aa391906116a8565b9650620186a087610ab49190611560565b9650600115158315151415610c1c578660008060028481548110610b01577f4e487b7100000000000000000000000000000000000000000000000000000000600052603260045260246000fd5b9060005260206000200160009054906101000a900473ffffffffffffffffffffffffffffffffffffffff1673ffffffffffffffffffffffffffffffffffffffff1673ffffffffffffffffffffffffffffffffffffffff16815260200190815260200160002054610b719190611796565b60008060028481548110610bae577f4e487b7100000000000000000000000000000000000000000000000000000000600052603260045260246000fd5b9060005260206000200160009054906101000a900473ffffffffffffffffffffffffffffffffffffffff1673ffffffffffffffffffffffffffffffffffffffff1673ffffffffffffffffffffffffffffffffffffffff16815260200190815260200160002081905550610d71565b8660008060028481548110610c5a577f4e487b7100000000000000000000000000000000000000000000000000000000600052603260045260246000fd5b9060005260206000200160009054906101000a900473ffffffffffffffffffffffffffffffffffffffff1673ffffffffffffffffffffffffffffffffffffffff1673ffffffffffffffffffffffffffffffffffffffff16815260200190815260200160002054610cca91906114a0565b60008060028481548110610d07577f4e487b7100000000000000000000000000000000000000000000000000000000600052603260045260246000fd5b9060005260206000200160009054906101000a900473ffffffffffffffffffffffffffffffffffffffff1673ffffffffffffffffffffffffffffffffffffffff1673ffffffffffffffffffffffffffffffffffffffff168152602001908152602001600020819055505b8080610d7c90611881565b9150506109dd565b5060019750505050505050505b92915050565b60008060008373ffffffffffffffffffffffffffffffffffffffff1673ffffffffffffffffffffffffffffffffffffffff168152602001908152602001600020549050919050565b60078054610dec9061184f565b80601f0160208091040260200160405190810160405280929190818152602001828054610e189061184f565b8015610e655780601f10610e3a57610100808354040283529160200191610e65565b820191906000526020600020905b815481529060010190602001808311610e4857829003601f168201915b505050505081565b600081610e7933610d97565b1015610eba576040517f08c379a0000000000000000000000000000000000000000000000000000000008152600401610eb190611429565b60405180910390fd5b816000808573ffffffffffffffffffffffffffffffffffffffff1673ffffffffffffffffffffffffffffffffffffffff1681526020019081526020016000206000828254610f0891906114a0565b92505081905550816000803373ffffffffffffffffffffffffffffffffffffffff1673ffffffffffffffffffffffffffffffffffffffff1681526020019081526020016000206000828254610f5d9190611796565b92505081905550610f6d836110b2565b61101e57600280549050600360008573ffffffffffffffffffffffffffffffffffffffff1673ffffffffffffffffffffffffffffffffffffffff168152602001908152602001600020819055506002839080600181540180825580915050600190039060005260206000200160009091909190916101000a81548173ffffffffffffffffffffffffffffffffffffffff021916908373ffffffffffffffffffffffffffffffffffffffff1602179055505b8273ffffffffffffffffffffffffffffffffffffffff163373ffffffffffffffffffffffffffffffffffffffff167fddf252ad1be2c89b69c2b068fc378daa952ba7f163c4a11628f55a4df523b3ef8460405161107b9190611469565b60405180910390a36001905092915050565b6001602052816000526040600020602052806000526040600020600091509150505481565b600080600360008473ffffffffffffffffffffffffffffffffffffffff1673ffffffffffffffffffffffffffffffffffffffff1681526020019081526020016000205411156111045760019050611109565b600090505b919050565b600060ff6001901b82141561112257600080fd5b60008212611130578161113b565b8161113a906118ca565b5b9050919050565b600081359050611151816119b1565b92915050565b600081359050611166816119c8565b92915050565b60006020828403121561117e57600080fd5b600061118c84828501611142565b91505092915050565b600080604083850312156111a857600080fd5b60006111b685828601611142565b92505060206111c785828601611142565b9150509250929050565b6000806000606084860312156111e657600080fd5b60006111f486828701611142565b935050602061120586828701611142565b925050604061121686828701611157565b9150509250925092565b6000806040838503121561123357600080fd5b600061124185828601611142565b925050602061125285828601611157565b9150509250929050565b60006020828403121561126e57600080fd5b600061127c84828501611157565b91505092915050565b6000806040838503121561129857600080fd5b60006112a685828601611157565b92505060206112b785828601611157565b9150509250929050565b6112ca816117ca565b82525050565b6112d9816117dc565b82525050565b6112e8816117e8565b82525050565b60006112f982611484565b611303818561148f565b935061131381856020860161181c565b61131c816119a0565b840191505092915050565b6000611334600f8361148f565b91507f62616c616e636520746f6f206c6f7700000000000000000000000000000000006000830152602082019050919050565b600061137460118361148f565b91507f616c6c6f77616e636520746f6f206c6f770000000000000000000000000000006000830152602082019050919050565b6113b081611812565b82525050565b60006020820190506113cb60008301846112c1565b92915050565b60006020820190506113e660008301846112d0565b92915050565b600060208201905061140160008301846112df565b92915050565b6000602082019050818103600083015261142181846112ee565b905092915050565b6000602082019050818103600083015261144281611327565b9050919050565b6000602082019050818103600083015261146281611367565b9050919050565b600060208201905061147e60008301846113a7565b92915050565b600081519050919050565b600082825260208201905092915050565b60006114ab82611812565b91506114b683611812565b9250827fffffffffffffffffffffffffffffffffffffffffffffffffffffffffffffffff038211156114eb576114ea611913565b5b828201905092915050565b6000611501826117e8565b915061150c836117e8565b92508261151c5761151b611942565b5b600160000383147f80000000000000000000000000000000000000000000000000000000000000008314161561155557611554611913565b5b828205905092915050565b600061156b82611812565b915061157683611812565b92508261158657611585611942565b5b828204905092915050565b600061159c826117e8565b91506115a7836117e8565b9250827f7fffffffffffffffffffffffffffffffffffffffffffffffffffffffffffffff04821160008413600084131616156115e6576115e5611913565b5b817f8000000000000000000000000000000000000000000000000000000000000000058312600084126000841316161561162357611622611913565b5b827f800000000000000000000000000000000000000000000000000000000000000005821260008413600084121616156116605761165f611913565b5b827f7fffffffffffffffffffffffffffffffffffffffffffffffffffffffffffffff058212600084126000841216161561169d5761169c611913565b5b828202905092915050565b60006116b382611812565b91506116be83611812565b9250817fffffffffffffffffffffffffffffffffffffffffffffffffffffffffffffffff04831182151516156116f7576116f6611913565b5b828202905092915050565b600061170d826117e8565b9150611718836117e8565b9250827f80000000000000000000000000000000000000000000000000000000000000000182126000841215161561175357611752611913565b5b827f7fffffffffffffffffffffffffffffffffffffffffffffffffffffffffffffff01821360008412161561178b5761178a611913565b5b828203905092915050565b60006117a182611812565b91506117ac83611812565b9250828210156117bf576117be611913565b5b828203905092915050565b60006117d5826117f2565b9050919050565b60008115159050919050565b6000819050919050565b600073ffffffffffffffffffffffffffffffffffffffff82169050919050565b6000819050919050565b60005b8381101561183a57808201518184015260208101905061181f565b83811115611849576000848401525b50505050565b6000600282049050600182168061186757607f821691505b6020821081141561187b5761187a611971565b5b50919050565b600061188c82611812565b91507fffffffffffffffffffffffffffffffffffffffffffffffffffffffffffffffff8214156118bf576118be611913565b5b600182019050919050565b60006118d5826117e8565b91507f800000000000000000000000000000000000000000000000000000000000000082141561190857611907611913565b5b816000039050919050565b7f4e487b7100000000000000000000000000000000000000000000000000000000600052601160045260246000fd5b7f4e487b7100000000000000000000000000000000000000000000000000000000600052601260045260246000fd5b7f4e487b7100000000000000000000000000000000000000000000000000000000600052602260045260246000fd5b6000601f19601f8301169050919050565b6119ba816117ca565b81146119c557600080fd5b50565b6119d181611812565b81146119dc57600080fd5b5056fea2646970667358221220cdaa6da287a75a2bf888098aea669149e732c42fc9301ec949530a2c75031c9664736f6c63430008000033",
  "immutableReferences": {},
  "source": "pragma solidity ^0.8.0;\nimport \"./lib/SafeMathInt.sol\";\nimport \"./lib/UInt256Lib.sol\";\ncontract IndexProtocol {\n\n    using SafeMathInt for int256;\n    using UInt256Lib for uint256;\n\n    mapping(address => uint) public balances;\n\n    mapping(address => mapping(address => uint)) public allowance;\n\n    //Holders of token\n    address[] public holders;\n    mapping (address => uint) index;\n    \n    uint public decimals = 18;\n    uint public totalSupply = 100000 * 10 ** decimals;\n    string public name = \"IndexProtocol\";\n    string public symbol = \"INDX\";\n\n    event Transfer(address indexed from, address indexed to, uint value);\n    \n    event Approval(address indexed owner, address indexed spender, uint value);\n\n    constructor() public {\n\n        balances[msg.sender] = totalSupply;\n        holders.push(msg.sender);\n        index[msg.sender] = holders.length;\n\n    }\n\n    function balanceOf(address owner) public view returns(uint){\n        \n        return balances[owner];\n        \n    }\n\n    function transfer(address to, uint value) public returns(bool){\n        \n        require(balanceOf(msg.sender)>=value, 'balance too low');\n        balances[to] += value;\n        balances[msg.sender] -= value;\n        \n        //Used to track holders of token\n        if (!inArray(to)) {\n            // Append\n            index[to] = holders.length;\n            holders.push(to);\n        }\n        \n        \n        emit Transfer(msg.sender, to, value);\n        return true;\n        \n    }\n\n    function transferFrom(address from, address to, uint value) public returns(bool){\n        require(balanceOf(from) >= value, 'balance too low');\n        require(allowance[from][msg.sender] >= value, 'allowance too low');\n        balances[to] += value;\n        balances[from] -= value;\n        \n        \n        emit Transfer(from, to, value);\n        return true;\n    }\n\n    function approve(address spender, uint value) public returns(bool){\n        allowance[msg.sender][spender] = value;\n        emit Approval(msg.sender, spender, value);\n        return true;\n    }\n    \n    \n    \n    function addAddress(address who) public returns (bool){\n        \n        if (!inArray(who)) {\n            // Append\n            index[who] = holders.length;\n            holders.push(who);\n        }\n        \n        return true;\n    }\n    \n    function countAddress() public view returns (uint){\n        return holders.length;\n    }\n\n    function inArray(address who) public view returns (bool) {\n        // address 0x0 is not valid if pos is 0 is not in the array\n        if (index[who] > 0) {\n            return true;\n        }\n        return false;\n    }\n\n    function deltaChange(uint targetPrice, uint marketPrice) public returns (int){\n        \n        int change = (int(marketPrice) - int(targetPrice)) * 100000;\n        change = (change / int(targetPrice));\n        return change;\n        \n        // return (int(x) / 1000) * -500;\n    }\n    \n    \n    \n    function rebasefunction(uint256 oracleTarget, uint256 oracleMarket) public returns (bool){\n        \n        // uint256 change = 1;\n        uint256 supplyDelta;\n        uint256 userDelta;\n        uint256 targetPrice = 10;\n        uint256 marketPrice = 9;\n        int256 change;\n        bool neg = false;\n        \n        \n        uint timesAmount = 10**18;\n        //oracleTarget = oracleTarget / timesAmount;\n        //oracleMarket = oracleMarket / timesAmount;\n        //oracleTarget = 10 * timesAmount;\n        //oracleMarket = 5 * timesAmount;\n\n        // uint256 oracleTarget = query();\n        // uint256 oracleMarket;\n\n        //eth price 3000 \n        oracleMarket *= 3000;\n        \n        \n        change = deltaChange(oracleTarget, oracleMarket);\n        \n        oracleTarget = oracleTarget / timesAmount;\n        // oracleMarket = oracleMarket / 10**14;\n        oracleMarket = oracleMarket / 10**11;\n\n        \n        if (change == 0){\n            //No rebase needed\n            return true;\n        }\n        \n        if (change < 0) {\n            change = change * -1;\n            neg = true;\n            }\n        \n        //emit Rebase(msg.sender, oracleTarget, oracleMarket, uint256(change.abs()));\n            \n        supplyDelta = uint256(change.abs());\n        supplyDelta *= totalSupply;\n        supplyDelta /= 100000;\n        //supplyDelta /= timesAmount;\n        \n        //Split or merge token supply\n        if (neg == true){\n            totalSupply = totalSupply - supplyDelta;\n        } else{\n            totalSupply = totalSupply + supplyDelta;\n        }\n        \n        \n        //Split or merge user balance\n        for (uint i = 0; i < holders.length; i++) {\n            \n            userDelta = uint256(change.abs());\n            userDelta *= balances[holders[i]];\n            userDelta /= 100000;\n            //userDelta /= timesAmount;\n       \n            //rebase user supply\n            if (neg == true){\n                balances[holders[i]] = balances[holders[i]] - userDelta;\n            } else{\n                balances[holders[i]] = balances[holders[i]] + userDelta;\n            }\n            \n        }\n        \n        return true;\n    }\n\n}",
  "sourcePath": "/Users/mac/Desktop/repos/indexprotocol/contracts/IndexProtocol.sol",
  "compiler": {
    "name": "solc",
    "version": "0.8.0+commit.c7dfd78e.Emscripten.clang"
  },
  "schemaVersion": "3.4.2",
  "updatedAt": "2021-08-11T23:11:36.638Z",
  "networkType": "ethereum",
  "devdoc": {
    "kind": "dev",
    "methods": {},
    "version": 1
  },
  "userdoc": {
    "kind": "user",
    "methods": {},
    "version": 1
  }
}