{
  "contractName": "IndexProtocol89",
  "abi": [
    {
      "inputs": [],
      "stateMutability": "nonpayable",
      "type": "constructor"
    },
    {
      "anonymous": false,
      "inputs": [
        {
          "indexed": true,
          "internalType": "address",
          "name": "owner",
          "type": "address"
        },
        {
          "indexed": true,
          "internalType": "address",
          "name": "spender",
          "type": "address"
        },
        {
          "indexed": false,
          "internalType": "uint256",
          "name": "value",
          "type": "uint256"
        }
      ],
      "name": "Approval",
      "type": "event"
    },
    {
      "anonymous": false,
      "inputs": [
        {
          "indexed": true,
          "internalType": "bytes32",
          "name": "id",
          "type": "bytes32"
        }
      ],
      "name": "ChainlinkCancelled",
      "type": "event"
    },
    {
      "anonymous": false,
      "inputs": [
        {
          "indexed": true,
          "internalType": "bytes32",
          "name": "id",
          "type": "bytes32"
        }
      ],
      "name": "ChainlinkFulfilled",
      "type": "event"
    },
    {
      "anonymous": false,
      "inputs": [
        {
          "indexed": true,
          "internalType": "bytes32",
          "name": "id",
          "type": "bytes32"
        }
      ],
      "name": "ChainlinkRequested",
      "type": "event"
    },
    {
      "anonymous": false,
      "inputs": [
        {
          "indexed": true,
          "internalType": "address",
          "name": "caller",
          "type": "address"
        },
        {
          "indexed": false,
          "internalType": "uint256",
          "name": "targetPrice",
          "type": "uint256"
        },
        {
          "indexed": false,
          "internalType": "uint256",
          "name": "marketPrice",
          "type": "uint256"
        },
        {
          "indexed": false,
          "internalType": "uint256",
          "name": "change",
          "type": "uint256"
        }
      ],
      "name": "Rebase",
      "type": "event"
    },
    {
      "anonymous": false,
      "inputs": [
        {
          "indexed": true,
          "internalType": "address",
          "name": "from",
          "type": "address"
        },
        {
          "indexed": true,
          "internalType": "address",
          "name": "to",
          "type": "address"
        },
        {
          "indexed": false,
          "internalType": "uint256",
          "name": "value",
          "type": "uint256"
        }
      ],
      "name": "Transfer",
      "type": "event"
    },
    {
      "inputs": [
        {
          "internalType": "address",
          "name": "",
          "type": "address"
        },
        {
          "internalType": "address",
          "name": "",
          "type": "address"
        }
      ],
      "name": "allowance",
      "outputs": [
        {
          "internalType": "uint256",
          "name": "",
          "type": "uint256"
        }
      ],
      "stateMutability": "view",
      "type": "function",
      "constant": true
    },
    {
      "inputs": [
        {
          "internalType": "address",
          "name": "",
          "type": "address"
        }
      ],
      "name": "balances",
      "outputs": [
        {
          "internalType": "uint256",
          "name": "",
          "type": "uint256"
        }
      ],
      "stateMutability": "view",
      "type": "function",
      "constant": true
    },
    {
      "inputs": [],
      "name": "decimals",
      "outputs": [
        {
          "internalType": "uint256",
          "name": "",
          "type": "uint256"
        }
      ],
      "stateMutability": "view",
      "type": "function",
      "constant": true
    },
    {
      "inputs": [
        {
          "internalType": "uint256",
          "name": "",
          "type": "uint256"
        }
      ],
      "name": "holders",
      "outputs": [
        {
          "internalType": "address",
          "name": "",
          "type": "address"
        }
      ],
      "stateMutability": "view",
      "type": "function",
      "constant": true
    },
    {
      "inputs": [],
      "name": "name",
      "outputs": [
        {
          "internalType": "string",
          "name": "",
          "type": "string"
        }
      ],
      "stateMutability": "view",
      "type": "function",
      "constant": true
    },
    {
      "inputs": [],
      "name": "oracleMarket",
      "outputs": [
        {
          "internalType": "uint256",
          "name": "",
          "type": "uint256"
        }
      ],
      "stateMutability": "view",
      "type": "function",
      "constant": true
    },
    {
      "inputs": [],
      "name": "oracleTarget",
      "outputs": [
        {
          "internalType": "uint256",
          "name": "",
          "type": "uint256"
        }
      ],
      "stateMutability": "view",
      "type": "function",
      "constant": true
    },
    {
      "inputs": [],
      "name": "sharesPer",
      "outputs": [
        {
          "internalType": "uint256",
          "name": "",
          "type": "uint256"
        }
      ],
      "stateMutability": "view",
      "type": "function",
      "constant": true
    },
    {
      "inputs": [],
      "name": "symbol",
      "outputs": [
        {
          "internalType": "string",
          "name": "",
          "type": "string"
        }
      ],
      "stateMutability": "view",
      "type": "function",
      "constant": true
    },
    {
      "inputs": [],
      "name": "totalShares",
      "outputs": [
        {
          "internalType": "uint256",
          "name": "",
          "type": "uint256"
        }
      ],
      "stateMutability": "view",
      "type": "function",
      "constant": true
    },
    {
      "inputs": [],
      "name": "totalSupply",
      "outputs": [
        {
          "internalType": "uint256",
          "name": "",
          "type": "uint256"
        }
      ],
      "stateMutability": "view",
      "type": "function",
      "constant": true
    },
    {
      "inputs": [],
      "name": "uniswapV3PoolAddress",
      "outputs": [
        {
          "internalType": "address",
          "name": "",
          "type": "address"
        }
      ],
      "stateMutability": "view",
      "type": "function",
      "constant": true
    },
    {
      "inputs": [],
      "name": "volume",
      "outputs": [
        {
          "internalType": "uint256",
          "name": "",
          "type": "uint256"
        }
      ],
      "stateMutability": "view",
      "type": "function",
      "constant": true
    },
    {
      "inputs": [
        {
          "internalType": "address",
          "name": "owner",
          "type": "address"
        }
      ],
      "name": "balanceOf",
      "outputs": [
        {
          "internalType": "uint256",
          "name": "",
          "type": "uint256"
        }
      ],
      "stateMutability": "view",
      "type": "function",
      "constant": true
    },
    {
      "inputs": [
        {
          "internalType": "address",
          "name": "to",
          "type": "address"
        },
        {
          "internalType": "uint256",
          "name": "value",
          "type": "uint256"
        }
      ],
      "name": "transfer",
      "outputs": [
        {
          "internalType": "bool",
          "name": "",
          "type": "bool"
        }
      ],
      "stateMutability": "nonpayable",
      "type": "function"
    },
    {
      "inputs": [
        {
          "internalType": "address",
          "name": "from",
          "type": "address"
        },
        {
          "internalType": "address",
          "name": "to",
          "type": "address"
        },
        {
          "internalType": "uint256",
          "name": "value",
          "type": "uint256"
        }
      ],
      "name": "transferFrom",
      "outputs": [
        {
          "internalType": "bool",
          "name": "",
          "type": "bool"
        }
      ],
      "stateMutability": "nonpayable",
      "type": "function"
    },
    {
      "inputs": [
        {
          "internalType": "address",
          "name": "spender",
          "type": "address"
        },
        {
          "internalType": "uint256",
          "name": "value",
          "type": "uint256"
        }
      ],
      "name": "approve",
      "outputs": [
        {
          "internalType": "bool",
          "name": "",
          "type": "bool"
        }
      ],
      "stateMutability": "nonpayable",
      "type": "function"
    },
    {
      "inputs": [
        {
          "internalType": "address",
          "name": "who",
          "type": "address"
        }
      ],
      "name": "addAddress",
      "outputs": [
        {
          "internalType": "bool",
          "name": "",
          "type": "bool"
        }
      ],
      "stateMutability": "nonpayable",
      "type": "function"
    },
    {
      "inputs": [],
      "name": "countAddress",
      "outputs": [
        {
          "internalType": "uint256",
          "name": "",
          "type": "uint256"
        }
      ],
      "stateMutability": "view",
      "type": "function",
      "constant": true
    },
    {
      "inputs": [
        {
          "internalType": "address",
          "name": "who",
          "type": "address"
        }
      ],
      "name": "inArray",
      "outputs": [
        {
          "internalType": "bool",
          "name": "",
          "type": "bool"
        }
      ],
      "stateMutability": "view",
      "type": "function",
      "constant": true
    },
    {
      "inputs": [
        {
          "internalType": "uint256",
          "name": "targetPrice",
          "type": "uint256"
        },
        {
          "internalType": "uint256",
          "name": "marketPrice",
          "type": "uint256"
        }
      ],
      "name": "deltaChange",
      "outputs": [
        {
          "internalType": "int256",
          "name": "",
          "type": "int256"
        }
      ],
      "stateMutability": "nonpayable",
      "type": "function"
    },
    {
      "inputs": [],
      "name": "rebase",
      "outputs": [
        {
          "internalType": "bool",
          "name": "",
          "type": "bool"
        }
      ],
      "stateMutability": "nonpayable",
      "type": "function"
    },
    {
      "inputs": [],
      "name": "startRebase",
      "outputs": [
        {
          "internalType": "bytes32",
          "name": "requestId",
          "type": "bytes32"
        }
      ],
      "stateMutability": "nonpayable",
      "type": "function"
    },
    {
      "inputs": [
        {
          "internalType": "bytes32",
          "name": "_requestId",
          "type": "bytes32"
        },
        {
          "internalType": "uint256",
          "name": "_volume",
          "type": "uint256"
        }
      ],
      "name": "fulfill",
      "outputs": [],
      "stateMutability": "nonpayable",
      "type": "function"
    },
    {
      "inputs": [],
      "name": "oracleMarketPrice",
      "outputs": [
        {
          "internalType": "bytes32",
          "name": "requestId",
          "type": "bytes32"
        }
      ],
      "stateMutability": "nonpayable",
      "type": "function"
    },
    {
      "inputs": [
        {
          "internalType": "bytes32",
          "name": "_requestId",
          "type": "bytes32"
        },
        {
          "internalType": "uint256",
          "name": "_volume",
          "type": "uint256"
        }
      ],
      "name": "fulfillMarket",
      "outputs": [],
      "stateMutability": "nonpayable",
      "type": "function"
    },
    {
      "inputs": [
        {
          "internalType": "uint32",
          "name": "s0",
          "type": "uint32"
        },
        {
          "internalType": "uint32",
          "name": "s1",
          "type": "uint32"
        }
      ],
      "name": "uniswapMarket",
      "outputs": [
        {
          "internalType": "uint160",
          "name": "",
          "type": "uint160"
        }
      ],
      "stateMutability": "view",
      "type": "function",
      "constant": true
    }
  ],
  "bytecode": "0x608060405260016004556012600a55600a54600a6200001f9190620004fe565b620186a06200002f91906200063b565b600b556040518060400160405280600d81526020017f496e64657850726f746f636f6c00000000000000000000000000000000000000815250600c90805190602001906200007f929190620003b0565b506040518060400160405280600481526020017f494e445800000000000000000000000000000000000000000000000000000000815250600d9080519060200190620000cd929190620003b0565b50348015620000db57600080fd5b50600b54600660003373ffffffffffffffffffffffffffffffffffffffff1673ffffffffffffffffffffffffffffffffffffffff168152602001908152602001600020819055506008339080600181540180825580915050600190039060005260206000200160009091909190916101000a81548173ffffffffffffffffffffffffffffffffffffffff021916908373ffffffffffffffffffffffffffffffffffffffff160217905550600880549050600960003373ffffffffffffffffffffffffffffffffffffffff1673ffffffffffffffffffffffffffffffffffffffff16815260200190815260200160002081905550620001de620002c460201b60201c565b733a56ae4a2831c3d3514b5d7af5578e45ebdb7a40601160006101000a81548173ffffffffffffffffffffffffffffffffffffffff021916908373ffffffffffffffffffffffffffffffffffffffff1602179055507f336237636130643438633761346232646139323638343536363635643131616560128190555067016345785d8a000060138190555073eecac0f984c6b69888c63d681a1731c4ac79bdc9601660006101000a81548173ffffffffffffffffffffffffffffffffffffffff021916908373ffffffffffffffffffffffffffffffffffffffff16021790555062000795565b6200036a73c89bd4e1632d3a43cb03aaad5262cbe4038bc57173ffffffffffffffffffffffffffffffffffffffff166338cc48316040518163ffffffff1660e01b815260040160206040518083038186803b1580156200032357600080fd5b505afa15801562000338573d6000803e3d6000fd5b505050506040513d601f19601f820116820180604052508101906200035e919062000477565b6200036c60201b60201c565b565b80600260006101000a81548173ffffffffffffffffffffffffffffffffffffffff021916908373ffffffffffffffffffffffffffffffffffffffff16021790555050565b828054620003be90620006da565b90600052602060002090601f016020900481019282620003e257600085556200042e565b82601f10620003fd57805160ff19168380011785556200042e565b828001600101855582156200042e579182015b828111156200042d57825182559160200191906001019062000410565b5b5090506200043d919062000441565b5090565b5b808211156200045c57600081600090555060010162000442565b5090565b60008151905062000471816200077b565b92915050565b6000602082840312156200048a57600080fd5b60006200049a8482850162000460565b91505092915050565b6000808291508390505b6001851115620004f557808604811115620004cd57620004cc62000710565b5b6001851615620004dd5780820291505b8081029050620004ed856200076e565b9450620004ad565b94509492505050565b60006200050b82620006d0565b91506200051883620006d0565b9250620005477fffffffffffffffffffffffffffffffffffffffffffffffffffffffffffffffff84846200054f565b905092915050565b60008262000561576001905062000634565b8162000571576000905062000634565b81600181146200058a57600281146200059557620005cb565b600191505062000634565b60ff841115620005aa57620005a962000710565b5b8360020a915084821115620005c457620005c362000710565b5b5062000634565b5060208310610133831016604e8410600b8410161715620006055782820a905083811115620005ff57620005fe62000710565b5b62000634565b620006148484846001620004a3565b925090508184048111156200062e576200062d62000710565b5b81810290505b9392505050565b60006200064882620006d0565b91506200065583620006d0565b9250817fffffffffffffffffffffffffffffffffffffffffffffffffffffffffffffffff048311821515161562000691576200069062000710565b5b828202905092915050565b6000620006a982620006b0565b9050919050565b600073ffffffffffffffffffffffffffffffffffffffff82169050919050565b6000819050919050565b60006002820490506001821680620006f357607f821691505b602082108114156200070a57620007096200073f565b5b50919050565b7f4e487b7100000000000000000000000000000000000000000000000000000000600052601160045260246000fd5b7f4e487b7100000000000000000000000000000000000000000000000000000000600052602260045260246000fd5b60008160011c9050919050565b62000786816200069c565b81146200079257600080fd5b50565b61413a80620007a56000396000f3fe608060405234801561001057600080fd5b50600436106101a95760003560e01c8063706f86e9116100f9578063a138644611610097578063c618a1e411610071578063c618a1e4146104fe578063cd121b6b1461051c578063dd62ed3e1461053a578063deac46591461056a576101a9565b8063a138644614610480578063a9059cbb146104b0578063af14052c146104e0576101a9565b8063867bf465116100d3578063867bf465146104085780638de079d914610426578063902609ed1461044457806395d89b4114610462576101a9565b8063706f86e91461039e57806370a08231146103bc578063837e7560146103ec576101a9565b80632a11ced0116101665780633a98ef39116101405780633a98ef391461032857806342154e9c1461034657806342352546146103645780634357855e14610382576101a9565b80632a11ced0146102aa578063313ce567146102da57806338eada1c146102f8576101a9565b806306fdde03146101ae578063095ea7b3146101cc57806311d1ab6b146101fc57806318160ddd1461022c57806323b872dd1461024a57806327e235e31461027a575b600080fd5b6101b661059a565b6040516101c391906133da565b60405180910390f35b6101e660048036038101906101e19190612dd5565b610628565b6040516101f39190613389565b60405180910390f35b61021660048036038101906102119190612f0b565b61071a565b60405161022391906133bf565b60405180910390f35b610234610750565b6040516102419190613497565b60405180910390f35b610264600480360381019061025f9190612d86565b610756565b6040516102719190613389565b60405180910390f35b610294600480360381019061028f9190612d21565b61097e565b6040516102a19190613497565b60405180910390f35b6102c460048036038101906102bf9190612ee2565b610996565b6040516102d19190613289565b60405180910390f35b6102e26109d5565b6040516102ef9190613497565b60405180910390f35b610312600480360381019061030d9190612d21565b6109db565b60405161031f9190613389565b60405180910390f35b610330610aa0565b60405161033d9190613497565b60405180910390f35b61034e610aa6565b60405161035b9190613497565b60405180910390f35b61036c610ab3565b6040516103799190613497565b60405180910390f35b61039c60048036038101906103979190612ea6565b610ab9565b005b6103a6610be5565b6040516103b391906133a4565b60405180910390f35b6103d660048036038101906103d19190612d21565b610d6a565b6040516103e39190613497565b60405180910390f35b61040660048036038101906104019190612ea6565b610db3565b005b610410610edf565b60405161041d9190613497565b60405180910390f35b61042e610ee5565b60405161043b9190613497565b60405180910390f35b61044c610eeb565b6040516104599190613289565b60405180910390f35b61046a610f11565b60405161047791906133da565b60405180910390f35b61049a60048036038101906104959190612f47565b610f9f565b6040516104a7919061347c565b60405180910390f35b6104ca60048036038101906104c59190612dd5565b611317565b6040516104d79190613389565b60405180910390f35b6104e8611539565b6040516104f59190613389565b60405180910390f35b610506611a71565b6040516105139190613497565b60405180910390f35b610524611a77565b60405161053191906133a4565b60405180910390f35b610554600480360381019061054f9190612d4a565b611bfe565b6040516105619190613497565b60405180910390f35b610584600480360381019061057f9190612d21565b611c23565b6040516105919190613389565b60405180910390f35b600c80546105a790613d5e565b80601f01602080910402602001604051908101604052809291908181526020018280546105d390613d5e565b80156106205780601f106105f557610100808354040283529160200191610620565b820191906000526020600020905b81548152906001019060200180831161060357829003601f168201915b505050505081565b600081600760003373ffffffffffffffffffffffffffffffffffffffff1673ffffffffffffffffffffffffffffffffffffffff16815260200190815260200160002060008573ffffffffffffffffffffffffffffffffffffffff1673ffffffffffffffffffffffffffffffffffffffff168152602001908152602001600020819055508273ffffffffffffffffffffffffffffffffffffffff163373ffffffffffffffffffffffffffffffffffffffff167f8c5be1e5ebec7d5bd14f71427d1e84f3dd0314c0f7b2291e5b200ac8c7c3b925846040516107089190613497565b60405180910390a36001905092915050565b6000806103e8848461072c9190613ade565b610736919061391f565b905083816107449190613639565b90508091505092915050565b600b5481565b60008161076285610d6a565b10156107a3576040517f08c379a000000000000000000000000000000000000000000000000000000000815260040161079a9061341c565b60405180910390fd5b81600760008673ffffffffffffffffffffffffffffffffffffffff1673ffffffffffffffffffffffffffffffffffffffff16815260200190815260200160002060003373ffffffffffffffffffffffffffffffffffffffff1673ffffffffffffffffffffffffffffffffffffffff168152602001908152602001600020541015610862576040517f08c379a00000000000000000000000000000000000000000000000000000000081526004016108599061343c565b60405180910390fd5b81600660008573ffffffffffffffffffffffffffffffffffffffff1673ffffffffffffffffffffffffffffffffffffffff16815260200190815260200160002060008282546108b191906135e3565b9250508190555081600660008673ffffffffffffffffffffffffffffffffffffffff1673ffffffffffffffffffffffffffffffffffffffff16815260200190815260200160002060008282546109079190613bed565b925050819055508273ffffffffffffffffffffffffffffffffffffffff168473ffffffffffffffffffffffffffffffffffffffff167fddf252ad1be2c89b69c2b068fc378daa952ba7f163c4a11628f55a4df523b3ef8460405161096b9190613497565b60405180910390a3600190509392505050565b60066020528060005260406000206000915090505481565b600881815481106109a657600080fd5b906000526020600020016000915054906101000a900473ffffffffffffffffffffffffffffffffffffffff1681565b600a5481565b60006109e682611c23565b610a9757600880549050600960008473ffffffffffffffffffffffffffffffffffffffff1673ffffffffffffffffffffffffffffffffffffffff168152602001908152602001600020819055506008829080600181540180825580915050600190039060005260206000200160009091909190916101000a81548173ffffffffffffffffffffffffffffffffffffffff021916908373ffffffffffffffffffffffffffffffffffffffff1602179055505b60019050919050565b60145481565b6000600880549050905090565b60155481565b816005600082815260200190815260200160002060009054906101000a900473ffffffffffffffffffffffffffffffffffffffff1673ffffffffffffffffffffffffffffffffffffffff163373ffffffffffffffffffffffffffffffffffffffff1614610b5b576040517f08c379a0000000000000000000000000000000000000000000000000000000008152600401610b529061345c565b60405180910390fd5b6005600082815260200190815260200160002060006101000a81549073ffffffffffffffffffffffffffffffffffffffff0219169055807f7cc135e0cebb02c3480ae5d74d377283180a2601f8f644edf7987b009316c63a60405160405180910390a28160108190555081600e81905550600060105414610be057610bde611a77565b505b505050565b600080610bfc60125430634357855e60e01b611c7f565b9050610c606040518060400160405280600381526020017f67657400000000000000000000000000000000000000000000000000000000008152506040518060800160405280605d8152602001614053605d913983611cb09092919063ffffffff16565b610cdf6040518060400160405280600481526020017f70617468000000000000000000000000000000000000000000000000000000008152506040518060400160405280600781526020017f302e70726963650000000000000000000000000000000000000000000000000081525083611cb09092919063ffffffff16565b6000655af3107a40009050610d346040518060400160405280600581526020017f74696d65730000000000000000000000000000000000000000000000000000008152508284611ce39092919063ffffffff16565b610d63601160009054906101000a900473ffffffffffffffffffffffffffffffffffffffff1683601354611d16565b9250505090565b6000600660008373ffffffffffffffffffffffffffffffffffffffff1673ffffffffffffffffffffffffffffffffffffffff168152602001908152602001600020549050919050565b816005600082815260200190815260200160002060009054906101000a900473ffffffffffffffffffffffffffffffffffffffff1673ffffffffffffffffffffffffffffffffffffffff163373ffffffffffffffffffffffffffffffffffffffff1614610e55576040517f08c379a0000000000000000000000000000000000000000000000000000000008152600401610e4c9061345c565b60405180910390fd5b6005600082815260200190815260200160002060006101000a81549073ffffffffffffffffffffffffffffffffffffffff0219169055807f7cc135e0cebb02c3480ae5d74d377283180a2601f8f644edf7987b009316c63a60405160405180910390a281600f8190555081600e819055506000600f5414610eda57610ed8611539565b505b505050565b600f5481565b60105481565b601660009054906101000a900473ffffffffffffffffffffffffffffffffffffffff1681565b600d8054610f1e90613d5e565b80601f0160208091040260200160405190810160405280929190818152602001828054610f4a90613d5e565b8015610f975780601f10610f6c57610100808354040283529160200191610f97565b820191906000526020600020905b815481529060010190602001808311610f7a57829003601f168201915b505050505081565b60008073eecac0f984c6b69888c63d681a1731c4ac79bdc990506000600267ffffffffffffffff811115610ffc577f4e487b7100000000000000000000000000000000000000000000000000000000600052604160045260246000fd5b60405190808252806020026020018201604052801561102a5781602001602082028036833780820191505090505b5090508481600081518110611068577f4e487b7100000000000000000000000000000000000000000000000000000000600052603260045260246000fd5b602002602001019063ffffffff16908163ffffffff168152505083816001815181106110bd577f4e487b7100000000000000000000000000000000000000000000000000000000600052603260045260246000fd5b602002602001019063ffffffff16908163ffffffff16815250506000808373ffffffffffffffffffffffffffffffffffffffff1663883bdbfd846040518263ffffffff1660e01b81526004016111139190613367565b60006040518083038186803b15801561112b57600080fd5b505afa15801561113f573d6000803e3d6000fd5b505050506040513d6000823e3d601f19601f820116820180604052508101906111689190612e11565b915091506000826000815181106111a8577f4e487b7100000000000000000000000000000000000000000000000000000000600052603260045260246000fd5b6020026020010151836001815181106111ea577f4e487b7100000000000000000000000000000000000000000000000000000000600052603260045260246000fd5b60200260200101516111fc9190613b72565b905060008460018151811061123a577f4e487b7100000000000000000000000000000000000000000000000000000000600052603260045260246000fd5b60200260200101518560008151811061127c577f4e487b7100000000000000000000000000000000000000000000000000000000600052603260045260246000fd5b602002602001015161128e9190613c21565b63ffffffff1690506000816112a290613e81565b836112ad91906136a3565b905060006112ba82611d36565b90506000620186a0826112cd9190613a36565b905060006c010000000000000000000000009050600081836112ef919061370d565b9050600060028261130091906137c2565b9050809c5050505050505050505050505092915050565b60008161132333610d6a565b1015611364576040517f08c379a000000000000000000000000000000000000000000000000000000000815260040161135b9061341c565b60405180910390fd5b81600660008573ffffffffffffffffffffffffffffffffffffffff1673ffffffffffffffffffffffffffffffffffffffff16815260200190815260200160002060008282546113b391906135e3565b9250508190555081600660003373ffffffffffffffffffffffffffffffffffffffff1673ffffffffffffffffffffffffffffffffffffffff16815260200190815260200160002060008282546114099190613bed565b9250508190555061141983611c23565b6114ca57600880549050600960008573ffffffffffffffffffffffffffffffffffffffff1673ffffffffffffffffffffffffffffffffffffffff168152602001908152602001600020819055506008839080600181540180825580915050600190039060005260206000200160009091909190916101000a81548173ffffffffffffffffffffffffffffffffffffffff021916908373ffffffffffffffffffffffffffffffffffffffff1602179055505b8273ffffffffffffffffffffffffffffffffffffffff163373ffffffffffffffffffffffffffffffffffffffff167fddf252ad1be2c89b69c2b068fc378daa952ba7f163c4a11628f55a4df523b3ef846040516115279190613497565b60405180910390a36001905092915050565b600080600080600a9050600060099050600080600090506000662386f26fc10000905061156a601054600f5461071a565b92508060105461157a919061373e565b601081905550655af3107a4000600f54611594919061373e565b600f8190555060008314156115b3576001975050505050505050611a6e565b60008312156115ef577fffffffffffffffffffffffffffffffffffffffffffffffffffffffffffffffff836115e8919061391f565b9250600191505b3373ffffffffffffffffffffffffffffffffffffffff167f115e95ee8d5131f278648f17ef0be020b22d3360ebe943fae494dec665c8c85b601054600f5461163687612193565b604051611645939291906134b2565b60405180910390a261165683612193565b9650600b54876116669190613a84565b96506103e887611676919061373e565b965060011515821515141561169e5786600b546116939190613bed565b600b819055506116b3565b86600b546116ac91906135e3565b600b819055505b60005b600880549050811015611a61576116cc84612193565b9650600660006008838154811061170c577f4e487b7100000000000000000000000000000000000000000000000000000000600052603260045260246000fd5b9060005260206000200160009054906101000a900473ffffffffffffffffffffffffffffffffffffffff1673ffffffffffffffffffffffffffffffffffffffff1673ffffffffffffffffffffffffffffffffffffffff168152602001908152602001600020548761177d9190613a84565b96506103e88761178d919061373e565b96506001151583151514156118f7578660066000600884815481106117db577f4e487b7100000000000000000000000000000000000000000000000000000000600052603260045260246000fd5b9060005260206000200160009054906101000a900473ffffffffffffffffffffffffffffffffffffffff1673ffffffffffffffffffffffffffffffffffffffff1673ffffffffffffffffffffffffffffffffffffffff1681526020019081526020016000205461184b9190613bed565b6006600060088481548110611889577f4e487b7100000000000000000000000000000000000000000000000000000000600052603260045260246000fd5b9060005260206000200160009054906101000a900473ffffffffffffffffffffffffffffffffffffffff1673ffffffffffffffffffffffffffffffffffffffff1673ffffffffffffffffffffffffffffffffffffffff16815260200190815260200160002081905550611a4e565b866006600060088481548110611936577f4e487b7100000000000000000000000000000000000000000000000000000000600052603260045260246000fd5b9060005260206000200160009054906101000a900473ffffffffffffffffffffffffffffffffffffffff1673ffffffffffffffffffffffffffffffffffffffff1673ffffffffffffffffffffffffffffffffffffffff168152602001908152602001600020546119a691906135e3565b60066000600884815481106119e4577f4e487b7100000000000000000000000000000000000000000000000000000000600052603260045260246000fd5b9060005260206000200160009054906101000a900473ffffffffffffffffffffffffffffffffffffffff1673ffffffffffffffffffffffffffffffffffffffff1673ffffffffffffffffffffffffffffffffffffffff168152602001908152602001600020819055505b8080611a5990613d90565b9150506116b6565b5060019750505050505050505b90565b600e5481565b600080611a8e6012543063837e756060e01b611c7f565b9050611af26040518060400160405280600381526020017f67657400000000000000000000000000000000000000000000000000000000008152506040518060800160405280605581526020016140b06055913983611cb09092919063ffffffff16565b611b716040518060400160405280600481526020017f70617468000000000000000000000000000000000000000000000000000000008152506040518060400160405280600a81526020017f646174612e70726963650000000000000000000000000000000000000000000081525083611cb09092919063ffffffff16565b6000670de0b6b3a76400009050611bc86040518060400160405280600581526020017f74696d65730000000000000000000000000000000000000000000000000000008152508284611ce39092919063ffffffff16565b611bf7601160009054906101000a900473ffffffffffffffffffffffffffffffffffffffff1683601354611d16565b9250505090565b6007602052816000526040600020602052806000526040600020600091509150505481565b600080600960008473ffffffffffffffffffffffffffffffffffffffff1673ffffffffffffffffffffffffffffffffffffffff168152602001908152602001600020541115611c755760019050611c7a565b600090505b919050565b611c87612adb565b611c8f612adb565b611ca6858585846121c7909392919063ffffffff16565b9150509392505050565b611cc782846080015161227790919063ffffffff16565b611cde81846080015161227790919063ffffffff16565b505050565b611cfa82846080015161227790919063ffffffff16565b611d1181846080015161229c90919063ffffffff16565b505050565b6000611d2d8484846001634042994660e01b612349565b90509392505050565b60008060008360020b12611d4d578260020b611d5b565b8260020b611d5a90613e38565b5b9050600080600183161415611d8157700100000000000000000000000000000000611d93565b6ffffcb933bd6fad37aa2d162d1a5940015b70ffffffffffffffffffffffffffffffffff16905060006002831614611dd65760806ffff97272373d413259a46990580e213a82611dd19190613a84565b901c90505b60006004831614611e045760806ffff2e50f5f656932ef12357cf3c7fdcc82611dff9190613a84565b901c90505b60006008831614611e325760806fffe5caca7e10e4e61c3624eaa0941cd082611e2d9190613a84565b901c90505b60006010831614611e605760806fffcb9843d60f6159c9db58835c92664482611e5b9190613a84565b901c90505b60006020831614611e8e5760806fff973b41fa98c081472e6896dfb254c082611e899190613a84565b901c90505b60006040831614611ebc5760806fff2ea16466c96a3843ec78b326b5286182611eb79190613a84565b901c90505b60006080831614611eea5760806ffe5dee046a99a2a811c461f1969c305382611ee59190613a84565b901c90505b6000610100831614611f195760806ffcbe86c7900a88aedcffc83b479aa3a482611f149190613a84565b901c90505b6000610200831614611f485760806ff987a7253ac413176f2b074cf7815e5482611f439190613a84565b901c90505b6000610400831614611f775760806ff3392b0822b70005940c7a398e4b70f382611f729190613a84565b901c90505b6000610800831614611fa65760806fe7159475a2c29b7443b29c7fa6e889d982611fa19190613a84565b901c90505b6000611000831614611fd55760806fd097f3bdfd2022b8845ad8f792aa582582611fd09190613a84565b901c90505b60006120008316146120045760806fa9f746462d870fdf8a65dc1f90e061e582611fff9190613a84565b901c90505b60006140008316146120335760806f70d869a156d2a1b890bb3df62baf32f78261202e9190613a84565b901c90505b60006180008316146120625760806f31be135f97d08fd981231505542fcfa68261205d9190613a84565b901c90505b6000620100008316146120925760806f09aa508b5b7a84e1c677de54f3e99bc98261208d9190613a84565b901c90505b6000620200008316146120c15760806e5d6af8dedb81196699c329225ee604826120bc9190613a84565b901c90505b6000620400008316146120ef5760806d2216e584f5fa1ea926041bedfe98826120ea9190613a84565b901c90505b60006208000083161461211b5760806b048a170391f7dc42444e8fa2826121169190613a84565b901c90505b60008460020b131561215657807fffffffffffffffffffffffffffffffffffffffffffffffffffffffffffffffff612153919061373e565b90505b6000640100000000826121699190613e07565b14612175576001612178565b60005b60ff16602082901c61218a91906135e3565b92505050919050565b600060ff6001901b8214156121a757600080fd5b600082126121b557816121c0565b816121bf90613e38565b5b9050919050565b6121cf612adb565b6121df85608001516101006125b1565b508385600001818152505082856020019073ffffffffffffffffffffffffffffffffffffffff16908173ffffffffffffffffffffffffffffffffffffffff16815250508185604001907bffffffffffffffffffffffffffffffffffffffffffffffffffffffff191690817bffffffffffffffffffffffffffffffffffffffffffffffffffffffff191681525050849050949350505050565b612284826003835161261b565b612297818361276090919063ffffffff16565b505050565b7fffffffffffffffffffffffffffffffffffffffffffffffff00000000000000008112156122d3576122ce8282612782565b612345565b67ffffffffffffffff8113156122f2576122ed82826127f9565b612344565b6000811261230b576123068260008361261b565b612343565b612342826001837fffffffffffffffffffffffffffffffffffffffffffffffffffffffffffffffff61233d9190613ade565b61261b565b5b5b5b5050565b60003060045460405160200161236092919061325d565b604051602081830303815290604052805190602001209050600454856060018181525050856005600083815260200190815260200160002060006101000a81548173ffffffffffffffffffffffffffffffffffffffff021916908373ffffffffffffffffffffffffffffffffffffffff160217905550807fb5e6e01e79f91267dc17b4e6314d5d4d03593d2ceee0fbb452b750bd70ea5af960405160405180910390a2600082600080886000015189602001518a604001518b606001518a8d608001516000015160405160240161243e9897969594939291906132a4565b604051602081830303815290604052907bffffffffffffffffffffffffffffffffffffffffffffffffffffffff19166020820180517bffffffffffffffffffffffffffffffffffffffffffffffffffffffff83818316178352505050509050600260009054906101000a900473ffffffffffffffffffffffffffffffffffffffff1673ffffffffffffffffffffffffffffffffffffffff16634000aea08887846040518463ffffffff1660e01b81526004016124fc93929190613329565b602060405180830381600087803b15801561251657600080fd5b505af115801561252a573d6000803e3d6000fd5b505050506040513d601f19601f8201168201806040525081019061254e9190612e7d565b61258d576040517f08c379a0000000000000000000000000000000000000000000000000000000008152600401612584906133fc565b60405180910390fd5b6001600460008282546125a091906135e3565b925050819055505095945050505050565b6125b9612b48565b60006020836125c89190613e07565b146125f4576020826125da9190613e07565b60206125e69190613bed565b826125f191906135e3565b91505b81836020018181525050604051808452600081528281016020016040525082905092915050565b60178111612648576126428160058460ff16901b60ff16178461284590919063ffffffff16565b5061275b565b60ff811161268a5761266d601860058460ff16901b178461284590919063ffffffff16565b50612684816001856128659092919063ffffffff16565b5061275a565b61ffff81116126cd576126b0601960058460ff16901b178461284590919063ffffffff16565b506126c7816002856128659092919063ffffffff16565b50612759565b63ffffffff8111612712576126f5601a60058460ff16901b178461284590919063ffffffff16565b5061270c816004856128659092919063ffffffff16565b50612758565b67ffffffffffffffff81116127575761273e601b60058460ff16901b178461284590919063ffffffff16565b50612755816008856128659092919063ffffffff16565b505b5b5b5b5b505050565b612768612b48565b61277a83846000015151848551612887565b905092915050565b6127a060036005600660ff16901b178361284590919063ffffffff16565b506127f582827fffffffffffffffffffffffffffffffffffffffffffffffffffffffffffffffff6127d19190613ade565b6040516020016127e19190613497565b604051602081830303815290604052612991565b5050565b61281760026005600660ff16901b178361284590919063ffffffff16565b50612841828260405160200161282d9190613497565b604051602081830303815290604052612991565b5050565b61284d612b48565b61285d83846000015151846129b6565b905092915050565b61286d612b48565b61287e848560000151518585612a0d565b90509392505050565b61288f612b48565b825182111561289d57600080fd5b846020015182856128ae91906135e3565b11156128e3576128e28560026128d3886020015188876128ce91906135e3565b612a9b565b6128dd9190613a84565b612ab7565b5b6000808651805187602083010193508088870111156129025787860182525b60208701925050505b60208410612949578051825260208261292491906135e3565b915060208161293391906135e3565b90506020846129429190613bed565b935061290b565b6000600185602061295a9190613bed565b6101006129679190613801565b6129719190613bed565b905080198251168184511681811785525050879350505050949350505050565b61299e826002835161261b565b6129b1818361276090919063ffffffff16565b505050565b6129be612b48565b836020015183106129e4576129e384600286602001516129de9190613a84565b612ab7565b5b8351805160208583010184815381861415612a00576001820183525b5050508390509392505050565b612a15612b48565b84602001518483612a2691906135e3565b1115612a4e57612a4d8560028685612a3e91906135e3565b612a489190613a84565b612ab7565b5b6000600183610100612a609190613801565b612a6a9190613bed565b90508551838682010185831982511617815281518588011115612a8d5784870182525b505085915050949350505050565b600081831115612aad57829050612ab1565b8190505b92915050565b600082600001519050612aca83836125b1565b50612ad58382612760565b50505050565b6040518060a0016040528060008019168152602001600073ffffffffffffffffffffffffffffffffffffffff16815260200160007bffffffffffffffffffffffffffffffffffffffffffffffffffffffff1916815260200160008152602001612b42612b48565b81525090565b604051806040016040528060608152602001600081525090565b6000612b75612b708461351a565b6134e9565b90508083825260208201905082856020860282011115612b9457600080fd5b60005b85811015612bc45781612baa8882612ccd565b845260208401935060208301925050600181019050612b97565b5050509392505050565b6000612be1612bdc84613546565b6134e9565b90508083825260208201905082856020860282011115612c0057600080fd5b60005b85811015612c305781612c168882612ce2565b845260208401935060208301925050600181019050612c03565b5050509392505050565b600081359050612c4981613fb1565b92915050565b600082601f830112612c6057600080fd5b8151612c70848260208601612b62565b91505092915050565b600082601f830112612c8a57600080fd5b8151612c9a848260208601612bce565b91505092915050565b600081519050612cb281613fc8565b92915050565b600081359050612cc781613fdf565b92915050565b600081519050612cdc81613ff6565b92915050565b600081519050612cf18161400d565b92915050565b600081359050612d0681614024565b92915050565b600081359050612d1b8161403b565b92915050565b600060208284031215612d3357600080fd5b6000612d4184828501612c3a565b91505092915050565b60008060408385031215612d5d57600080fd5b6000612d6b85828601612c3a565b9250506020612d7c85828601612c3a565b9150509250929050565b600080600060608486031215612d9b57600080fd5b6000612da986828701612c3a565b9350506020612dba86828701612c3a565b9250506040612dcb86828701612cf7565b9150509250925092565b60008060408385031215612de857600080fd5b6000612df685828601612c3a565b9250506020612e0785828601612cf7565b9150509250929050565b60008060408385031215612e2457600080fd5b600083015167ffffffffffffffff811115612e3e57600080fd5b612e4a85828601612c4f565b925050602083015167ffffffffffffffff811115612e6757600080fd5b612e7385828601612c79565b9150509250929050565b600060208284031215612e8f57600080fd5b6000612e9d84828501612ca3565b91505092915050565b60008060408385031215612eb957600080fd5b6000612ec785828601612cb8565b9250506020612ed885828601612cf7565b9150509250929050565b600060208284031215612ef457600080fd5b6000612f0284828501612cf7565b91505092915050565b60008060408385031215612f1e57600080fd5b6000612f2c85828601612cf7565b9250506020612f3d85828601612cf7565b9150509250929050565b60008060408385031215612f5a57600080fd5b6000612f6885828601612d0c565b9250506020612f7985828601612d0c565b9150509250929050565b6000612f8f838361324e565b60208301905092915050565b612fa481613c55565b82525050565b6000612fb582613582565b612fbf81856135b0565b9350612fca83613572565b8060005b83811015612ffb578151612fe28882612f83565b9750612fed836135a3565b925050600181019050612fce565b5085935050505092915050565b61301181613c67565b82525050565b61302081613c73565b82525050565b61302f81613c7d565b82525050565b60006130408261358d565b61304a81856135c1565b935061305a818560208601613d2b565b61306381613f86565b840191505092915050565b61307f61307a82613d07565b613dd9565b82525050565b61308e81613ca9565b82525050565b600061309f82613598565b6130a981856135d2565b93506130b9818560208601613d2b565b6130c281613f86565b840191505092915050565b60006130da6023836135d2565b91507f756e61626c6520746f207472616e73666572416e6443616c6c20746f206f726160008301527f636c6500000000000000000000000000000000000000000000000000000000006020830152604082019050919050565b6000613140600f836135d2565b91507f62616c616e636520746f6f206c6f7700000000000000000000000000000000006000830152602082019050919050565b60006131806011836135d2565b91507f616c6c6f77616e636520746f6f206c6f770000000000000000000000000000006000830152602082019050919050565b60006131c06028836135d2565b91507f536f75726365206d75737420626520746865206f7261636c65206f662074686560008301527f20726571756573740000000000000000000000000000000000000000000000006020830152604082019050919050565b61322281613cc0565b82525050565b61323181613ce0565b82525050565b61324861324382613ce0565b613dfd565b82525050565b61325781613cea565b82525050565b6000613269828561306e565b6014820191506132798284613237565b6020820191508190509392505050565b600060208201905061329e6000830184612f9b565b92915050565b6000610100820190506132ba600083018b612f9b565b6132c7602083018a613228565b6132d46040830189613017565b6132e16060830188612f9b565b6132ee6080830187613026565b6132fb60a0830186613228565b61330860c0830185613228565b81810360e083015261331a8184613035565b90509998505050505050505050565b600060608201905061333e6000830186612f9b565b61334b6020830185613228565b818103604083015261335d8184613035565b9050949350505050565b600060208201905081810360008301526133818184612faa565b905092915050565b600060208201905061339e6000830184613008565b92915050565b60006020820190506133b96000830184613017565b92915050565b60006020820190506133d46000830184613085565b92915050565b600060208201905081810360008301526133f48184613094565b905092915050565b60006020820190508181036000830152613415816130cd565b9050919050565b6000602082019050818103600083015261343581613133565b9050919050565b6000602082019050818103600083015261345581613173565b9050919050565b60006020820190508181036000830152613475816131b3565b9050919050565b60006020820190506134916000830184613219565b92915050565b60006020820190506134ac6000830184613228565b92915050565b60006060820190506134c76000830186613228565b6134d46020830185613228565b6134e16040830184613228565b949350505050565b6000604051905081810181811067ffffffffffffffff821117156135105761350f613f57565b5b8060405250919050565b600067ffffffffffffffff82111561353557613534613f57565b5b602082029050602081019050919050565b600067ffffffffffffffff82111561356157613560613f57565b5b602082029050602081019050919050565b6000819050602082019050919050565b600081519050919050565b600081519050919050565b600081519050919050565b6000602082019050919050565b600082825260208201905092915050565b600082825260208201905092915050565b600082825260208201905092915050565b60006135ee82613ce0565b91506135f983613ce0565b9250827fffffffffffffffffffffffffffffffffffffffffffffffffffffffffffffffff0382111561362e5761362d613eca565b5b828201905092915050565b600061364482613ca9565b915061364f83613ca9565b92508261365f5761365e613ef9565b5b600160000383147f80000000000000000000000000000000000000000000000000000000000000008314161561369857613697613eca565b5b828205905092915050565b60006136ae82613cb3565b91506136b983613cb3565b9250826136c9576136c8613ef9565b5b600160000383147fffffffffffffffffffffffffffffffffffffffffffffffffff800000000000008314161561370257613701613eca565b5b828205905092915050565b600061371882613cc0565b915061372383613cc0565b92508261373357613732613ef9565b5b828204905092915050565b600061374982613ce0565b915061375483613ce0565b92508261376457613763613ef9565b5b828204905092915050565b6000808291508390505b60018511156137b95780860481111561379557613794613eca565b5b60018516156137a45780820291505b80810290506137b285613fa4565b9450613779565b94509492505050565b60006137cd82613cc0565b91506137d883613cfa565b92506137f973ffffffffffffffffffffffffffffffffffffffff848461384c565b905092915050565b600061380c82613ce0565b915061381783613ce0565b92506138447fffffffffffffffffffffffffffffffffffffffffffffffffffffffffffffffff848461384c565b905092915050565b60008261385c5760019050613918565b8161386a5760009050613918565b8160018114613880576002811461388a576138b9565b6001915050613918565b60ff84111561389c5761389b613eca565b5b8360020a9150848211156138b3576138b2613eca565b5b50613918565b5060208310610133831016604e8410600b84101617156138ee5782820a9050838111156138e9576138e8613eca565b5b613918565b6138fb848484600161376f565b9250905081840481111561391257613911613eca565b5b81810290505b9392505050565b600061392a82613ca9565b915061393583613ca9565b9250827f7fffffffffffffffffffffffffffffffffffffffffffffffffffffffffffffff048211600084136000841316161561397457613973613eca565b5b817f800000000000000000000000000000000000000000000000000000000000000005831260008412600084131616156139b1576139b0613eca565b5b827f800000000000000000000000000000000000000000000000000000000000000005821260008413600084121616156139ee576139ed613eca565b5b827f7fffffffffffffffffffffffffffffffffffffffffffffffffffffffffffffff0582126000841260008412161615613a2b57613a2a613eca565b5b828202905092915050565b6000613a4182613cc0565b9150613a4c83613cc0565b92508173ffffffffffffffffffffffffffffffffffffffff0483118215151615613a7957613a78613eca565b5b828202905092915050565b6000613a8f82613ce0565b9150613a9a83613ce0565b9250817fffffffffffffffffffffffffffffffffffffffffffffffffffffffffffffffff0483118215151615613ad357613ad2613eca565b5b828202905092915050565b6000613ae982613ca9565b9150613af483613ca9565b9250827f800000000000000000000000000000000000000000000000000000000000000001821260008412151615613b2f57613b2e613eca565b5b827f7fffffffffffffffffffffffffffffffffffffffffffffffffffffffffffffff018213600084121615613b6757613b66613eca565b5b828203905092915050565b6000613b7d82613cb3565b9150613b8883613cb3565b9250827fffffffffffffffffffffffffffffffffffffffffffffffffff8000000000000001821260008412151615613bc357613bc2613eca565b5b82667fffffffffffff018213600084121615613be257613be1613eca565b5b828203905092915050565b6000613bf882613ce0565b9150613c0383613ce0565b925082821015613c1657613c15613eca565b5b828203905092915050565b6000613c2c82613cea565b9150613c3783613cea565b925082821015613c4a57613c49613eca565b5b828203905092915050565b6000613c6082613cc0565b9050919050565b60008115159050919050565b6000819050919050565b60007fffffffff0000000000000000000000000000000000000000000000000000000082169050919050565b6000819050919050565b60008160060b9050919050565b600073ffffffffffffffffffffffffffffffffffffffff82169050919050565b6000819050919050565b600063ffffffff82169050919050565b600060ff82169050919050565b6000613d1282613d19565b9050919050565b6000613d2482613cc0565b9050919050565b60005b83811015613d49578082015181840152602081019050613d2e565b83811115613d58576000848401525b50505050565b60006002820490506001821680613d7657607f821691505b60208210811415613d8a57613d89613f28565b5b50919050565b6000613d9b82613ce0565b91507fffffffffffffffffffffffffffffffffffffffffffffffffffffffffffffffff821415613dce57613dcd613eca565b5b600182019050919050565b6000613de482613deb565b9050919050565b6000613df682613f97565b9050919050565b6000819050919050565b6000613e1282613ce0565b9150613e1d83613ce0565b925082613e2d57613e2c613ef9565b5b828206905092915050565b6000613e4382613ca9565b91507f8000000000000000000000000000000000000000000000000000000000000000821415613e7657613e75613eca565b5b816000039050919050565b6000613e8c82613cb3565b91507fffffffffffffffffffffffffffffffffffffffffffffffffff80000000000000821415613ebf57613ebe613eca565b5b816000039050919050565b7f4e487b7100000000000000000000000000000000000000000000000000000000600052601160045260246000fd5b7f4e487b7100000000000000000000000000000000000000000000000000000000600052601260045260246000fd5b7f4e487b7100000000000000000000000000000000000000000000000000000000600052602260045260246000fd5b7f4e487b7100000000000000000000000000000000000000000000000000000000600052604160045260246000fd5b6000601f19601f8301169050919050565b60008160601b9050919050565b60008160011c9050919050565b613fba81613c55565b8114613fc557600080fd5b50565b613fd181613c67565b8114613fdc57600080fd5b50565b613fe881613c73565b8114613ff357600080fd5b50565b613fff81613cb3565b811461400a57600080fd5b50565b61401681613cc0565b811461402157600080fd5b50565b61402d81613ce0565b811461403857600080fd5b50565b61404481613cea565b811461404f57600080fd5b5056fe68747470733a2f2f66696e616e6369616c6d6f64656c696e67707265702e636f6d2f6170692f76332f71756f74652f2535454e44583f6170696b65793d373638306639383161323435653432326431366531363232623462616330376568747470733a2f2f6170692e70616e63616b65737761702e696e666f2f6170692f76322f746f6b656e732f307830396164323730313230643837336132623266616230623031646666303063363739383830393139a2646970667358221220a3efe9c837b26281615ee4ec1f12c903e5cd90e95bfe0f168f746865b2d8663764736f6c63430008000033",
  "immutableReferences": {},
  "source": "pragma solidity ^0.8.0;\nimport \"@chainlink/contracts/src/v0.8/ChainlinkClient.sol\";\n\nimport \"./lib/SafeMathInt.sol\";\nimport \"./lib/UInt256Lib.sol\";\n\nimport \"@uniswap/v3-core/contracts/interfaces/IUniswapV3Pool.sol\";\n\nimport '@uniswap/v3-core/contracts/libraries/TickMath.sol';\n// import \"@openzeppelin/contracts/token/ERC20/extensions/IERC20Metadata.sol\";\n// import \"@uniswap/v3-core/contracts/UniswapV3Factory.sol\";\n// import '@uniswap/v3-core/contracts/libraries/TickMath.sol';\n\n\n\n\ncontract IndexProtocol89 is ChainlinkClient{\n    using Chainlink for Chainlink.Request;\n    // using SafeMath for uint256;\n    using SafeMathInt for int256;\n    using UInt256Lib for uint256;\n    \n    mapping(address => uint) public balances;\n    \n    mapping(address => mapping(address => uint)) public allowance;\n    \n    address[] public holders;\n    mapping (address => uint) index;\n    \n    uint public decimals = 18;\n    uint public totalSupply = 100000 * 10 ** decimals;\n    string public name = \"IndexProtocol\";\n    string public symbol = \"INDX\";\n    \n    //oracle stuff\n    uint256 public volume;\n    uint256 public oracleMarket;\n    uint256 public oracleTarget;\n    \n    address private oracle;\n    bytes32 private jobId;\n    uint256 private fee;\n    \n    \n    uint public totalShares;\n    uint public sharesPer;\n\n    address public uniswapV3PoolAddress;\n    \n    event Transfer(address indexed from, address indexed to, uint value);\n    \n    event Approval(address indexed owner, address indexed spender, uint value);\n\n    event Rebase(address indexed caller, uint targetPrice, uint marketPrice, uint change);\n    \n    constructor() public {\n        balances[msg.sender] = totalSupply;\n        holders.push(msg.sender);\n        index[msg.sender] = holders.length;\n        \n        //oracle stuff \n        setPublicChainlinkToken();\n        oracle = 0x3A56aE4a2831C3d3514b5D7Af5578E45eBDb7a40;\n        jobId = \"3b7ca0d48c7a4b2da9268456665d11ae\";\n        fee = 0.1 * 10 ** 18; // 0.1 LINK\n\n        //uniswap testing\n        uniswapV3PoolAddress = address(0xeeCac0f984c6b69888c63D681a1731c4aC79bDC9);\n        \n        \n        // totalShares = totalSupply;\n        // sharesPer = totalShares/totalSupply;\n        // shareBalances[msg.sender] = totalShares;\n        \n        // balances[0xfC2782122A7870811bd5864Ea9C5c67F1d48e863] = 1000;\n        // holders.push(0xfC2782122A7870811bd5864Ea9C5c67F1d48e863);\n        // index[0xfC2782122A7870811bd5864Ea9C5c67F1d48e863] = holders.length;\n    }\n    \n    function balanceOf(address owner) public view returns(uint){\n        \n        return balances[owner];\n        \n    }\n    \n    function transfer(address to, uint value) public returns(bool){\n        \n        require(balanceOf(msg.sender)>=value, 'balance too low');\n        balances[to] += value;\n        balances[msg.sender] -= value;\n        \n        // uint shareValue = value * sharesPer;\n        // shareBalances[msg.sender] = shareBalances[msg.sender] - shareValue;\n        // shareBalances[to] = shareBalances[to] + shareValue;\n        \n        if (!inArray(to)) {\n            // Append\n            index[to] = holders.length;\n            holders.push(to);\n        }\n        \n        \n        \n        emit Transfer(msg.sender, to, value);\n        return true;\n        \n    }\n    \n    \n    function transferFrom(address from, address to, uint value) public returns(bool){\n        require(balanceOf(from) >= value, 'balance too low');\n        require(allowance[from][msg.sender] >= value, 'allowance too low');\n        balances[to] += value;\n        balances[from] -= value;\n        \n        \n        emit Transfer(from, to, value);\n        return true;\n    }\n    \n    function approve(address spender, uint value) public returns(bool){\n        allowance[msg.sender][spender] = value;\n        emit Approval(msg.sender, spender, value);\n        return true;\n    }\n    \n    \n    \n    function addAddress(address who) public returns (bool){\n        \n        if (!inArray(who)) {\n            // Append\n            index[who] = holders.length;\n            holders.push(who);\n        }\n        \n        return true;\n    }\n    \n    function countAddress() public view returns (uint){\n        return holders.length;\n    }\n    \n   \n    \n    function inArray(address who) public view returns (bool) {\n        // address 0x0 is not valid if pos is 0 is not in the array\n        if (index[who] > 0) {\n            return true;\n        }\n        return false;\n    }\n    \n    function deltaChange(uint targetPrice, uint marketPrice) public returns (int){\n        \n        int change = (int(marketPrice) - int(targetPrice)) * 1000;\n        change = (change / int(targetPrice));\n        return change;\n        \n        // return (int(x) / 1000) * -500;\n    }\n    \n    \n    \n    function rebase() public returns (bool){\n        \n        // uint256 change = 1;\n        uint256 supplyDelta;\n        uint256 userDelta;\n        uint256 targetPrice = 10;\n        uint256 marketPrice = 9;\n        int256 change;\n        bool neg = false;\n        \n        \n        uint timesAmount = 10**16;\n        //oracleTarget = oracleTarget / timesAmount;\n        //oracleMarket = oracleMarket / timesAmount;\n        //oracleTarget = 10 * timesAmount;\n        //oracleMarket = 5 * timesAmount;\n        \n        \n        change = deltaChange(oracleTarget, oracleMarket);\n        \n        oracleTarget = oracleTarget / timesAmount;\n        oracleMarket = oracleMarket / 10**14;\n        \n        if (change == 0){\n            //No rebase needed\n            return true;\n        }\n        \n        if (change < 0) {\n            change = change * -1;\n            neg = true;\n            }\n        \n        emit Rebase(msg.sender, oracleTarget, oracleMarket, uint256(change.abs()));\n            \n        supplyDelta = uint256(change.abs());\n        supplyDelta *= totalSupply;\n        supplyDelta /= 1000;\n        //supplyDelta /= timesAmount;\n        \n        //Split or merge token supply\n        if (neg == true){\n            totalSupply = totalSupply - supplyDelta;\n        } else{\n            totalSupply = totalSupply + supplyDelta;\n        }\n        \n        \n        //Split or merge user balance\n        for (uint i = 0; i < holders.length; i++) {\n            \n            userDelta = uint256(change.abs());\n            userDelta *= balances[holders[i]];\n            userDelta /= 1000;\n            //userDelta /= timesAmount;\n       \n            //rebase user supply\n            if (neg == true){\n                balances[holders[i]] = balances[holders[i]] - userDelta;\n            } else{\n                balances[holders[i]] = balances[holders[i]] + userDelta;\n            }\n            \n        }\n        \n        return true;\n    }\n    \n    //oracle stuff\n    function startRebase() public returns (bytes32 requestId) \n    {\n        Chainlink.Request memory request = buildChainlinkRequest(jobId, address(this), this.fulfill.selector);\n        \n        request.add(\"get\", \"https://financialmodelingprep.com/api/v3/quote/%5ENDX?apikey=7680f981a245e422d16e1622b4bac07e\");\n        //request.add(\"get\", \"https://api.pancakeswap.info/api/v2/tokens/0x09ad270120d873a2b2fab0b01dff00c679880919\");\n        \n        \n        request.add(\"path\", \"0.price\");\n        \n        \n        \n        // Multiply the result by 1000000000000000000 to remove decimals\n        int timesAmount = 10**14;\n        request.addInt(\"times\", timesAmount);\n        \n        // Sends the request\n        return sendChainlinkRequestTo(oracle, request, fee);\n    }\n    function fulfill(bytes32 _requestId, uint256 _volume) public recordChainlinkFulfillment(_requestId)\n    {\n        oracleTarget = _volume;\n        volume = _volume;\n        if (oracleTarget != 0){\n            oracleMarketPrice();\n        }\n        \n    }\n    function oracleMarketPrice() public returns (bytes32 requestId) \n    {\n        Chainlink.Request memory request = buildChainlinkRequest(jobId, address(this), this.fulfillMarket.selector);\n        \n        //https://financialmodelingprep.com/api/v3/quote/%5ENDX?apikey=7680f981a245e422d16e1622b4bac07e\n        //request.add(\"get\", \"https://api.pancakeswap.info/api/v2/tokens/0x7130d2A12B9BCbFAe4f2634d864A1Ee1Ce3Ead9c\");\n        \n        \n        request.add(\"get\", \"https://api.pancakeswap.info/api/v2/tokens/0x09ad270120d873a2b2fab0b01dff00c679880919\");\n        \n        \n        request.add(\"path\", \"data.price\");\n        \n        // Multiply the result by 1000000000000000000 to remove decimals\n        int timesAmount = 10**18;\n        request.addInt(\"times\", timesAmount);\n        \n        // Sends the request\n        return sendChainlinkRequestTo(oracle, request, fee);\n    }\n    function fulfillMarket(bytes32 _requestId, uint256 _volume) public recordChainlinkFulfillment(_requestId)\n    {\n        oracleMarket = _volume;\n        volume = _volume;\n        if (oracleMarket != 0){\n            rebase();\n        }\n        \n    }\n\n    //UNISWAP MARKET PRICE\n    function uniswapMarket(uint32 s0, uint32 s1) public view returns(uint160){\n        IUniswapV3Pool uniswapv3Pool = IUniswapV3Pool(0xeeCac0f984c6b69888c63D681a1731c4aC79bDC9);\n\n        uint32[] memory secondAgos = new uint32[](2);\n        secondAgos[0] = s0;\n        secondAgos[1] = s1;\n        \n        //return secondAgos[0];\n        \n        (int56[] memory tickCumulatives, uint160[] memory test) = uniswapv3Pool.observe(secondAgos);\n        \n        int56 tickCumulativesDiff = tickCumulatives[1] - tickCumulatives[0];\n        uint56 period = uint56(secondAgos[0]-secondAgos[1]);\n\n        int56 timeWeightedAverageTick = (tickCumulativesDiff / -int56(period));\n\n        //price = 1.0001 ** timeWeightedAverageTick;\n        uint160 sqrtRatioX96 = TickMath.getSqrtRatioAtTick(int24(timeWeightedAverageTick));\n        //uint160 sqrtRatioX96 = TickMath.getSqrtRatioAtTick(int24(-46087));\n        \n        uint160 temp = sqrtRatioX96 * 100000;\n        \n        uint160 ex = (2 ** 96);\n        \n        uint160 next = temp / ex;\n        \n        uint160 last = next ** 2;\n        \n        \n\n        // uint256 ratioX192 = uint256(sqrtRatioX96) * sqrtRatioX96;\n        // price = uint32((ratioX192 * 1e18) >> (96 * 2));\n\n        return last;\n\n    }\n    \n    \n    \n    \n}\n// pragma solidity ^0.8.6;\n\n// import \"./lib/SafeMathInt.sol\";\n// import \"./lib/UInt256Lib.sol\";\n\n\n// contract IndexProtocol {\n//     // using SafeMath for uint256;\n//     using SafeMathInt for int256;\n//     using UInt256Lib for uint256;\n    \n//     mapping(address => uint) public balances;\n    \n//     mapping(address => mapping(address => uint)) public allowance;\n    \n//     address[] public holders;\n//     mapping (address => uint) index;\n    \n//     uint public decimals = 18;\n//     uint public totalSupply = 100000 * 10 ** decimals;\n//     string public name = \"IndexProtocol\";\n//     string public symbol = \"INDX\";\n    \n    \n//     uint public totalShares;\n//     uint public sharesPer;\n    \n//     event Transfer(address indexed from, address indexed to, uint value);\n    \n//     event Approval(address indexed owner, address indexed spender, uint value);\n    \n//     constructor(){\n//         balances[msg.sender] = totalSupply;\n//         holders.push(msg.sender);\n//         index[msg.sender] = holders.length;\n//         // totalShares = totalSupply;\n//         // sharesPer = totalShares/totalSupply;\n//         // shareBalances[msg.sender] = totalShares;\n        \n//         // balances[0xfC2782122A7870811bd5864Ea9C5c67F1d48e863] = 1000;\n//         // holders.push(0xfC2782122A7870811bd5864Ea9C5c67F1d48e863);\n//         // index[0xfC2782122A7870811bd5864Ea9C5c67F1d48e863] = holders.length;\n//     }\n    \n//     function balanceOf(address owner) public view returns(uint){\n        \n//         return balances[owner];\n        \n//     }\n    \n//     function transfer(address to, uint value) public returns(bool){\n        \n//         require(balanceOf(msg.sender)>=value, 'balance too low');\n//         balances[to] += value;\n//         balances[msg.sender] -= value;\n        \n//         // uint shareValue = value * sharesPer;\n//         // shareBalances[msg.sender] = shareBalances[msg.sender] - shareValue;\n//         // shareBalances[to] = shareBalances[to] + shareValue;\n        \n//         if (!inArray(to)) {\n//             // Append\n//             index[to] = holders.length;\n//             holders.push(to);\n//         }\n        \n        \n        \n//         emit Transfer(msg.sender, to, value);\n//         return true;\n        \n//     }\n    \n    \n//     function transferFrom(address from, address to, uint value) public returns(bool){\n//         require(balanceOf(from) >= value, 'balance too low');\n//         require(allowance[from][msg.sender] >= value, 'allowance too low');\n//         balances[to] += value;\n//         balances[from] -= value;\n        \n        \n//         emit Transfer(from, to, value);\n//         return true;\n//     }\n    \n//     function approve(address spender, uint value) public returns(bool){\n//         allowance[msg.sender][spender] = value;\n//         emit Approval(msg.sender, spender, value);\n//         return true;\n//     }\n    \n    \n    \n//     function addAddress(address who) public returns (bool){\n        \n//         if (!inArray(who)) {\n//             // Append\n//             index[who] = holders.length;\n//             holders.push(who);\n//         }\n        \n//         return true;\n//     }\n    \n//     function countAddress() public view returns (uint){\n//         return holders.length;\n//     }\n    \n   \n    \n//     function inArray(address who) public view returns (bool) {\n//         // address 0x0 is not valid if pos is 0 is not in the array\n//         if (index[who] > 0) {\n//             return true;\n//         }\n//         return false;\n//     }\n    \n//     function deltaChange(uint targetPrice, uint marketPrice) public returns (int){\n        \n//         int change = (int(marketPrice) - int(targetPrice)) * 1000;\n//         change = (change / int(targetPrice));\n//         return change;\n        \n//         // return (int(x) / 1000) * -500;\n//     }\n    \n    \n    \n//     function rebase(uint256 targetPrice, uint256 marketPrice) public returns (bool){\n        \n//         // uint256 change = 1;\n//         uint256 supplyDelta;\n//         uint256 userDelta;\n//         // uint256 targetPrice = 10;\n//         // uint256 marketPrice = 9;\n//         int256 change;\n//         bool neg = false;\n        \n//         change = deltaChange(targetPrice, marketPrice);\n        \n//         if (change == 0){\n//             //No rebase needed\n//             return true;\n//         }\n        \n//         if (change < 0) {\n//             change = change * -1;\n//             neg = true;\n//             }\n            \n//         supplyDelta = uint256(change.abs());\n//         supplyDelta *= totalSupply;\n//         supplyDelta /= 1000;\n        \n//         //Split or merge token supply\n//         if (neg == true){\n//             totalSupply = totalSupply - supplyDelta;\n//         } else{\n//             totalSupply = totalSupply + supplyDelta;\n//         }\n        \n        \n//         //Split or merge user balance\n//         for (uint i = 0; i < holders.length; i++) {\n            \n//             userDelta = uint256(change.abs());\n//             userDelta *= balances[holders[i]];\n//             userDelta /= 1000;\n       \n//             //rebase user supply\n//             if (neg == true){\n//                 balances[holders[i]] = balances[holders[i]] - userDelta;\n//             } else{\n//                 balances[holders[i]] = balances[holders[i]] + userDelta;\n//             }\n            \n//         }\n//         return true;\n//     }\n    \n    \n    \n// }",
  "sourcePath": "/Users/mac/Desktop/repos/indexprotocol/contracts/IndexProtocol89.sol",
  "compiler": {
    "name": "solc",
    "version": "0.8.0+commit.c7dfd78e.Emscripten.clang"
  },
  "schemaVersion": "3.4.2",
  "updatedAt": "2021-08-14T14:17:38.511Z",
  "networkType": "ethereum",
  "devdoc": {
    "kind": "dev",
    "methods": {},
    "version": 1
  },
  "userdoc": {
    "kind": "user",
    "methods": {},
    "version": 1
  }
}