{
  "contractName": "IndexProtocol",
  "abi": [
    {
      "inputs": [],
      "stateMutability": "nonpayable",
      "type": "constructor"
    },
    {
      "anonymous": false,
      "inputs": [
        {
          "indexed": true,
          "internalType": "address",
          "name": "owner",
          "type": "address"
        },
        {
          "indexed": true,
          "internalType": "address",
          "name": "spender",
          "type": "address"
        },
        {
          "indexed": false,
          "internalType": "uint256",
          "name": "value",
          "type": "uint256"
        }
      ],
      "name": "Approval",
      "type": "event"
    },
    {
      "anonymous": false,
      "inputs": [
        {
          "indexed": true,
          "internalType": "address",
          "name": "from",
          "type": "address"
        },
        {
          "indexed": true,
          "internalType": "address",
          "name": "to",
          "type": "address"
        },
        {
          "indexed": false,
          "internalType": "uint256",
          "name": "value",
          "type": "uint256"
        }
      ],
      "name": "Transfer",
      "type": "event"
    },
    {
      "inputs": [
        {
          "internalType": "address",
          "name": "",
          "type": "address"
        },
        {
          "internalType": "address",
          "name": "",
          "type": "address"
        }
      ],
      "name": "allowance",
      "outputs": [
        {
          "internalType": "uint256",
          "name": "",
          "type": "uint256"
        }
      ],
      "stateMutability": "view",
      "type": "function"
    },
    {
      "inputs": [
        {
          "internalType": "address",
          "name": "",
          "type": "address"
        }
      ],
      "name": "balances",
      "outputs": [
        {
          "internalType": "uint256",
          "name": "",
          "type": "uint256"
        }
      ],
      "stateMutability": "view",
      "type": "function"
    },
    {
      "inputs": [],
      "name": "decimals",
      "outputs": [
        {
          "internalType": "uint256",
          "name": "",
          "type": "uint256"
        }
      ],
      "stateMutability": "view",
      "type": "function"
    },
    {
      "inputs": [
        {
          "internalType": "uint256",
          "name": "",
          "type": "uint256"
        }
      ],
      "name": "holders",
      "outputs": [
        {
          "internalType": "address",
          "name": "",
          "type": "address"
        }
      ],
      "stateMutability": "view",
      "type": "function"
    },
    {
      "inputs": [],
      "name": "name",
      "outputs": [
        {
          "internalType": "string",
          "name": "",
          "type": "string"
        }
      ],
      "stateMutability": "view",
      "type": "function"
    },
    {
      "inputs": [],
      "name": "sharesPer",
      "outputs": [
        {
          "internalType": "uint256",
          "name": "",
          "type": "uint256"
        }
      ],
      "stateMutability": "view",
      "type": "function"
    },
    {
      "inputs": [],
      "name": "symbol",
      "outputs": [
        {
          "internalType": "string",
          "name": "",
          "type": "string"
        }
      ],
      "stateMutability": "view",
      "type": "function"
    },
    {
      "inputs": [],
      "name": "totalShares",
      "outputs": [
        {
          "internalType": "uint256",
          "name": "",
          "type": "uint256"
        }
      ],
      "stateMutability": "view",
      "type": "function"
    },
    {
      "inputs": [],
      "name": "totalSupply",
      "outputs": [
        {
          "internalType": "uint256",
          "name": "",
          "type": "uint256"
        }
      ],
      "stateMutability": "view",
      "type": "function"
    },
    {
      "inputs": [
        {
          "internalType": "address",
          "name": "owner",
          "type": "address"
        }
      ],
      "name": "balanceOf",
      "outputs": [
        {
          "internalType": "uint256",
          "name": "",
          "type": "uint256"
        }
      ],
      "stateMutability": "view",
      "type": "function"
    },
    {
      "inputs": [
        {
          "internalType": "address",
          "name": "to",
          "type": "address"
        },
        {
          "internalType": "uint256",
          "name": "value",
          "type": "uint256"
        }
      ],
      "name": "transfer",
      "outputs": [
        {
          "internalType": "bool",
          "name": "",
          "type": "bool"
        }
      ],
      "stateMutability": "nonpayable",
      "type": "function"
    },
    {
      "inputs": [
        {
          "internalType": "address",
          "name": "from",
          "type": "address"
        },
        {
          "internalType": "address",
          "name": "to",
          "type": "address"
        },
        {
          "internalType": "uint256",
          "name": "value",
          "type": "uint256"
        }
      ],
      "name": "transferFrom",
      "outputs": [
        {
          "internalType": "bool",
          "name": "",
          "type": "bool"
        }
      ],
      "stateMutability": "nonpayable",
      "type": "function"
    },
    {
      "inputs": [
        {
          "internalType": "address",
          "name": "spender",
          "type": "address"
        },
        {
          "internalType": "uint256",
          "name": "value",
          "type": "uint256"
        }
      ],
      "name": "approve",
      "outputs": [
        {
          "internalType": "bool",
          "name": "",
          "type": "bool"
        }
      ],
      "stateMutability": "nonpayable",
      "type": "function"
    },
    {
      "inputs": [
        {
          "internalType": "address",
          "name": "who",
          "type": "address"
        }
      ],
      "name": "addAddress",
      "outputs": [
        {
          "internalType": "bool",
          "name": "",
          "type": "bool"
        }
      ],
      "stateMutability": "nonpayable",
      "type": "function"
    },
    {
      "inputs": [],
      "name": "countAddress",
      "outputs": [
        {
          "internalType": "uint256",
          "name": "",
          "type": "uint256"
        }
      ],
      "stateMutability": "view",
      "type": "function"
    },
    {
      "inputs": [
        {
          "internalType": "address",
          "name": "who",
          "type": "address"
        }
      ],
      "name": "inArray",
      "outputs": [
        {
          "internalType": "bool",
          "name": "",
          "type": "bool"
        }
      ],
      "stateMutability": "view",
      "type": "function"
    },
    {
      "inputs": [
        {
          "internalType": "uint256",
          "name": "targetPrice",
          "type": "uint256"
        },
        {
          "internalType": "uint256",
          "name": "marketPrice",
          "type": "uint256"
        }
      ],
      "name": "deltaChange",
      "outputs": [
        {
          "internalType": "int256",
          "name": "",
          "type": "int256"
        }
      ],
      "stateMutability": "nonpayable",
      "type": "function"
    },
    {
      "inputs": [],
      "name": "rebase",
      "outputs": [
        {
          "internalType": "bool",
          "name": "",
          "type": "bool"
        }
      ],
      "stateMutability": "nonpayable",
      "type": "function"
    }
  ],
  "bytecode": "0x608060405269152d02c7e14af68000006004556040518060400160405280600d81526020017f496e64657850726f746f636f6c00000000000000000000000000000000000000815250600590805190602001906200005f929190620001b8565b506040518060400160405280600481526020017f494e44580000000000000000000000000000000000000000000000000000000081525060069080519060200190620000ad929190620001b8565b506012600755348015620000c057600080fd5b506004546000803373ffffffffffffffffffffffffffffffffffffffff1673ffffffffffffffffffffffffffffffffffffffff168152602001908152602001600020819055506002339080600181540180825580915050600190039060005260206000200160009091909190916101000a81548173ffffffffffffffffffffffffffffffffffffffff021916908373ffffffffffffffffffffffffffffffffffffffff160217905550600280549050600360003373ffffffffffffffffffffffffffffffffffffffff1673ffffffffffffffffffffffffffffffffffffffff16815260200190815260200160002081905550620002cd565b828054620001c69062000268565b90600052602060002090601f016020900481019282620001ea576000855562000236565b82601f106200020557805160ff191683800117855562000236565b8280016001018555821562000236579182015b828111156200023557825182559160200191906001019062000218565b5b50905062000245919062000249565b5090565b5b80821115620002645760008160009055506001016200024a565b5090565b600060028204905060018216806200028157607f821691505b602082108114156200029857620002976200029e565b5b50919050565b7f4e487b7100000000000000000000000000000000000000000000000000000000600052602260045260246000fd5b6119c180620002dd6000396000f3fe608060405234801561001057600080fd5b50600436106101165760003560e01c80633a98ef39116100a257806395d89b411161007157806395d89b411461031f578063a9059cbb1461033d578063af14052c1461036d578063dd62ed3e1461038b578063deac4659146103bb57610116565b80633a98ef391461029557806342154e9c146102b357806342352546146102d157806370a08231146102ef57610116565b806323b872dd116100e957806323b872dd146101b757806327e235e3146101e75780632a11ced014610217578063313ce5671461024757806338eada1c1461026557610116565b806306fdde031461011b578063095ea7b31461013957806311d1ab6b1461016957806318160ddd14610199575b600080fd5b6101236103eb565b604051610130919061132d565b60405180910390f35b610153600480360381019061014e9190611174565b610479565b60405161016091906112f7565b60405180910390f35b610183600480360381019061017e91906111e1565b61056b565b6040516101909190611312565b60405180910390f35b6101a16105a1565b6040516101ae919061138f565b60405180910390f35b6101d160048036038101906101cc9190611121565b6105a7565b6040516101de91906112f7565b60405180910390f35b61020160048036038101906101fc91906110b4565b6107cd565b60405161020e919061138f565b60405180910390f35b610231600480360381019061022c91906111b4565b6107e5565b60405161023e91906112dc565b60405180910390f35b61024f610824565b60405161025c919061138f565b60405180910390f35b61027f600480360381019061027a91906110b4565b61082a565b60405161028c91906112f7565b60405180910390f35b61029d6108ef565b6040516102aa919061138f565b60405180910390f35b6102bb6108f5565b6040516102c8919061138f565b60405180910390f35b6102d9610902565b6040516102e6919061138f565b60405180910390f35b610309600480360381019061030491906110b4565b610908565b604051610316919061138f565b60405180910390f35b610327610950565b604051610334919061132d565b60405180910390f35b61035760048036038101906103529190611174565b6109de565b60405161036491906112f7565b60405180910390f35b610375610bfe565b60405161038291906112f7565b60405180910390f35b6103a560048036038101906103a091906110e1565b610fd5565b6040516103b2919061138f565b60405180910390f35b6103d560048036038101906103d091906110b4565b610ffa565b6040516103e291906112f7565b60405180910390f35b600580546103f890611775565b80601f016020809104026020016040519081016040528092919081815260200182805461042490611775565b80156104715780601f1061044657610100808354040283529160200191610471565b820191906000526020600020905b81548152906001019060200180831161045457829003601f168201915b505050505081565b600081600160003373ffffffffffffffffffffffffffffffffffffffff1673ffffffffffffffffffffffffffffffffffffffff16815260200190815260200160002060008573ffffffffffffffffffffffffffffffffffffffff1673ffffffffffffffffffffffffffffffffffffffff168152602001908152602001600020819055508273ffffffffffffffffffffffffffffffffffffffff163373ffffffffffffffffffffffffffffffffffffffff167f8c5be1e5ebec7d5bd14f71427d1e84f3dd0314c0f7b2291e5b200ac8c7c3b92584604051610559919061138f565b60405180910390a36001905092915050565b6000806103e8848461057d9190611628565b61058791906114b7565b90508381610595919061141c565b90508091505092915050565b60045481565b6000816105b385610908565b10156105f4576040517f08c379a00000000000000000000000000000000000000000000000000000000081526004016105eb9061134f565b60405180910390fd5b81600160008673ffffffffffffffffffffffffffffffffffffffff1673ffffffffffffffffffffffffffffffffffffffff16815260200190815260200160002060003373ffffffffffffffffffffffffffffffffffffffff1673ffffffffffffffffffffffffffffffffffffffff1681526020019081526020016000205410156106b3576040517f08c379a00000000000000000000000000000000000000000000000000000000081526004016106aa9061136f565b60405180910390fd5b816000808573ffffffffffffffffffffffffffffffffffffffff1673ffffffffffffffffffffffffffffffffffffffff168152602001908152602001600020600082825461070191906113c6565b92505081905550816000808673ffffffffffffffffffffffffffffffffffffffff1673ffffffffffffffffffffffffffffffffffffffff168152602001908152602001600020600082825461075691906116bc565b925050819055508273ffffffffffffffffffffffffffffffffffffffff168473ffffffffffffffffffffffffffffffffffffffff167fddf252ad1be2c89b69c2b068fc378daa952ba7f163c4a11628f55a4df523b3ef846040516107ba919061138f565b60405180910390a3600190509392505050565b60006020528060005260406000206000915090505481565b600281815481106107f557600080fd5b906000526020600020016000915054906101000a900473ffffffffffffffffffffffffffffffffffffffff1681565b60075481565b600061083582610ffa565b6108e657600280549050600360008473ffffffffffffffffffffffffffffffffffffffff1673ffffffffffffffffffffffffffffffffffffffff168152602001908152602001600020819055506002829080600181540180825580915050600190039060005260206000200160009091909190916101000a81548173ffffffffffffffffffffffffffffffffffffffff021916908373ffffffffffffffffffffffffffffffffffffffff1602179055505b60019050919050565b60085481565b6000600280549050905090565b60095481565b60008060008373ffffffffffffffffffffffffffffffffffffffff1673ffffffffffffffffffffffffffffffffffffffff168152602001908152602001600020549050919050565b6006805461095d90611775565b80601f016020809104026020016040519081016040528092919081815260200182805461098990611775565b80156109d65780601f106109ab576101008083540402835291602001916109d6565b820191906000526020600020905b8154815290600101906020018083116109b957829003601f168201915b505050505081565b6000816109ea33610908565b1015610a2b576040517f08c379a0000000000000000000000000000000000000000000000000000000008152600401610a229061134f565b60405180910390fd5b816000808573ffffffffffffffffffffffffffffffffffffffff1673ffffffffffffffffffffffffffffffffffffffff1681526020019081526020016000206000828254610a7991906113c6565b92505081905550816000803373ffffffffffffffffffffffffffffffffffffffff1673ffffffffffffffffffffffffffffffffffffffff1681526020019081526020016000206000828254610ace91906116bc565b92505081905550610ade83610ffa565b610b8f57600280549050600360008573ffffffffffffffffffffffffffffffffffffffff1673ffffffffffffffffffffffffffffffffffffffff168152602001908152602001600020819055506002839080600181540180825580915050600190039060005260206000200160009091909190916101000a81548173ffffffffffffffffffffffffffffffffffffffff021916908373ffffffffffffffffffffffffffffffffffffffff1602179055505b8273ffffffffffffffffffffffffffffffffffffffff163373ffffffffffffffffffffffffffffffffffffffff167fddf252ad1be2c89b69c2b068fc378daa952ba7f163c4a11628f55a4df523b3ef84604051610bec919061138f565b60405180910390a36001905092915050565b6000806000806014905060006004905060008060009050610c1f848461056b565b91506000821415610c395760019650505050505050610fd2565b6000821215610c75577fffffffffffffffffffffffffffffffffffffffffffffffffffffffffffffffff82610c6e91906114b7565b9150600190505b610c7e82611056565b955060045486610c8e91906115ce565b95506103e886610c9e9190611486565b9550600115158115151415610cc65785600454610cbb91906116bc565b600481905550610cdb565b85600454610cd491906113c6565b6004819055505b60005b600280549050811015610fc657610cf483611056565b955060008060028381548110610d0d57610d0c6118c6565b5b9060005260206000200160009054906101000a900473ffffffffffffffffffffffffffffffffffffffff1673ffffffffffffffffffffffffffffffffffffffff1673ffffffffffffffffffffffffffffffffffffffff1681526020019081526020016000205486610d7e91906115ce565b95506103e886610d8e9190611486565b9550600115158215151415610eaa578560008060028481548110610db557610db46118c6565b5b9060005260206000200160009054906101000a900473ffffffffffffffffffffffffffffffffffffffff1673ffffffffffffffffffffffffffffffffffffffff1673ffffffffffffffffffffffffffffffffffffffff16815260200190815260200160002054610e2591906116bc565b60008060028481548110610e3c57610e3b6118c6565b5b9060005260206000200160009054906101000a900473ffffffffffffffffffffffffffffffffffffffff1673ffffffffffffffffffffffffffffffffffffffff1673ffffffffffffffffffffffffffffffffffffffff16815260200190815260200160002081905550610fb3565b8560008060028481548110610ec257610ec16118c6565b5b9060005260206000200160009054906101000a900473ffffffffffffffffffffffffffffffffffffffff1673ffffffffffffffffffffffffffffffffffffffff1673ffffffffffffffffffffffffffffffffffffffff16815260200190815260200160002054610f3291906113c6565b60008060028481548110610f4957610f486118c6565b5b9060005260206000200160009054906101000a900473ffffffffffffffffffffffffffffffffffffffff1673ffffffffffffffffffffffffffffffffffffffff1673ffffffffffffffffffffffffffffffffffffffff168152602001908152602001600020819055505b8080610fbe906117a7565b915050610cde565b50600196505050505050505b90565b6001602052816000526040600020602052806000526040600020600091509150505481565b600080600360008473ffffffffffffffffffffffffffffffffffffffff1673ffffffffffffffffffffffffffffffffffffffff16815260200190815260200160002054111561104c5760019050611051565b600090505b919050565b600060ff6001901b82141561106a57600080fd5b600082126110785781611083565b81611082906117f0565b5b9050919050565b6000813590506110998161195d565b92915050565b6000813590506110ae81611974565b92915050565b6000602082840312156110ca576110c96118f5565b5b60006110d88482850161108a565b91505092915050565b600080604083850312156110f8576110f76118f5565b5b60006111068582860161108a565b92505060206111178582860161108a565b9150509250929050565b60008060006060848603121561113a576111396118f5565b5b60006111488682870161108a565b93505060206111598682870161108a565b925050604061116a8682870161109f565b9150509250925092565b6000806040838503121561118b5761118a6118f5565b5b60006111998582860161108a565b92505060206111aa8582860161109f565b9150509250929050565b6000602082840312156111ca576111c96118f5565b5b60006111d88482850161109f565b91505092915050565b600080604083850312156111f8576111f76118f5565b5b60006112068582860161109f565b92505060206112178582860161109f565b9150509250929050565b61122a816116f0565b82525050565b61123981611702565b82525050565b6112488161170e565b82525050565b6000611259826113aa565b61126381856113b5565b9350611273818560208601611742565b61127c816118fa565b840191505092915050565b6000611294600f836113b5565b915061129f8261190b565b602082019050919050565b60006112b76011836113b5565b91506112c282611934565b602082019050919050565b6112d681611738565b82525050565b60006020820190506112f16000830184611221565b92915050565b600060208201905061130c6000830184611230565b92915050565b6000602082019050611327600083018461123f565b92915050565b60006020820190508181036000830152611347818461124e565b905092915050565b6000602082019050818103600083015261136881611287565b9050919050565b60006020820190508181036000830152611388816112aa565b9050919050565b60006020820190506113a460008301846112cd565b92915050565b600081519050919050565b600082825260208201905092915050565b60006113d182611738565b91506113dc83611738565b9250827fffffffffffffffffffffffffffffffffffffffffffffffffffffffffffffffff0382111561141157611410611839565b5b828201905092915050565b60006114278261170e565b91506114328361170e565b92508261144257611441611868565b5b600160000383147f80000000000000000000000000000000000000000000000000000000000000008314161561147b5761147a611839565b5b828205905092915050565b600061149182611738565b915061149c83611738565b9250826114ac576114ab611868565b5b828204905092915050565b60006114c28261170e565b91506114cd8361170e565b9250827f7fffffffffffffffffffffffffffffffffffffffffffffffffffffffffffffff048211600084136000841316161561150c5761150b611839565b5b817f8000000000000000000000000000000000000000000000000000000000000000058312600084126000841316161561154957611548611839565b5b827f8000000000000000000000000000000000000000000000000000000000000000058212600084136000841216161561158657611585611839565b5b827f7fffffffffffffffffffffffffffffffffffffffffffffffffffffffffffffff05821260008412600084121616156115c3576115c2611839565b5b828202905092915050565b60006115d982611738565b91506115e483611738565b9250817fffffffffffffffffffffffffffffffffffffffffffffffffffffffffffffffff048311821515161561161d5761161c611839565b5b828202905092915050565b60006116338261170e565b915061163e8361170e565b9250827f80000000000000000000000000000000000000000000000000000000000000000182126000841215161561167957611678611839565b5b827f7fffffffffffffffffffffffffffffffffffffffffffffffffffffffffffffff0182136000841216156116b1576116b0611839565b5b828203905092915050565b60006116c782611738565b91506116d283611738565b9250828210156116e5576116e4611839565b5b828203905092915050565b60006116fb82611718565b9050919050565b60008115159050919050565b6000819050919050565b600073ffffffffffffffffffffffffffffffffffffffff82169050919050565b6000819050919050565b60005b83811015611760578082015181840152602081019050611745565b8381111561176f576000848401525b50505050565b6000600282049050600182168061178d57607f821691505b602082108114156117a1576117a0611897565b5b50919050565b60006117b282611738565b91507fffffffffffffffffffffffffffffffffffffffffffffffffffffffffffffffff8214156117e5576117e4611839565b5b600182019050919050565b60006117fb8261170e565b91507f800000000000000000000000000000000000000000000000000000000000000082141561182e5761182d611839565b5b816000039050919050565b7f4e487b7100000000000000000000000000000000000000000000000000000000600052601160045260246000fd5b7f4e487b7100000000000000000000000000000000000000000000000000000000600052601260045260246000fd5b7f4e487b7100000000000000000000000000000000000000000000000000000000600052602260045260246000fd5b7f4e487b7100000000000000000000000000000000000000000000000000000000600052603260045260246000fd5b600080fd5b6000601f19601f8301169050919050565b7f62616c616e636520746f6f206c6f770000000000000000000000000000000000600082015250565b7f616c6c6f77616e636520746f6f206c6f77000000000000000000000000000000600082015250565b611966816116f0565b811461197157600080fd5b50565b61197d81611738565b811461198857600080fd5b5056fea26469706673582212205a6a90caf2c5d5276bc0ac1b32157bd6311f001a4b9f7a69742392d4711d5dcf64736f6c63430008060033",
  "immutableReferences": {},
  "source": "pragma solidity ^0.8.6;\n\nimport \"./lib/SafeMathInt.sol\";\nimport \"./lib/UInt256Lib.sol\";\n\n\ncontract IndexProtocol {\n    // using SafeMath for uint256;\n    using SafeMathInt for int256;\n    using UInt256Lib for uint256;\n    \n    mapping(address => uint) public balances;\n    \n    mapping(address => mapping(address => uint)) public allowance;\n    \n    address[] public holders;\n    mapping (address => uint) index;\n    \n    uint public totalSupply = 100000 * 10 ** 18;\n    string public name = \"IndexProtocol\";\n    string public symbol = \"INDX\";\n    uint public decimals = 18;\n    \n    uint public totalShares;\n    uint public sharesPer;\n    \n    event Transfer(address indexed from, address indexed to, uint value);\n    \n    event Approval(address indexed owner, address indexed spender, uint value);\n    \n    constructor(){\n        balances[msg.sender] = totalSupply;\n        holders.push(msg.sender);\n        index[msg.sender] = holders.length;\n        // totalShares = totalSupply;\n        // sharesPer = totalShares/totalSupply;\n        // shareBalances[msg.sender] = totalShares;\n        \n        // balances[0xfC2782122A7870811bd5864Ea9C5c67F1d48e863] = 1000;\n        // holders.push(0xfC2782122A7870811bd5864Ea9C5c67F1d48e863);\n        // index[0xfC2782122A7870811bd5864Ea9C5c67F1d48e863] = holders.length;\n    }\n    \n    function balanceOf(address owner) public view returns(uint){\n        \n        return balances[owner];\n        \n    }\n    \n    function transfer(address to, uint value) public returns(bool){\n        \n        require(balanceOf(msg.sender)>=value, 'balance too low');\n        balances[to] += value;\n        balances[msg.sender] -= value;\n        \n        // uint shareValue = value * sharesPer;\n        // shareBalances[msg.sender] = shareBalances[msg.sender] - shareValue;\n        // shareBalances[to] = shareBalances[to] + shareValue;\n        \n        if (!inArray(to)) {\n            // Append\n            index[to] = holders.length;\n            holders.push(to);\n        }\n        \n        \n        \n        emit Transfer(msg.sender, to, value);\n        return true;\n        \n    }\n    \n    \n    function transferFrom(address from, address to, uint value) public returns(bool){\n        require(balanceOf(from) >= value, 'balance too low');\n        require(allowance[from][msg.sender] >= value, 'allowance too low');\n        balances[to] += value;\n        balances[from] -= value;\n        \n        \n        emit Transfer(from, to, value);\n        return true;\n    }\n    \n    function approve(address spender, uint value) public returns(bool){\n        allowance[msg.sender][spender] = value;\n        emit Approval(msg.sender, spender, value);\n        return true;\n    }\n    \n    \n    \n    function addAddress(address who) public returns (bool){\n        \n        if (!inArray(who)) {\n            // Append\n            index[who] = holders.length;\n            holders.push(who);\n        }\n        \n        return true;\n    }\n    \n    function countAddress() public view returns (uint){\n        return holders.length;\n    }\n    \n   \n    \n    function inArray(address who) public view returns (bool) {\n        // address 0x0 is not valid if pos is 0 is not in the array\n        if (index[who] > 0) {\n            return true;\n        }\n        return false;\n    }\n    \n    function deltaChange(uint targetPrice, uint marketPrice) public returns (int){\n        \n        int change = (int(marketPrice) - int(targetPrice)) * 1000;\n        change = (change / int(targetPrice));\n        return change;\n        \n        // return (int(x) / 1000) * -500;\n    }\n    \n    \n    \n    function rebase() public returns (bool){\n        \n        // uint256 change = 1;\n        uint256 supplyDelta;\n        uint256 userDelta;\n        uint256 targetPrice = 20;\n        uint256 marketPrice = 4;\n        int256 change;\n        bool neg = false;\n        \n        change = deltaChange(targetPrice, marketPrice);\n        \n        if (change == 0){\n            //No rebase needed\n            return true;\n        }\n        \n        if (change < 0) {\n            change = change * -1;\n            neg = true;\n            }\n            \n        supplyDelta = uint256(change.abs());\n        supplyDelta *= totalSupply;\n        supplyDelta /= 1000;\n        \n        //Split or merge token supply\n        if (neg == true){\n            totalSupply = totalSupply - supplyDelta;\n        } else{\n            totalSupply = totalSupply + supplyDelta;\n        }\n        \n        \n        //Split or merge user balance\n        for (uint i = 0; i < holders.length; i++) {\n            \n            userDelta = uint256(change.abs());\n            userDelta *= balances[holders[i]];\n            userDelta /= 1000;\n       \n            //rebase user supply\n            if (neg == true){\n                balances[holders[i]] = balances[holders[i]] - userDelta;\n            } else{\n                balances[holders[i]] = balances[holders[i]] + userDelta;\n            }\n            \n        }\n        return true;\n    }\n    \n    \n    \n}",
  "sourcePath": "/Users/mac/Desktop/repos/indexprotocol/contracts/IndexProtocol.sol",
  "compiler": {
    "name": "solc",
    "version": "0.8.6+commit.11564f7e.Emscripten.clang"
  },
  "schemaVersion": "3.4.2",
  "updatedAt": "2021-07-27T20:04:38.086Z",
  "devdoc": {
    "kind": "dev",
    "methods": {},
    "version": 1
  },
  "userdoc": {
    "kind": "user",
    "methods": {},
    "version": 1
  }
}