{
  "contractName": "IndexProtocol",
  "abi": [
    {
      "inputs": [],
      "stateMutability": "nonpayable",
      "type": "constructor"
    },
    {
      "anonymous": false,
      "inputs": [
        {
          "indexed": true,
          "internalType": "address",
          "name": "owner",
          "type": "address"
        },
        {
          "indexed": true,
          "internalType": "address",
          "name": "spender",
          "type": "address"
        },
        {
          "indexed": false,
          "internalType": "uint256",
          "name": "value",
          "type": "uint256"
        }
      ],
      "name": "Approval",
      "type": "event"
    },
    {
      "anonymous": false,
      "inputs": [
        {
          "indexed": true,
          "internalType": "bytes32",
          "name": "id",
          "type": "bytes32"
        }
      ],
      "name": "ChainlinkCancelled",
      "type": "event"
    },
    {
      "anonymous": false,
      "inputs": [
        {
          "indexed": true,
          "internalType": "bytes32",
          "name": "id",
          "type": "bytes32"
        }
      ],
      "name": "ChainlinkFulfilled",
      "type": "event"
    },
    {
      "anonymous": false,
      "inputs": [
        {
          "indexed": true,
          "internalType": "bytes32",
          "name": "id",
          "type": "bytes32"
        }
      ],
      "name": "ChainlinkRequested",
      "type": "event"
    },
    {
      "anonymous": false,
      "inputs": [
        {
          "indexed": true,
          "internalType": "address",
          "name": "from",
          "type": "address"
        },
        {
          "indexed": true,
          "internalType": "address",
          "name": "to",
          "type": "address"
        },
        {
          "indexed": false,
          "internalType": "uint256",
          "name": "value",
          "type": "uint256"
        }
      ],
      "name": "Transfer",
      "type": "event"
    },
    {
      "inputs": [
        {
          "internalType": "address",
          "name": "",
          "type": "address"
        },
        {
          "internalType": "address",
          "name": "",
          "type": "address"
        }
      ],
      "name": "allowance",
      "outputs": [
        {
          "internalType": "uint256",
          "name": "",
          "type": "uint256"
        }
      ],
      "stateMutability": "view",
      "type": "function",
      "constant": true
    },
    {
      "inputs": [
        {
          "internalType": "address",
          "name": "",
          "type": "address"
        }
      ],
      "name": "balances",
      "outputs": [
        {
          "internalType": "uint256",
          "name": "",
          "type": "uint256"
        }
      ],
      "stateMutability": "view",
      "type": "function",
      "constant": true
    },
    {
      "inputs": [],
      "name": "decimals",
      "outputs": [
        {
          "internalType": "uint256",
          "name": "",
          "type": "uint256"
        }
      ],
      "stateMutability": "view",
      "type": "function",
      "constant": true
    },
    {
      "inputs": [
        {
          "internalType": "uint256",
          "name": "",
          "type": "uint256"
        }
      ],
      "name": "holders",
      "outputs": [
        {
          "internalType": "address",
          "name": "",
          "type": "address"
        }
      ],
      "stateMutability": "view",
      "type": "function",
      "constant": true
    },
    {
      "inputs": [],
      "name": "name",
      "outputs": [
        {
          "internalType": "string",
          "name": "",
          "type": "string"
        }
      ],
      "stateMutability": "view",
      "type": "function",
      "constant": true
    },
    {
      "inputs": [],
      "name": "oracleMarket",
      "outputs": [
        {
          "internalType": "uint256",
          "name": "",
          "type": "uint256"
        }
      ],
      "stateMutability": "view",
      "type": "function",
      "constant": true
    },
    {
      "inputs": [],
      "name": "oracleTarget",
      "outputs": [
        {
          "internalType": "uint256",
          "name": "",
          "type": "uint256"
        }
      ],
      "stateMutability": "view",
      "type": "function",
      "constant": true
    },
    {
      "inputs": [],
      "name": "sharesPer",
      "outputs": [
        {
          "internalType": "uint256",
          "name": "",
          "type": "uint256"
        }
      ],
      "stateMutability": "view",
      "type": "function",
      "constant": true
    },
    {
      "inputs": [],
      "name": "symbol",
      "outputs": [
        {
          "internalType": "string",
          "name": "",
          "type": "string"
        }
      ],
      "stateMutability": "view",
      "type": "function",
      "constant": true
    },
    {
      "inputs": [],
      "name": "totalShares",
      "outputs": [
        {
          "internalType": "uint256",
          "name": "",
          "type": "uint256"
        }
      ],
      "stateMutability": "view",
      "type": "function",
      "constant": true
    },
    {
      "inputs": [],
      "name": "totalSupply",
      "outputs": [
        {
          "internalType": "uint256",
          "name": "",
          "type": "uint256"
        }
      ],
      "stateMutability": "view",
      "type": "function",
      "constant": true
    },
    {
      "inputs": [],
      "name": "volume",
      "outputs": [
        {
          "internalType": "uint256",
          "name": "",
          "type": "uint256"
        }
      ],
      "stateMutability": "view",
      "type": "function",
      "constant": true
    },
    {
      "inputs": [
        {
          "internalType": "address",
          "name": "owner",
          "type": "address"
        }
      ],
      "name": "balanceOf",
      "outputs": [
        {
          "internalType": "uint256",
          "name": "",
          "type": "uint256"
        }
      ],
      "stateMutability": "view",
      "type": "function",
      "constant": true
    },
    {
      "inputs": [
        {
          "internalType": "address",
          "name": "to",
          "type": "address"
        },
        {
          "internalType": "uint256",
          "name": "value",
          "type": "uint256"
        }
      ],
      "name": "transfer",
      "outputs": [
        {
          "internalType": "bool",
          "name": "",
          "type": "bool"
        }
      ],
      "stateMutability": "nonpayable",
      "type": "function"
    },
    {
      "inputs": [
        {
          "internalType": "address",
          "name": "from",
          "type": "address"
        },
        {
          "internalType": "address",
          "name": "to",
          "type": "address"
        },
        {
          "internalType": "uint256",
          "name": "value",
          "type": "uint256"
        }
      ],
      "name": "transferFrom",
      "outputs": [
        {
          "internalType": "bool",
          "name": "",
          "type": "bool"
        }
      ],
      "stateMutability": "nonpayable",
      "type": "function"
    },
    {
      "inputs": [
        {
          "internalType": "address",
          "name": "spender",
          "type": "address"
        },
        {
          "internalType": "uint256",
          "name": "value",
          "type": "uint256"
        }
      ],
      "name": "approve",
      "outputs": [
        {
          "internalType": "bool",
          "name": "",
          "type": "bool"
        }
      ],
      "stateMutability": "nonpayable",
      "type": "function"
    },
    {
      "inputs": [
        {
          "internalType": "address",
          "name": "who",
          "type": "address"
        }
      ],
      "name": "addAddress",
      "outputs": [
        {
          "internalType": "bool",
          "name": "",
          "type": "bool"
        }
      ],
      "stateMutability": "nonpayable",
      "type": "function"
    },
    {
      "inputs": [],
      "name": "countAddress",
      "outputs": [
        {
          "internalType": "uint256",
          "name": "",
          "type": "uint256"
        }
      ],
      "stateMutability": "view",
      "type": "function",
      "constant": true
    },
    {
      "inputs": [
        {
          "internalType": "address",
          "name": "who",
          "type": "address"
        }
      ],
      "name": "inArray",
      "outputs": [
        {
          "internalType": "bool",
          "name": "",
          "type": "bool"
        }
      ],
      "stateMutability": "view",
      "type": "function",
      "constant": true
    },
    {
      "inputs": [
        {
          "internalType": "uint256",
          "name": "targetPrice",
          "type": "uint256"
        },
        {
          "internalType": "uint256",
          "name": "marketPrice",
          "type": "uint256"
        }
      ],
      "name": "deltaChange",
      "outputs": [
        {
          "internalType": "int256",
          "name": "",
          "type": "int256"
        }
      ],
      "stateMutability": "nonpayable",
      "type": "function"
    },
    {
      "inputs": [],
      "name": "rebase",
      "outputs": [
        {
          "internalType": "bool",
          "name": "",
          "type": "bool"
        }
      ],
      "stateMutability": "nonpayable",
      "type": "function"
    },
    {
      "inputs": [],
      "name": "startRebase",
      "outputs": [
        {
          "internalType": "bytes32",
          "name": "requestId",
          "type": "bytes32"
        }
      ],
      "stateMutability": "nonpayable",
      "type": "function"
    },
    {
      "inputs": [
        {
          "internalType": "bytes32",
          "name": "_requestId",
          "type": "bytes32"
        },
        {
          "internalType": "uint256",
          "name": "_volume",
          "type": "uint256"
        }
      ],
      "name": "fulfill",
      "outputs": [],
      "stateMutability": "nonpayable",
      "type": "function"
    },
    {
      "inputs": [],
      "name": "oracleMarketPrice",
      "outputs": [
        {
          "internalType": "bytes32",
          "name": "requestId",
          "type": "bytes32"
        }
      ],
      "stateMutability": "nonpayable",
      "type": "function"
    },
    {
      "inputs": [
        {
          "internalType": "bytes32",
          "name": "_requestId",
          "type": "bytes32"
        },
        {
          "internalType": "uint256",
          "name": "_volume",
          "type": "uint256"
        }
      ],
      "name": "fulfillMarket",
      "outputs": [],
      "stateMutability": "nonpayable",
      "type": "function"
    }
  ],
  "bytecode": "0x608060405260016004556012600a55600a54600a0a620186a002600b556040518060400160405280600d81526020017f496e64657850726f746f636f6c00000000000000000000000000000000000000815250600c90805190602001906200006992919062000347565b506040518060400160405280600481526020017f494e445800000000000000000000000000000000000000000000000000000000815250600d9080519060200190620000b792919062000347565b50348015620000c557600080fd5b50600b54600660003373ffffffffffffffffffffffffffffffffffffffff1673ffffffffffffffffffffffffffffffffffffffff168152602001908152602001600020819055506008339080600181540180825580915050600190039060005260206000200160009091909190916101000a81548173ffffffffffffffffffffffffffffffffffffffff021916908373ffffffffffffffffffffffffffffffffffffffff160217905550600880549050600960003373ffffffffffffffffffffffffffffffffffffffff1673ffffffffffffffffffffffffffffffffffffffff16815260200190815260200160002081905550620001c86200025960201b60201c565b733a56ae4a2831c3d3514b5d7af5578e45ebdb7a40601160006101000a81548173ffffffffffffffffffffffffffffffffffffffff021916908373ffffffffffffffffffffffffffffffffffffffff1602179055507f336237636130643438633761346232646139323638343536363635643131616560128190555067016345785d8a0000601381905550620003f6565b6200030173c89bd4e1632d3a43cb03aaad5262cbe4038bc57173ffffffffffffffffffffffffffffffffffffffff166338cc48316040518163ffffffff1660e01b815260040160206040518083038186803b158015620002b857600080fd5b505afa158015620002cd573d6000803e3d6000fd5b505050506040513d6020811015620002e457600080fd5b81019080805190602001909291905050506200030360201b60201c565b565b80600260006101000a81548173ffffffffffffffffffffffffffffffffffffffff021916908373ffffffffffffffffffffffffffffffffffffffff16021790555050565b828054600181600116156101000203166002900490600052602060002090601f016020900481019282601f106200038a57805160ff1916838001178555620003bb565b82800160010185558215620003bb579182015b82811115620003ba5782518255916020019190600101906200039d565b5b509050620003ca9190620003ce565b5090565b620003f391905b80821115620003ef576000816000905550600101620003d5565b5090565b90565b61279e80620004066000396000f3fe608060405234801561001057600080fd5b50600436106101735760003560e01c80634357855e116100de57806395d89b4111610097578063c618a1e411610071578063c618a1e414610718578063cd121b6b14610736578063dd62ed3e14610754578063deac4659146107cc57610173565b806395d89b411461060d578063a9059cbb14610690578063af14052c146106f657610173565b80634357855e146104eb578063706f86e91461052357806370a0823114610541578063837e756014610599578063867bf465146105d15780638de079d9146105ef57610173565b80632a11ced0116101305780632a11ced0146103a9578063313ce5671461041757806338eada1c146104355780633a98ef391461049157806342154e9c146104af57806342352546146104cd57610173565b806306fdde0314610178578063095ea7b3146101fb57806311d1ab6b1461026157806318160ddd146102ad57806323b872dd146102cb57806327e235e314610351575b600080fd5b610180610828565b6040518080602001828103825283818151815260200191508051906020019080838360005b838110156101c05780820151818401526020810190506101a5565b50505050905090810190601f1680156101ed5780820380516001836020036101000a031916815260200191505b509250505060405180910390f35b6102476004803603604081101561021157600080fd5b81019080803573ffffffffffffffffffffffffffffffffffffffff169060200190929190803590602001909291905050506108c6565b604051808215151515815260200191505060405180910390f35b6102976004803603604081101561027757600080fd5b8101908080359060200190929190803590602001909291905050506109b8565b6040518082815260200191505060405180910390f35b6102b56109da565b6040518082815260200191505060405180910390f35b610337600480360360608110156102e157600080fd5b81019080803573ffffffffffffffffffffffffffffffffffffffff169060200190929190803573ffffffffffffffffffffffffffffffffffffffff169060200190929190803590602001909291905050506109e0565b604051808215151515815260200191505060405180910390f35b6103936004803603602081101561036757600080fd5b81019080803573ffffffffffffffffffffffffffffffffffffffff169060200190929190505050610c5c565b6040518082815260200191505060405180910390f35b6103d5600480360360208110156103bf57600080fd5b8101908080359060200190929190505050610c74565b604051808273ffffffffffffffffffffffffffffffffffffffff1673ffffffffffffffffffffffffffffffffffffffff16815260200191505060405180910390f35b61041f610cb0565b6040518082815260200191505060405180910390f35b6104776004803603602081101561044b57600080fd5b81019080803573ffffffffffffffffffffffffffffffffffffffff169060200190929190505050610cb6565b604051808215151515815260200191505060405180910390f35b610499610d7b565b6040518082815260200191505060405180910390f35b6104b7610d81565b6040518082815260200191505060405180910390f35b6104d5610d8e565b6040518082815260200191505060405180910390f35b6105216004803603604081101561050157600080fd5b810190808035906020019092919080359060200190929190505050610d94565b005b61052b610ed6565b6040518082815260200191505060405180910390f35b6105836004803603602081101561055757600080fd5b81019080803573ffffffffffffffffffffffffffffffffffffffff169060200190929190505050611062565b6040518082815260200191505060405180910390f35b6105cf600480360360408110156105af57600080fd5b8101908080359060200190929190803590602001909291905050506110ab565b005b6105d96111ed565b6040518082815260200191505060405180910390f35b6105f76111f3565b6040518082815260200191505060405180910390f35b6106156111f9565b6040518080602001828103825283818151815260200191508051906020019080838360005b8381101561065557808201518184015260208101905061063a565b50505050905090810190601f1680156106825780820380516001836020036101000a031916815260200191505b509250505060405180910390f35b6106dc600480360360408110156106a657600080fd5b81019080803573ffffffffffffffffffffffffffffffffffffffff16906020019092919080359060200190929190505050611297565b604051808215151515815260200191505060405180910390f35b6106fe6114da565b604051808215151515815260200191505060405180910390f35b610720611889565b6040518082815260200191505060405180910390f35b61073e61188f565b6040518082815260200191505060405180910390f35b6107b66004803603604081101561076a57600080fd5b81019080803573ffffffffffffffffffffffffffffffffffffffff169060200190929190803573ffffffffffffffffffffffffffffffffffffffff169060200190929190505050611a1d565b6040518082815260200191505060405180910390f35b61080e600480360360208110156107e257600080fd5b81019080803573ffffffffffffffffffffffffffffffffffffffff169060200190929190505050611a42565b604051808215151515815260200191505060405180910390f35b600c8054600181600116156101000203166002900480601f0160208091040260200160405190810160405280929190818152602001828054600181600116156101000203166002900480156108be5780601f10610893576101008083540402835291602001916108be565b820191906000526020600020905b8154815290600101906020018083116108a157829003601f168201915b505050505081565b600081600760003373ffffffffffffffffffffffffffffffffffffffff1673ffffffffffffffffffffffffffffffffffffffff16815260200190815260200160002060008573ffffffffffffffffffffffffffffffffffffffff1673ffffffffffffffffffffffffffffffffffffffff168152602001908152602001600020819055508273ffffffffffffffffffffffffffffffffffffffff163373ffffffffffffffffffffffffffffffffffffffff167f8c5be1e5ebec7d5bd14f71427d1e84f3dd0314c0f7b2291e5b200ac8c7c3b925846040518082815260200191505060405180910390a36001905092915050565b6000806103e88484030290508381816109cd57fe5b0590508091505092915050565b600b5481565b6000816109ec85611062565b1015610a60576040517f08c379a000000000000000000000000000000000000000000000000000000000815260040180806020018281038252600f8152602001807f62616c616e636520746f6f206c6f77000000000000000000000000000000000081525060200191505060405180910390fd5b81600760008673ffffffffffffffffffffffffffffffffffffffff1673ffffffffffffffffffffffffffffffffffffffff16815260200190815260200160002060003373ffffffffffffffffffffffffffffffffffffffff1673ffffffffffffffffffffffffffffffffffffffff168152602001908152602001600020541015610b52576040517f08c379a00000000000000000000000000000000000000000000000000000000081526004018080602001828103825260118152602001807f616c6c6f77616e636520746f6f206c6f7700000000000000000000000000000081525060200191505060405180910390fd5b81600660008573ffffffffffffffffffffffffffffffffffffffff1673ffffffffffffffffffffffffffffffffffffffff1681526020019081526020016000206000828254019250508190555081600660008673ffffffffffffffffffffffffffffffffffffffff1673ffffffffffffffffffffffffffffffffffffffff168152602001908152602001600020600082825403925050819055508273ffffffffffffffffffffffffffffffffffffffff168473ffffffffffffffffffffffffffffffffffffffff167fddf252ad1be2c89b69c2b068fc378daa952ba7f163c4a11628f55a4df523b3ef846040518082815260200191505060405180910390a3600190509392505050565b60066020528060005260406000206000915090505481565b60088181548110610c8157fe5b906000526020600020016000915054906101000a900473ffffffffffffffffffffffffffffffffffffffff1681565b600a5481565b6000610cc182611a42565b610d7257600880549050600960008473ffffffffffffffffffffffffffffffffffffffff1673ffffffffffffffffffffffffffffffffffffffff168152602001908152602001600020819055506008829080600181540180825580915050600190039060005260206000200160009091909190916101000a81548173ffffffffffffffffffffffffffffffffffffffff021916908373ffffffffffffffffffffffffffffffffffffffff1602179055505b60019050919050565b60145481565b6000600880549050905090565b60155481565b816005600082815260200190815260200160002060009054906101000a900473ffffffffffffffffffffffffffffffffffffffff1673ffffffffffffffffffffffffffffffffffffffff163373ffffffffffffffffffffffffffffffffffffffff1614610e4c576040517f08c379a00000000000000000000000000000000000000000000000000000000081526004018080602001828103825260288152602001806127416028913960400191505060405180910390fd5b6005600082815260200190815260200160002060006101000a81549073ffffffffffffffffffffffffffffffffffffffff0219169055807f7cc135e0cebb02c3480ae5d74d377283180a2601f8f644edf7987b009316c63a60405160405180910390a28160108190555081600e81905550600060105414610ed157610ecf61188f565b505b505050565b6000610ee06125e4565b610ef460125430634357855e60e01b611a9e565b9050610f586040518060400160405280600381526020017f67657400000000000000000000000000000000000000000000000000000000008152506040518060800160405280605d815260200161268f605d913983611acf9092919063ffffffff16565b610fd76040518060400160405280600481526020017f70617468000000000000000000000000000000000000000000000000000000008152506040518060400160405280600781526020017f302e70726963650000000000000000000000000000000000000000000000000081525083611acf9092919063ffffffff16565b6000655af3107a4000905061102c6040518060400160405280600581526020017f74696d65730000000000000000000000000000000000000000000000000000008152508284611b029092919063ffffffff16565b61105b601160009054906101000a900473ffffffffffffffffffffffffffffffffffffffff1683601354611b35565b9250505090565b6000600660008373ffffffffffffffffffffffffffffffffffffffff1673ffffffffffffffffffffffffffffffffffffffff168152602001908152602001600020549050919050565b816005600082815260200190815260200160002060009054906101000a900473ffffffffffffffffffffffffffffffffffffffff1673ffffffffffffffffffffffffffffffffffffffff163373ffffffffffffffffffffffffffffffffffffffff1614611163576040517f08c379a00000000000000000000000000000000000000000000000000000000081526004018080602001828103825260288152602001806127416028913960400191505060405180910390fd5b6005600082815260200190815260200160002060006101000a81549073ffffffffffffffffffffffffffffffffffffffff0219169055807f7cc135e0cebb02c3480ae5d74d377283180a2601f8f644edf7987b009316c63a60405160405180910390a281600f8190555081600e819055506000600f54146111e8576111e66114da565b505b505050565b600f5481565b60105481565b600d8054600181600116156101000203166002900480601f01602080910402602001604051908101604052809291908181526020018280546001816001161561010002031660029004801561128f5780601f106112645761010080835404028352916020019161128f565b820191906000526020600020905b81548152906001019060200180831161127257829003601f168201915b505050505081565b6000816112a333611062565b1015611317576040517f08c379a000000000000000000000000000000000000000000000000000000000815260040180806020018281038252600f8152602001807f62616c616e636520746f6f206c6f77000000000000000000000000000000000081525060200191505060405180910390fd5b81600660008573ffffffffffffffffffffffffffffffffffffffff1673ffffffffffffffffffffffffffffffffffffffff1681526020019081526020016000206000828254019250508190555081600660003373ffffffffffffffffffffffffffffffffffffffff1673ffffffffffffffffffffffffffffffffffffffff168152602001908152602001600020600082825403925050819055506113ba83611a42565b61146b57600880549050600960008573ffffffffffffffffffffffffffffffffffffffff1673ffffffffffffffffffffffffffffffffffffffff168152602001908152602001600020819055506008839080600181540180825580915050600190039060005260206000200160009091909190916101000a81548173ffffffffffffffffffffffffffffffffffffffff021916908373ffffffffffffffffffffffffffffffffffffffff1602179055505b8273ffffffffffffffffffffffffffffffffffffffff163373ffffffffffffffffffffffffffffffffffffffff167fddf252ad1be2c89b69c2b068fc378daa952ba7f163c4a11628f55a4df523b3ef846040518082815260200191505060405180910390a36001905092915050565b600080600080600a9050600060099050600080600090506000662386f26fc10000905061150b601054600f546109b8565b9250806010548161151857fe5b04601081905550655af3107a4000600f548161153057fe5b04600f819055506000831415611550576001975050505050505050611886565b6000831215611583577fffffffffffffffffffffffffffffffffffffffffffffffffffffffffffffffff83029250600191505b61158c83611ded565b9650600b54870296506103e887816115a057fe5b0496506001151582151514156115c05786600b5403600b819055506115cc565b86600b5401600b819055505b60008090505b600880549050811015611879576115e884611ded565b965060066000600883815481106115fb57fe5b9060005260206000200160009054906101000a900473ffffffffffffffffffffffffffffffffffffffff1673ffffffffffffffffffffffffffffffffffffffff1673ffffffffffffffffffffffffffffffffffffffff16815260200190815260200160002054870296506103e8878161167057fe5b0496506001151583151514156117785786600660006008848154811061169257fe5b9060005260206000200160009054906101000a900473ffffffffffffffffffffffffffffffffffffffff1673ffffffffffffffffffffffffffffffffffffffff1673ffffffffffffffffffffffffffffffffffffffff1681526020019081526020016000205403600660006008848154811061170a57fe5b9060005260206000200160009054906101000a900473ffffffffffffffffffffffffffffffffffffffff1673ffffffffffffffffffffffffffffffffffffffff1673ffffffffffffffffffffffffffffffffffffffff1681526020019081526020016000208190555061186c565b86600660006008848154811061178a57fe5b9060005260206000200160009054906101000a900473ffffffffffffffffffffffffffffffffffffffff1673ffffffffffffffffffffffffffffffffffffffff1673ffffffffffffffffffffffffffffffffffffffff1681526020019081526020016000205401600660006008848154811061180257fe5b9060005260206000200160009054906101000a900473ffffffffffffffffffffffffffffffffffffffff1673ffffffffffffffffffffffffffffffffffffffff1673ffffffffffffffffffffffffffffffffffffffff168152602001908152602001600020819055505b80806001019150506115d2565b5060019750505050505050505b90565b600e5481565b60006118996125e4565b6118ad6012543063837e756060e01b611a9e565b90506119116040518060400160405280600381526020017f67657400000000000000000000000000000000000000000000000000000000008152506040518060800160405280605581526020016126ec6055913983611acf9092919063ffffffff16565b6119906040518060400160405280600481526020017f70617468000000000000000000000000000000000000000000000000000000008152506040518060400160405280600a81526020017f646174612e70726963650000000000000000000000000000000000000000000081525083611acf9092919063ffffffff16565b6000670de0b6b3a764000090506119e76040518060400160405280600581526020017f74696d65730000000000000000000000000000000000000000000000000000008152508284611b029092919063ffffffff16565b611a16601160009054906101000a900473ffffffffffffffffffffffffffffffffffffffff1683601354611b35565b9250505090565b6007602052816000526040600020602052806000526040600020600091509150505481565b600080600960008473ffffffffffffffffffffffffffffffffffffffff1673ffffffffffffffffffffffffffffffffffffffff168152602001908152602001600020541115611a945760019050611a99565b600090505b919050565b611aa66125e4565b611aae6125e4565b611ac585858584611e1b909392919063ffffffff16565b9150509392505050565b611ae6828460800151611ecb90919063ffffffff16565b611afd818460800151611ecb90919063ffffffff16565b505050565b611b19828460800151611ecb90919063ffffffff16565b611b30818460800151611ef090919063ffffffff16565b505050565b600030600454604051602001808373ffffffffffffffffffffffffffffffffffffffff1673ffffffffffffffffffffffffffffffffffffffff1660601b815260140182815260200192505050604051602081830303815290604052805190602001209050600454836060018181525050836005600083815260200190815260200160002060006101000a81548173ffffffffffffffffffffffffffffffffffffffff021916908373ffffffffffffffffffffffffffffffffffffffff160217905550807fb5e6e01e79f91267dc17b4e6314d5d4d03593d2ceee0fbb452b750bd70ea5af960405160405180910390a2600260009054906101000a900473ffffffffffffffffffffffffffffffffffffffff1673ffffffffffffffffffffffffffffffffffffffff16634000aea08584611c6d87611f94565b6040518463ffffffff1660e01b8152600401808473ffffffffffffffffffffffffffffffffffffffff1673ffffffffffffffffffffffffffffffffffffffff16815260200183815260200180602001828103825283818151815260200191508051906020019080838360005b83811015611cf4578082015181840152602081019050611cd9565b50505050905090810190601f168015611d215780820380516001836020036101000a031916815260200191505b50945050505050602060405180830381600087803b158015611d4257600080fd5b505af1158015611d56573d6000803e3d6000fd5b505050506040513d6020811015611d6c57600080fd5b8101908080519060200190929190505050611dd2576040517f08c379a000000000000000000000000000000000000000000000000000000000815260040180806020018281038252602381526020018061266c6023913960400191505060405180910390fd5b60016004600082825401925050819055508090509392505050565b600060ff6001901b821415611e0157600080fd5b60008212611e0f5781611e14565b816000035b9050919050565b611e236125e4565b611e338560800151610100612160565b508385600001818152505082856020019073ffffffffffffffffffffffffffffffffffffffff16908173ffffffffffffffffffffffffffffffffffffffff16815250508185604001907bffffffffffffffffffffffffffffffffffffffffffffffffffffffff191690817bffffffffffffffffffffffffffffffffffffffffffffffffffffffff191681525050849050949350505050565b611ed882600383516121b4565b611eeb81836122f990919063ffffffff16565b505050565b7fffffffffffffffffffffffffffffffffffffffffffffffff0000000000000000811215611f2757611f22828261231b565b611f90565b67ffffffffffffffff811315611f4657611f418282612389565b611f8f565b60008112611f5f57611f5a826000836121b4565b611f8e565b611f8d826001837fffffffffffffffffffffffffffffffffffffffffffffffffffffffffffffffff036121b4565b5b5b5b5050565b6060634042994660e01b60008084600001518560200151866040015187606001516001896080015160000151604051602401808973ffffffffffffffffffffffffffffffffffffffff1673ffffffffffffffffffffffffffffffffffffffff1681526020018881526020018781526020018673ffffffffffffffffffffffffffffffffffffffff1673ffffffffffffffffffffffffffffffffffffffff168152602001857bffffffffffffffffffffffffffffffffffffffffffffffffffffffff19167bffffffffffffffffffffffffffffffffffffffffffffffffffffffff1916815260200184815260200183815260200180602001828103825283818151815260200191508051906020019080838360005b838110156120c35780820151818401526020810190506120a8565b50505050905090810190601f1680156120f05780820380516001836020036101000a031916815260200191505b509950505050505050505050604051602081830303815290604052907bffffffffffffffffffffffffffffffffffffffffffffffffffffffff19166020820180517bffffffffffffffffffffffffffffffffffffffffffffffffffffffff83818316178352505050509050919050565b612168612651565b60006020838161217457fe5b061461218d576020828161218457fe5b06602003820191505b81836020018181525050604051808452600081528281016020016040525082905092915050565b601781116121e1576121db8160058460ff16901b60ff1617846123d590919063ffffffff16565b506122f4565b60ff811161222357612206601860058460ff16901b17846123d590919063ffffffff16565b5061221d816001856123f59092919063ffffffff16565b506122f3565b61ffff811161226657612249601960058460ff16901b17846123d590919063ffffffff16565b50612260816002856123f59092919063ffffffff16565b506122f2565b63ffffffff81116122ab5761228e601a60058460ff16901b17846123d590919063ffffffff16565b506122a5816004856123f59092919063ffffffff16565b506122f1565b67ffffffffffffffff81116122f0576122d7601b60058460ff16901b17846123d590919063ffffffff16565b506122ee816008856123f59092919063ffffffff16565b505b5b5b5b5b505050565b612301612651565b61231383846000015151848551612417565b905092915050565b61233960036005600660ff16901b17836123d590919063ffffffff16565b5061238582827fffffffffffffffffffffffffffffffffffffffffffffffffffffffffffffffff03604051602001808281526020019150506040516020818303038152906040526124d0565b5050565b6123a760026005600660ff16901b17836123d590919063ffffffff16565b506123d18282604051602001808281526020019150506040516020818303038152906040526124d0565b5050565b6123dd612651565b6123ed83846000015151846124f5565b905092915050565b6123fd612651565b61240e848560000151518585612543565b90509392505050565b61241f612651565b825182111561242d57600080fd5b846020015182850111156124585761245785600261245188602001518887016125a4565b026125c0565b5b6000808651805187602083010193508088870111156124775787860182525b60208701925050505b602084106124a35780518252602082019150602081019050602084039350612480565b60006001856020036101000a03905080198251168184511681811785525050879350505050949350505050565b6124dd82600283516121b4565b6124f081836122f990919063ffffffff16565b505050565b6124fd612651565b8360200151831061251a576125198460028660200151026125c0565b5b8351805160208583010184815381861415612536576001820183525b5050508390509392505050565b61254b612651565b8460200151848301111561256957612568856002868501026125c0565b5b60006001836101000a03905085518386820101858319825116178152815185880111156125965784870182525b505085915050949350505050565b6000818311156125b6578290506125ba565b8190505b92915050565b6060826000015190506125d38383612160565b506125de83826122f9565b50505050565b6040518060a0016040528060008019168152602001600073ffffffffffffffffffffffffffffffffffffffff16815260200160007bffffffffffffffffffffffffffffffffffffffffffffffffffffffff191681526020016000815260200161264b612651565b81525090565b60405180604001604052806060815260200160008152509056fe756e61626c6520746f207472616e73666572416e6443616c6c20746f206f7261636c6568747470733a2f2f66696e616e6369616c6d6f64656c696e67707265702e636f6d2f6170692f76332f71756f74652f2535454e44583f6170696b65793d373638306639383161323435653432326431366531363232623462616330376568747470733a2f2f6170692e70616e63616b65737761702e696e666f2f6170692f76322f746f6b656e732f307830396164323730313230643837336132623266616230623031646666303063363739383830393139536f75726365206d75737420626520746865206f7261636c65206f66207468652072657175657374a2646970667358221220d7296a57471f09a4fbbf921aed3bdad5889b1f8a96f824ace230d75a618b7fa964736f6c63430006070033",
  "immutableReferences": {},
  "source": "pragma solidity ^0.6.7;\nimport \"@chainlink/contracts/src/v0.6/ChainlinkClient.sol\";\n\nimport \"./lib/SafeMathInt.sol\";\nimport \"./lib/UInt256Lib.sol\";\n\n\n\n\ncontract IndexProtocol is ChainlinkClient{\n    // using SafeMath for uint256;\n    using SafeMathInt for int256;\n    using UInt256Lib for uint256;\n    \n    mapping(address => uint) public balances;\n    \n    mapping(address => mapping(address => uint)) public allowance;\n    \n    address[] public holders;\n    mapping (address => uint) index;\n    \n    uint public decimals = 18;\n    uint public totalSupply = 100000 * 10 ** decimals;\n    string public name = \"IndexProtocol\";\n    string public symbol = \"INDX\";\n    \n    //oracle stuff\n    uint256 public volume;\n    uint256 public oracleMarket;\n    uint256 public oracleTarget;\n    \n    address private oracle;\n    bytes32 private jobId;\n    uint256 private fee;\n    \n    \n    uint public totalShares;\n    uint public sharesPer;\n    \n    event Transfer(address indexed from, address indexed to, uint value);\n    \n    event Approval(address indexed owner, address indexed spender, uint value);\n    \n    constructor() public {\n        balances[msg.sender] = totalSupply;\n        holders.push(msg.sender);\n        index[msg.sender] = holders.length;\n        \n        //oracle stuff \n        setPublicChainlinkToken();\n        oracle = 0x3A56aE4a2831C3d3514b5D7Af5578E45eBDb7a40;\n        jobId = \"3b7ca0d48c7a4b2da9268456665d11ae\";\n        fee = 0.1 * 10 ** 18; // 0.1 LINK\n        \n        \n        \n        // totalShares = totalSupply;\n        // sharesPer = totalShares/totalSupply;\n        // shareBalances[msg.sender] = totalShares;\n        \n        // balances[0xfC2782122A7870811bd5864Ea9C5c67F1d48e863] = 1000;\n        // holders.push(0xfC2782122A7870811bd5864Ea9C5c67F1d48e863);\n        // index[0xfC2782122A7870811bd5864Ea9C5c67F1d48e863] = holders.length;\n    }\n    \n    function balanceOf(address owner) public view returns(uint){\n        \n        return balances[owner];\n        \n    }\n    \n    function transfer(address to, uint value) public returns(bool){\n        \n        require(balanceOf(msg.sender)>=value, 'balance too low');\n        balances[to] += value;\n        balances[msg.sender] -= value;\n        \n        // uint shareValue = value * sharesPer;\n        // shareBalances[msg.sender] = shareBalances[msg.sender] - shareValue;\n        // shareBalances[to] = shareBalances[to] + shareValue;\n        \n        if (!inArray(to)) {\n            // Append\n            index[to] = holders.length;\n            holders.push(to);\n        }\n        \n        \n        \n        emit Transfer(msg.sender, to, value);\n        return true;\n        \n    }\n    \n    \n    function transferFrom(address from, address to, uint value) public returns(bool){\n        require(balanceOf(from) >= value, 'balance too low');\n        require(allowance[from][msg.sender] >= value, 'allowance too low');\n        balances[to] += value;\n        balances[from] -= value;\n        \n        \n        emit Transfer(from, to, value);\n        return true;\n    }\n    \n    function approve(address spender, uint value) public returns(bool){\n        allowance[msg.sender][spender] = value;\n        emit Approval(msg.sender, spender, value);\n        return true;\n    }\n    \n    \n    \n    function addAddress(address who) public returns (bool){\n        \n        if (!inArray(who)) {\n            // Append\n            index[who] = holders.length;\n            holders.push(who);\n        }\n        \n        return true;\n    }\n    \n    function countAddress() public view returns (uint){\n        return holders.length;\n    }\n    \n   \n    \n    function inArray(address who) public view returns (bool) {\n        // address 0x0 is not valid if pos is 0 is not in the array\n        if (index[who] > 0) {\n            return true;\n        }\n        return false;\n    }\n    \n    function deltaChange(uint targetPrice, uint marketPrice) public returns (int){\n        \n        int change = (int(marketPrice) - int(targetPrice)) * 1000;\n        change = (change / int(targetPrice));\n        return change;\n        \n        // return (int(x) / 1000) * -500;\n    }\n    \n    \n    \n    function rebase() public returns (bool){\n        \n        // uint256 change = 1;\n        uint256 supplyDelta;\n        uint256 userDelta;\n        uint256 targetPrice = 10;\n        uint256 marketPrice = 9;\n        int256 change;\n        bool neg = false;\n        \n        \n        uint timesAmount = 10**16;\n        //oracleTarget = oracleTarget / timesAmount;\n        //oracleMarket = oracleMarket / timesAmount;\n        //oracleTarget = 10 * timesAmount;\n        //oracleMarket = 5 * timesAmount;\n        \n        \n        change = deltaChange(oracleTarget, oracleMarket);\n        \n        oracleTarget = oracleTarget / timesAmount;\n        oracleMarket = oracleMarket / 10**14;\n        \n        if (change == 0){\n            //No rebase needed\n            return true;\n        }\n        \n        if (change < 0) {\n            change = change * -1;\n            neg = true;\n            }\n            \n        supplyDelta = uint256(change.abs());\n        supplyDelta *= totalSupply;\n        supplyDelta /= 1000;\n        //supplyDelta /= timesAmount;\n        \n        //Split or merge token supply\n        if (neg == true){\n            totalSupply = totalSupply - supplyDelta;\n        } else{\n            totalSupply = totalSupply + supplyDelta;\n        }\n        \n        \n        //Split or merge user balance\n        for (uint i = 0; i < holders.length; i++) {\n            \n            userDelta = uint256(change.abs());\n            userDelta *= balances[holders[i]];\n            userDelta /= 1000;\n            //userDelta /= timesAmount;\n       \n            //rebase user supply\n            if (neg == true){\n                balances[holders[i]] = balances[holders[i]] - userDelta;\n            } else{\n                balances[holders[i]] = balances[holders[i]] + userDelta;\n            }\n            \n        }\n        return true;\n    }\n    \n    //oracle stuff\n    function startRebase() public returns (bytes32 requestId) \n    {\n        Chainlink.Request memory request = buildChainlinkRequest(jobId, address(this), this.fulfill.selector);\n        \n        request.add(\"get\", \"https://financialmodelingprep.com/api/v3/quote/%5ENDX?apikey=7680f981a245e422d16e1622b4bac07e\");\n        //request.add(\"get\", \"https://api.pancakeswap.info/api/v2/tokens/0x09ad270120d873a2b2fab0b01dff00c679880919\");\n        \n        \n        request.add(\"path\", \"0.price\");\n        \n        \n        \n        // Multiply the result by 1000000000000000000 to remove decimals\n        int timesAmount = 10**14;\n        request.addInt(\"times\", timesAmount);\n        \n        // Sends the request\n        return sendChainlinkRequestTo(oracle, request, fee);\n    }\n    function fulfill(bytes32 _requestId, uint256 _volume) public recordChainlinkFulfillment(_requestId)\n    {\n        oracleTarget = _volume;\n        volume = _volume;\n        if (oracleTarget != 0){\n            oracleMarketPrice();\n        }\n        \n    }\n    function oracleMarketPrice() public returns (bytes32 requestId) \n    {\n        Chainlink.Request memory request = buildChainlinkRequest(jobId, address(this), this.fulfillMarket.selector);\n        \n        //https://financialmodelingprep.com/api/v3/quote/%5ENDX?apikey=7680f981a245e422d16e1622b4bac07e\n        //request.add(\"get\", \"https://api.pancakeswap.info/api/v2/tokens/0x7130d2A12B9BCbFAe4f2634d864A1Ee1Ce3Ead9c\");\n        \n        \n        request.add(\"get\", \"https://api.pancakeswap.info/api/v2/tokens/0x09ad270120d873a2b2fab0b01dff00c679880919\");\n        \n        \n        request.add(\"path\", \"data.price\");\n        \n        // Multiply the result by 1000000000000000000 to remove decimals\n        int timesAmount = 10**18;\n        request.addInt(\"times\", timesAmount);\n        \n        // Sends the request\n        return sendChainlinkRequestTo(oracle, request, fee);\n    }\n    function fulfillMarket(bytes32 _requestId, uint256 _volume) public recordChainlinkFulfillment(_requestId)\n    {\n        oracleMarket = _volume;\n        volume = _volume;\n        if (oracleMarket != 0){\n            rebase();\n        }\n        \n    }\n    \n    \n    \n}\n// pragma solidity ^0.8.6;\n\n// import \"./lib/SafeMathInt.sol\";\n// import \"./lib/UInt256Lib.sol\";\n\n\n// contract IndexProtocol {\n//     // using SafeMath for uint256;\n//     using SafeMathInt for int256;\n//     using UInt256Lib for uint256;\n    \n//     mapping(address => uint) public balances;\n    \n//     mapping(address => mapping(address => uint)) public allowance;\n    \n//     address[] public holders;\n//     mapping (address => uint) index;\n    \n//     uint public decimals = 18;\n//     uint public totalSupply = 100000 * 10 ** decimals;\n//     string public name = \"IndexProtocol\";\n//     string public symbol = \"INDX\";\n    \n    \n//     uint public totalShares;\n//     uint public sharesPer;\n    \n//     event Transfer(address indexed from, address indexed to, uint value);\n    \n//     event Approval(address indexed owner, address indexed spender, uint value);\n    \n//     constructor(){\n//         balances[msg.sender] = totalSupply;\n//         holders.push(msg.sender);\n//         index[msg.sender] = holders.length;\n//         // totalShares = totalSupply;\n//         // sharesPer = totalShares/totalSupply;\n//         // shareBalances[msg.sender] = totalShares;\n        \n//         // balances[0xfC2782122A7870811bd5864Ea9C5c67F1d48e863] = 1000;\n//         // holders.push(0xfC2782122A7870811bd5864Ea9C5c67F1d48e863);\n//         // index[0xfC2782122A7870811bd5864Ea9C5c67F1d48e863] = holders.length;\n//     }\n    \n//     function balanceOf(address owner) public view returns(uint){\n        \n//         return balances[owner];\n        \n//     }\n    \n//     function transfer(address to, uint value) public returns(bool){\n        \n//         require(balanceOf(msg.sender)>=value, 'balance too low');\n//         balances[to] += value;\n//         balances[msg.sender] -= value;\n        \n//         // uint shareValue = value * sharesPer;\n//         // shareBalances[msg.sender] = shareBalances[msg.sender] - shareValue;\n//         // shareBalances[to] = shareBalances[to] + shareValue;\n        \n//         if (!inArray(to)) {\n//             // Append\n//             index[to] = holders.length;\n//             holders.push(to);\n//         }\n        \n        \n        \n//         emit Transfer(msg.sender, to, value);\n//         return true;\n        \n//     }\n    \n    \n//     function transferFrom(address from, address to, uint value) public returns(bool){\n//         require(balanceOf(from) >= value, 'balance too low');\n//         require(allowance[from][msg.sender] >= value, 'allowance too low');\n//         balances[to] += value;\n//         balances[from] -= value;\n        \n        \n//         emit Transfer(from, to, value);\n//         return true;\n//     }\n    \n//     function approve(address spender, uint value) public returns(bool){\n//         allowance[msg.sender][spender] = value;\n//         emit Approval(msg.sender, spender, value);\n//         return true;\n//     }\n    \n    \n    \n//     function addAddress(address who) public returns (bool){\n        \n//         if (!inArray(who)) {\n//             // Append\n//             index[who] = holders.length;\n//             holders.push(who);\n//         }\n        \n//         return true;\n//     }\n    \n//     function countAddress() public view returns (uint){\n//         return holders.length;\n//     }\n    \n   \n    \n//     function inArray(address who) public view returns (bool) {\n//         // address 0x0 is not valid if pos is 0 is not in the array\n//         if (index[who] > 0) {\n//             return true;\n//         }\n//         return false;\n//     }\n    \n//     function deltaChange(uint targetPrice, uint marketPrice) public returns (int){\n        \n//         int change = (int(marketPrice) - int(targetPrice)) * 1000;\n//         change = (change / int(targetPrice));\n//         return change;\n        \n//         // return (int(x) / 1000) * -500;\n//     }\n    \n    \n    \n//     function rebase(uint256 targetPrice, uint256 marketPrice) public returns (bool){\n        \n//         // uint256 change = 1;\n//         uint256 supplyDelta;\n//         uint256 userDelta;\n//         // uint256 targetPrice = 10;\n//         // uint256 marketPrice = 9;\n//         int256 change;\n//         bool neg = false;\n        \n//         change = deltaChange(targetPrice, marketPrice);\n        \n//         if (change == 0){\n//             //No rebase needed\n//             return true;\n//         }\n        \n//         if (change < 0) {\n//             change = change * -1;\n//             neg = true;\n//             }\n            \n//         supplyDelta = uint256(change.abs());\n//         supplyDelta *= totalSupply;\n//         supplyDelta /= 1000;\n        \n//         //Split or merge token supply\n//         if (neg == true){\n//             totalSupply = totalSupply - supplyDelta;\n//         } else{\n//             totalSupply = totalSupply + supplyDelta;\n//         }\n        \n        \n//         //Split or merge user balance\n//         for (uint i = 0; i < holders.length; i++) {\n            \n//             userDelta = uint256(change.abs());\n//             userDelta *= balances[holders[i]];\n//             userDelta /= 1000;\n       \n//             //rebase user supply\n//             if (neg == true){\n//                 balances[holders[i]] = balances[holders[i]] - userDelta;\n//             } else{\n//                 balances[holders[i]] = balances[holders[i]] + userDelta;\n//             }\n            \n//         }\n//         return true;\n//     }\n    \n    \n    \n// }",
  "sourcePath": "/Users/mac/Desktop/repos/indexprotocol/contracts/IndexProtocol.sol",
  "compiler": {
    "name": "solc",
    "version": "0.6.7+commit.b8d736ae.Emscripten.clang"
  },
  "schemaVersion": "3.4.2",
  "updatedAt": "2021-08-01T15:29:33.207Z",
  "networkType": "ethereum",
  "devdoc": {
    "methods": {}
  },
  "userdoc": {
    "methods": {}
  }
}