{
  "contractName": "Oracle",
  "abi": [
    {
      "inputs": [],
      "stateMutability": "nonpayable",
      "type": "constructor"
    },
    {
      "anonymous": false,
      "inputs": [
        {
          "indexed": true,
          "internalType": "address",
          "name": "owner",
          "type": "address"
        },
        {
          "indexed": true,
          "internalType": "address",
          "name": "spender",
          "type": "address"
        },
        {
          "indexed": false,
          "internalType": "uint256",
          "name": "value",
          "type": "uint256"
        }
      ],
      "name": "Approval",
      "type": "event"
    },
    {
      "anonymous": false,
      "inputs": [
        {
          "indexed": true,
          "internalType": "bytes32",
          "name": "id",
          "type": "bytes32"
        }
      ],
      "name": "ChainlinkCancelled",
      "type": "event"
    },
    {
      "anonymous": false,
      "inputs": [
        {
          "indexed": true,
          "internalType": "bytes32",
          "name": "id",
          "type": "bytes32"
        }
      ],
      "name": "ChainlinkFulfilled",
      "type": "event"
    },
    {
      "anonymous": false,
      "inputs": [
        {
          "indexed": true,
          "internalType": "bytes32",
          "name": "id",
          "type": "bytes32"
        }
      ],
      "name": "ChainlinkRequested",
      "type": "event"
    },
    {
      "anonymous": false,
      "inputs": [
        {
          "indexed": true,
          "internalType": "address",
          "name": "caller",
          "type": "address"
        },
        {
          "indexed": false,
          "internalType": "uint256",
          "name": "targetPrice",
          "type": "uint256"
        },
        {
          "indexed": false,
          "internalType": "uint256",
          "name": "marketPrice",
          "type": "uint256"
        },
        {
          "indexed": false,
          "internalType": "uint256",
          "name": "change",
          "type": "uint256"
        }
      ],
      "name": "Rebase",
      "type": "event"
    },
    {
      "anonymous": false,
      "inputs": [
        {
          "indexed": true,
          "internalType": "address",
          "name": "from",
          "type": "address"
        },
        {
          "indexed": true,
          "internalType": "address",
          "name": "to",
          "type": "address"
        },
        {
          "indexed": false,
          "internalType": "uint256",
          "name": "value",
          "type": "uint256"
        }
      ],
      "name": "Transfer",
      "type": "event"
    },
    {
      "inputs": [],
      "name": "FACTORY",
      "outputs": [
        {
          "internalType": "address",
          "name": "",
          "type": "address"
        }
      ],
      "stateMutability": "view",
      "type": "function",
      "constant": true
    },
    {
      "inputs": [
        {
          "internalType": "address",
          "name": "who",
          "type": "address"
        }
      ],
      "name": "addAddress",
      "outputs": [
        {
          "internalType": "bool",
          "name": "",
          "type": "bool"
        }
      ],
      "stateMutability": "nonpayable",
      "type": "function"
    },
    {
      "inputs": [
        {
          "internalType": "address",
          "name": "",
          "type": "address"
        },
        {
          "internalType": "address",
          "name": "",
          "type": "address"
        }
      ],
      "name": "allowance",
      "outputs": [
        {
          "internalType": "uint256",
          "name": "",
          "type": "uint256"
        }
      ],
      "stateMutability": "view",
      "type": "function",
      "constant": true
    },
    {
      "inputs": [
        {
          "internalType": "address",
          "name": "spender",
          "type": "address"
        },
        {
          "internalType": "uint256",
          "name": "value",
          "type": "uint256"
        }
      ],
      "name": "approve",
      "outputs": [
        {
          "internalType": "bool",
          "name": "",
          "type": "bool"
        }
      ],
      "stateMutability": "nonpayable",
      "type": "function"
    },
    {
      "inputs": [
        {
          "internalType": "address",
          "name": "owner",
          "type": "address"
        }
      ],
      "name": "balanceOf",
      "outputs": [
        {
          "internalType": "uint256",
          "name": "",
          "type": "uint256"
        }
      ],
      "stateMutability": "view",
      "type": "function",
      "constant": true
    },
    {
      "inputs": [
        {
          "internalType": "address",
          "name": "",
          "type": "address"
        }
      ],
      "name": "balances",
      "outputs": [
        {
          "internalType": "uint256",
          "name": "",
          "type": "uint256"
        }
      ],
      "stateMutability": "view",
      "type": "function",
      "constant": true
    },
    {
      "inputs": [],
      "name": "countAddress",
      "outputs": [
        {
          "internalType": "uint256",
          "name": "",
          "type": "uint256"
        }
      ],
      "stateMutability": "view",
      "type": "function",
      "constant": true
    },
    {
      "inputs": [],
      "name": "decimals",
      "outputs": [
        {
          "internalType": "uint256",
          "name": "",
          "type": "uint256"
        }
      ],
      "stateMutability": "view",
      "type": "function",
      "constant": true
    },
    {
      "inputs": [
        {
          "internalType": "uint256",
          "name": "targetPrice",
          "type": "uint256"
        },
        {
          "internalType": "uint256",
          "name": "marketPrice",
          "type": "uint256"
        }
      ],
      "name": "deltaChange",
      "outputs": [
        {
          "internalType": "int256",
          "name": "",
          "type": "int256"
        }
      ],
      "stateMutability": "nonpayable",
      "type": "function"
    },
    {
      "inputs": [
        {
          "internalType": "uint256",
          "name": "",
          "type": "uint256"
        }
      ],
      "name": "holders",
      "outputs": [
        {
          "internalType": "address",
          "name": "",
          "type": "address"
        }
      ],
      "stateMutability": "view",
      "type": "function",
      "constant": true
    },
    {
      "inputs": [
        {
          "internalType": "address",
          "name": "who",
          "type": "address"
        }
      ],
      "name": "inArray",
      "outputs": [
        {
          "internalType": "bool",
          "name": "",
          "type": "bool"
        }
      ],
      "stateMutability": "view",
      "type": "function",
      "constant": true
    },
    {
      "inputs": [],
      "name": "name",
      "outputs": [
        {
          "internalType": "string",
          "name": "",
          "type": "string"
        }
      ],
      "stateMutability": "view",
      "type": "function",
      "constant": true
    },
    {
      "inputs": [],
      "name": "oracleMarket",
      "outputs": [
        {
          "internalType": "uint256",
          "name": "",
          "type": "uint256"
        }
      ],
      "stateMutability": "view",
      "type": "function",
      "constant": true
    },
    {
      "inputs": [],
      "name": "oracleTarget",
      "outputs": [
        {
          "internalType": "uint256",
          "name": "",
          "type": "uint256"
        }
      ],
      "stateMutability": "view",
      "type": "function",
      "constant": true
    },
    {
      "inputs": [],
      "name": "price",
      "outputs": [
        {
          "internalType": "uint256",
          "name": "",
          "type": "uint256"
        }
      ],
      "stateMutability": "view",
      "type": "function",
      "constant": true
    },
    {
      "inputs": [
        {
          "internalType": "uint256",
          "name": "oracleTarget",
          "type": "uint256"
        },
        {
          "internalType": "uint256",
          "name": "oracleMarket",
          "type": "uint256"
        }
      ],
      "name": "rebasefunction",
      "outputs": [
        {
          "internalType": "bool",
          "name": "",
          "type": "bool"
        }
      ],
      "stateMutability": "nonpayable",
      "type": "function"
    },
    {
      "inputs": [],
      "name": "symbol",
      "outputs": [
        {
          "internalType": "string",
          "name": "",
          "type": "string"
        }
      ],
      "stateMutability": "view",
      "type": "function",
      "constant": true
    },
    {
      "inputs": [],
      "name": "totalSupply",
      "outputs": [
        {
          "internalType": "uint256",
          "name": "",
          "type": "uint256"
        }
      ],
      "stateMutability": "view",
      "type": "function",
      "constant": true
    },
    {
      "inputs": [
        {
          "internalType": "address",
          "name": "to",
          "type": "address"
        },
        {
          "internalType": "uint256",
          "name": "value",
          "type": "uint256"
        }
      ],
      "name": "transfer",
      "outputs": [
        {
          "internalType": "bool",
          "name": "",
          "type": "bool"
        }
      ],
      "stateMutability": "nonpayable",
      "type": "function"
    },
    {
      "inputs": [
        {
          "internalType": "address",
          "name": "from",
          "type": "address"
        },
        {
          "internalType": "address",
          "name": "to",
          "type": "address"
        },
        {
          "internalType": "uint256",
          "name": "value",
          "type": "uint256"
        }
      ],
      "name": "transferFrom",
      "outputs": [
        {
          "internalType": "bool",
          "name": "",
          "type": "bool"
        }
      ],
      "stateMutability": "nonpayable",
      "type": "function"
    },
    {
      "inputs": [],
      "name": "uniswapV3PoolAddress",
      "outputs": [
        {
          "internalType": "address",
          "name": "",
          "type": "address"
        }
      ],
      "stateMutability": "view",
      "type": "function",
      "constant": true
    },
    {
      "inputs": [],
      "name": "volume",
      "outputs": [
        {
          "internalType": "uint256",
          "name": "",
          "type": "uint256"
        }
      ],
      "stateMutability": "view",
      "type": "function",
      "constant": true
    },
    {
      "inputs": [],
      "name": "query",
      "outputs": [
        {
          "internalType": "bytes32",
          "name": "requestId",
          "type": "bytes32"
        }
      ],
      "stateMutability": "nonpayable",
      "type": "function"
    },
    {
      "inputs": [
        {
          "internalType": "bytes32",
          "name": "_requestId",
          "type": "bytes32"
        },
        {
          "internalType": "uint256",
          "name": "_price",
          "type": "uint256"
        }
      ],
      "name": "fulfill",
      "outputs": [],
      "stateMutability": "nonpayable",
      "type": "function"
    },
    {
      "inputs": [],
      "name": "oracleMarketPrice",
      "outputs": [
        {
          "internalType": "bytes32",
          "name": "requestId",
          "type": "bytes32"
        }
      ],
      "stateMutability": "nonpayable",
      "type": "function"
    },
    {
      "inputs": [
        {
          "internalType": "bytes32",
          "name": "_requestId",
          "type": "bytes32"
        },
        {
          "internalType": "uint256",
          "name": "_volume",
          "type": "uint256"
        }
      ],
      "name": "fulfillMarket",
      "outputs": [],
      "stateMutability": "nonpayable",
      "type": "function"
    },
    {
      "inputs": [
        {
          "internalType": "uint32",
          "name": "s0",
          "type": "uint32"
        },
        {
          "internalType": "uint32",
          "name": "s1",
          "type": "uint32"
        },
        {
          "internalType": "address",
          "name": "pool",
          "type": "address"
        }
      ],
      "name": "marketOracle",
      "outputs": [
        {
          "internalType": "uint160",
          "name": "",
          "type": "uint160"
        }
      ],
      "stateMutability": "nonpayable",
      "type": "function"
    },
    {
      "inputs": [],
      "name": "callRebase",
      "outputs": [],
      "stateMutability": "nonpayable",
      "type": "function"
    },
    {
      "inputs": [],
      "name": "mtest",
      "outputs": [
        {
          "internalType": "uint160",
          "name": "",
          "type": "uint160"
        }
      ],
      "stateMutability": "view",
      "type": "function",
      "constant": true
    },
    {
      "inputs": [
        {
          "internalType": "address",
          "name": "token1",
          "type": "address"
        },
        {
          "internalType": "address",
          "name": "token2",
          "type": "address"
        }
      ],
      "name": "getPool",
      "outputs": [
        {
          "internalType": "address",
          "name": "",
          "type": "address"
        }
      ],
      "stateMutability": "view",
      "type": "function",
      "constant": true
    }
  ],
  "bytecode": "0x608060405260016004556012600a55600a54600a6200001f9190620004fe565b620186a06200002f91906200063b565b600b556040518060400160405280600d81526020017f496e64657850726f746f636f6c00000000000000000000000000000000000000815250600c90805190602001906200007f929190620003b0565b506040518060400160405280600481526020017f494e445800000000000000000000000000000000000000000000000000000000815250600d9080519060200190620000cd929190620003b0565b50348015620000db57600080fd5b50600b54600660003373ffffffffffffffffffffffffffffffffffffffff1673ffffffffffffffffffffffffffffffffffffffff168152602001908152602001600020819055506008339080600181540180825580915050600190039060005260206000200160009091909190916101000a81548173ffffffffffffffffffffffffffffffffffffffff021916908373ffffffffffffffffffffffffffffffffffffffff160217905550600880549050600960003373ffffffffffffffffffffffffffffffffffffffff1673ffffffffffffffffffffffffffffffffffffffff16815260200190815260200160002081905550620001de620002c460201b60201c565b733a56ae4a2831c3d3514b5d7af5578e45ebdb7a40600e60006101000a81548173ffffffffffffffffffffffffffffffffffffffff021916908373ffffffffffffffffffffffffffffffffffffffff1602179055507f3362376361306434386337613462326461393236383435363636356431316165600f8190555067016345785d8a000060108190555073eecac0f984c6b69888c63d681a1731c4ac79bdc9601560006101000a81548173ffffffffffffffffffffffffffffffffffffffff021916908373ffffffffffffffffffffffffffffffffffffffff16021790555062000795565b6200036a73c89bd4e1632d3a43cb03aaad5262cbe4038bc57173ffffffffffffffffffffffffffffffffffffffff166338cc48316040518163ffffffff1660e01b815260040160206040518083038186803b1580156200032357600080fd5b505afa15801562000338573d6000803e3d6000fd5b505050506040513d601f19601f820116820180604052508101906200035e919062000477565b6200036c60201b60201c565b565b80600260006101000a81548173ffffffffffffffffffffffffffffffffffffffff021916908373ffffffffffffffffffffffffffffffffffffffff16021790555050565b828054620003be90620006da565b90600052602060002090601f016020900481019282620003e257600085556200042e565b82601f10620003fd57805160ff19168380011785556200042e565b828001600101855582156200042e579182015b828111156200042d57825182559160200191906001019062000410565b5b5090506200043d919062000441565b5090565b5b808211156200045c57600081600090555060010162000442565b5090565b60008151905062000471816200077b565b92915050565b6000602082840312156200048a57600080fd5b60006200049a8482850162000460565b91505092915050565b6000808291508390505b6001851115620004f557808604811115620004cd57620004cc62000710565b5b6001851615620004dd5780820291505b8081029050620004ed856200076e565b9450620004ad565b94509492505050565b60006200050b82620006d0565b91506200051883620006d0565b9250620005477fffffffffffffffffffffffffffffffffffffffffffffffffffffffffffffffff84846200054f565b905092915050565b60008262000561576001905062000634565b8162000571576000905062000634565b81600181146200058a57600281146200059557620005cb565b600191505062000634565b60ff841115620005aa57620005a962000710565b5b8360020a915084821115620005c457620005c362000710565b5b5062000634565b5060208310610133831016604e8410600b8410161715620006055782820a905083811115620005ff57620005fe62000710565b5b62000634565b620006148484846001620004a3565b925090508184048111156200062e576200062d62000710565b5b81810290505b9392505050565b60006200064882620006d0565b91506200065583620006d0565b9250817fffffffffffffffffffffffffffffffffffffffffffffffffffffffffffffffff048311821515161562000691576200069062000710565b5b828202905092915050565b6000620006a982620006b0565b9050919050565b600073ffffffffffffffffffffffffffffffffffffffff82169050919050565b6000819050919050565b60006002820490506001821680620006f357607f821691505b602082108114156200070a57620007096200073f565b5b50919050565b7f4e487b7100000000000000000000000000000000000000000000000000000000600052601160045260246000fd5b7f4e487b7100000000000000000000000000000000000000000000000000000000600052602260045260246000fd5b60008160011c9050919050565b62000786816200069c565b81146200079257600080fd5b50565b6146e380620007a56000396000f3fe608060405234801561001057600080fd5b50600436106101da5760003560e01c806370a082311161010457806395d89b41116100a2578063c618a1e411610071578063c618a1e414610599578063cd121b6b146105b7578063dd62ed3e146105d5578063deac465914610605576101da565b806395d89b4114610523578063a035b1fe14610541578063a588d7d21461055f578063a9059cbb14610569576101da565b8063867bf465116100de578063867bf465146104ab5780638de079d9146104c95780638fa31b3b146104e7578063902609ed14610505576101da565b806370a082311461042f5780637d3f38511461045f578063837e75601461048f576101da565b80632c46b2051161017c57806342154e9c1161014b57806342154e9c146103955780634357855e146103b3578063485894f9146103cf578063531aa03e146103ff576101da565b80632c46b2051461030b5780632dd3100014610329578063313ce5671461034757806338eada1c14610365576101da565b806318160ddd116101b857806318160ddd1461025d57806323b872dd1461027b57806327e235e3146102ab5780632a11ced0146102db576101da565b806306fdde03146101df578063095ea7b3146101fd57806311d1ab6b1461022d575b600080fd5b6101e7610635565b6040516101f49190613999565b60405180910390f35b6102176004803603810190610212919061333b565b6106c3565b6040516102249190613948565b60405180910390f35b61024760048036038101906102429190613471565b6107b5565b604051610254919061397e565b60405180910390f35b6102656107ec565b6040516102729190613a56565b60405180910390f35b610295600480360381019061029091906132ec565b6107f2565b6040516102a29190613948565b60405180910390f35b6102c560048036038101906102c0919061325e565b610a1a565b6040516102d29190613a56565b60405180910390f35b6102f560048036038101906102f09190613448565b610a32565b6040516103029190613811565b60405180910390f35b610313610a71565b6040516103209190613963565b60405180910390f35b610331610bf7565b60405161033e9190613811565b60405180910390f35b61034f610c0f565b60405161035c9190613a56565b60405180910390f35b61037f600480360381019061037a919061325e565b610c15565b60405161038c9190613948565b60405180910390f35b61039d610cda565b6040516103aa9190613a56565b60405180910390f35b6103cd60048036038101906103c8919061340c565b610ce7565b005b6103e960048036038101906103e49190613471565b610e3a565b6040516103f69190613948565b60405180910390f35b610419600480360381019061041491906132b0565b611319565b6040516104269190613811565b60405180910390f35b6104496004803603810190610444919061325e565b6113cb565b6040516104569190613a56565b60405180910390f35b610479600480360381019061047491906134ad565b611414565b6040516104869190613a3b565b60405180910390f35b6104a960048036038101906104a4919061340c565b6117f7565b005b6104b3611929565b6040516104c09190613a56565b60405180910390f35b6104d161192f565b6040516104de9190613a56565b60405180910390f35b6104ef611935565b6040516104fc9190613a3b565b60405180910390f35b61050d611cac565b60405161051a9190613811565b60405180910390f35b61052b611cd2565b6040516105389190613999565b60405180910390f35b610549611d60565b6040516105569190613a56565b60405180910390f35b610567611d66565b005b610583600480360381019061057e919061333b565b611d77565b6040516105909190613948565b60405180910390f35b6105a1611f99565b6040516105ae9190613a56565b60405180910390f35b6105bf611f9f565b6040516105cc9190613963565b60405180910390f35b6105ef60048036038101906105ea91906132b0565b612126565b6040516105fc9190613a56565b60405180910390f35b61061f600480360381019061061a919061325e565b61214b565b60405161062c9190613948565b60405180910390f35b600c805461064290614307565b80601f016020809104026020016040519081016040528092919081815260200182805461066e90614307565b80156106bb5780601f10610690576101008083540402835291602001916106bb565b820191906000526020600020905b81548152906001019060200180831161069e57829003601f168201915b505050505081565b600081600760003373ffffffffffffffffffffffffffffffffffffffff1673ffffffffffffffffffffffffffffffffffffffff16815260200190815260200160002060008573ffffffffffffffffffffffffffffffffffffffff1673ffffffffffffffffffffffffffffffffffffffff168152602001908152602001600020819055508273ffffffffffffffffffffffffffffffffffffffff163373ffffffffffffffffffffffffffffffffffffffff167f8c5be1e5ebec7d5bd14f71427d1e84f3dd0314c0f7b2291e5b200ac8c7c3b925846040516107a39190613a56565b60405180910390a36001905092915050565b600080620186a084846107c89190614066565b6107d29190613ea7565b905083816107e09190613bc1565b90508091505092915050565b600b5481565b6000816107fe856113cb565b101561083f576040517f08c379a0000000000000000000000000000000000000000000000000000000008152600401610836906139db565b60405180910390fd5b81600760008673ffffffffffffffffffffffffffffffffffffffff1673ffffffffffffffffffffffffffffffffffffffff16815260200190815260200160002060003373ffffffffffffffffffffffffffffffffffffffff1673ffffffffffffffffffffffffffffffffffffffff1681526020019081526020016000205410156108fe576040517f08c379a00000000000000000000000000000000000000000000000000000000081526004016108f5906139fb565b60405180910390fd5b81600660008573ffffffffffffffffffffffffffffffffffffffff1673ffffffffffffffffffffffffffffffffffffffff168152602001908152602001600020600082825461094d9190613b6b565b9250508190555081600660008673ffffffffffffffffffffffffffffffffffffffff1673ffffffffffffffffffffffffffffffffffffffff16815260200190815260200160002060008282546109a39190614175565b925050819055508273ffffffffffffffffffffffffffffffffffffffff168473ffffffffffffffffffffffffffffffffffffffff167fddf252ad1be2c89b69c2b068fc378daa952ba7f163c4a11628f55a4df523b3ef84604051610a079190613a56565b60405180910390a3600190509392505050565b60066020528060005260406000206000915090505481565b60088181548110610a4257600080fd5b906000526020600020016000915054906101000a900473ffffffffffffffffffffffffffffffffffffffff1681565b600080610a88600f5430634357855e60e01b6121a7565b9050610aec6040518060400160405280600381526020017f67657400000000000000000000000000000000000000000000000000000000008152506040518060800160405280605d81526020016145fc605d9139836121d89092919063ffffffff16565b610b6b6040518060400160405280600481526020017f70617468000000000000000000000000000000000000000000000000000000008152506040518060400160405280600781526020017f302e707269636500000000000000000000000000000000000000000000000000815250836121d89092919063ffffffff16565b6000662386f26fc100009050610bc16040518060400160405280600581526020017f74696d6573000000000000000000000000000000000000000000000000000000815250828461220b9092919063ffffffff16565b610bf0600e60009054906101000a900473ffffffffffffffffffffffffffffffffffffffff168360105461223e565b9250505090565b731f98431c8ad98523631ae4a59f267346ea31f98481565b600a5481565b6000610c208261214b565b610cd157600880549050600960008473ffffffffffffffffffffffffffffffffffffffff1673ffffffffffffffffffffffffffffffffffffffff168152602001908152602001600020819055506008829080600181540180825580915050600190039060005260206000200160009091909190916101000a81548173ffffffffffffffffffffffffffffffffffffffff021916908373ffffffffffffffffffffffffffffffffffffffff1602179055505b60019050919050565b6000600880549050905090565b816005600082815260200190815260200160002060009054906101000a900473ffffffffffffffffffffffffffffffffffffffff1673ffffffffffffffffffffffffffffffffffffffff163373ffffffffffffffffffffffffffffffffffffffff1614610d89576040517f08c379a0000000000000000000000000000000000000000000000000000000008152600401610d8090613a1b565b60405180910390fd5b6005600082815260200190815260200160002060006101000a81549073ffffffffffffffffffffffffffffffffffffffff0219169055807f7cc135e0cebb02c3480ae5d74d377283180a2601f8f644edf7987b009316c63a60405160405180910390a28160138190555081601181905550600060135414610e3557610e3360016000601560009054906101000a900473ffffffffffffffffffffffffffffffffffffffff16611414565b505b505050565b600080600080600a9050600060099050600080600090506000670de0b6b3a76400009050610bb889610e6c919061400c565b9850610e788a8a6107b5565b9250808a610e869190613cc6565b995064174876e80089610e999190613cc6565b98506000831415610eb4576001975050505050505050611313565b6000831215610ef0577fffffffffffffffffffffffffffffffffffffffffffffffffffffffffffffffff83610ee99190613ea7565b9250600191505b610ef98361225e565b9650600b5487610f09919061400c565b9650620186a087610f1a9190613cc6565b9650600115158215151415610f425786600b54610f379190614175565b600b81905550610f57565b86600b54610f509190613b6b565b600b819055505b60005b60088054905081101561130657610f708461225e565b96506006600060088381548110610fb0577f4e487b7100000000000000000000000000000000000000000000000000000000600052603260045260246000fd5b9060005260206000200160009054906101000a900473ffffffffffffffffffffffffffffffffffffffff1673ffffffffffffffffffffffffffffffffffffffff1673ffffffffffffffffffffffffffffffffffffffff1681526020019081526020016000205487611021919061400c565b9650620186a0876110329190613cc6565b965060011515831515141561119c57866006600060088481548110611080577f4e487b7100000000000000000000000000000000000000000000000000000000600052603260045260246000fd5b9060005260206000200160009054906101000a900473ffffffffffffffffffffffffffffffffffffffff1673ffffffffffffffffffffffffffffffffffffffff1673ffffffffffffffffffffffffffffffffffffffff168152602001908152602001600020546110f09190614175565b600660006008848154811061112e577f4e487b7100000000000000000000000000000000000000000000000000000000600052603260045260246000fd5b9060005260206000200160009054906101000a900473ffffffffffffffffffffffffffffffffffffffff1673ffffffffffffffffffffffffffffffffffffffff1673ffffffffffffffffffffffffffffffffffffffff168152602001908152602001600020819055506112f3565b8660066000600884815481106111db577f4e487b7100000000000000000000000000000000000000000000000000000000600052603260045260246000fd5b9060005260206000200160009054906101000a900473ffffffffffffffffffffffffffffffffffffffff1673ffffffffffffffffffffffffffffffffffffffff1673ffffffffffffffffffffffffffffffffffffffff1681526020019081526020016000205461124b9190613b6b565b6006600060088481548110611289577f4e487b7100000000000000000000000000000000000000000000000000000000600052603260045260246000fd5b9060005260206000200160009054906101000a900473ffffffffffffffffffffffffffffffffffffffff1673ffffffffffffffffffffffffffffffffffffffff1673ffffffffffffffffffffffffffffffffffffffff168152602001908152602001600020819055505b80806112fe90614339565b915050610f5a565b5060019750505050505050505b92915050565b600080731f98431c8ad98523631ae4a59f267346ea31f98473ffffffffffffffffffffffffffffffffffffffff16631698ee828585610bb86040518463ffffffff1660e01b815260040161136f9392919061382c565b60206040518083038186803b15801561138757600080fd5b505afa15801561139b573d6000803e3d6000fd5b505050506040513d601f19601f820116820180604052508101906113bf9190613287565b90508091505092915050565b6000600660008373ffffffffffffffffffffffffffffffffffffffff1673ffffffffffffffffffffffffffffffffffffffff168152602001908152602001600020549050919050565b60008073ffffffffffffffffffffffffffffffffffffffff168273ffffffffffffffffffffffffffffffffffffffff1614156114625773eecac0f984c6b69888c63d681a1731c4ac79bdc991505b60008290506000600267ffffffffffffffff8111156114aa577f4e487b7100000000000000000000000000000000000000000000000000000000600052604160045260246000fd5b6040519080825280602002602001820160405280156114d85781602001602082028036833780820191505090505b5090508581600081518110611516577f4e487b7100000000000000000000000000000000000000000000000000000000600052603260045260246000fd5b602002602001019063ffffffff16908163ffffffff1681525050848160018151811061156b577f4e487b7100000000000000000000000000000000000000000000000000000000600052603260045260246000fd5b602002602001019063ffffffff16908163ffffffff16815250506000808373ffffffffffffffffffffffffffffffffffffffff1663883bdbfd846040518263ffffffff1660e01b81526004016115c19190613926565b60006040518083038186803b1580156115d957600080fd5b505afa1580156115ed573d6000803e3d6000fd5b505050506040513d6000823e3d601f19601f820116820180604052508101906116169190613377565b91509150600082600081518110611656577f4e487b7100000000000000000000000000000000000000000000000000000000600052603260045260246000fd5b602002602001015183600181518110611698577f4e487b7100000000000000000000000000000000000000000000000000000000600052603260045260246000fd5b60200260200101516116aa91906140fa565b90506000846001815181106116e8577f4e487b7100000000000000000000000000000000000000000000000000000000600052603260045260246000fd5b60200260200101518560008151811061172a577f4e487b7100000000000000000000000000000000000000000000000000000000600052603260045260246000fd5b602002602001015161173c91906141a9565b63ffffffff1690506000816117509061442a565b8361175b9190613c2b565b9050600061176882612292565b90506000620186a08261177b9190613fbe565b905060006c0100000000000000000000000090506000818361179d9190613c95565b905060006002826117ae9190613d4a565b90506064816117bd9190613fbe565b73ffffffffffffffffffffffffffffffffffffffff166012819055506117e1611d66565b809c505050505050505050505050509392505050565b816005600082815260200190815260200160002060009054906101000a900473ffffffffffffffffffffffffffffffffffffffff1673ffffffffffffffffffffffffffffffffffffffff163373ffffffffffffffffffffffffffffffffffffffff1614611899576040517f08c379a000000000000000000000000000000000000000000000000000000000815260040161189090613a1b565b60405180910390fd5b6005600082815260200190815260200160002060006101000a81549073ffffffffffffffffffffffffffffffffffffffff0219169055807f7cc135e0cebb02c3480ae5d74d377283180a2601f8f644edf7987b009316c63a60405160405180910390a2816012819055508160148190555060006012541461192457611922601354601254610e3a565b505b505050565b60125481565b60135481565b60008073eecac0f984c6b69888c63d681a1731c4ac79bdc990506000600267ffffffffffffffff811115611992577f4e487b7100000000000000000000000000000000000000000000000000000000600052604160045260246000fd5b6040519080825280602002602001820160405280156119c05781602001602082028036833780820191505090505b5090506001816000815181106119ff577f4e487b7100000000000000000000000000000000000000000000000000000000600052603260045260246000fd5b602002602001019063ffffffff16908163ffffffff1681525050600081600181518110611a55577f4e487b7100000000000000000000000000000000000000000000000000000000600052603260045260246000fd5b602002602001019063ffffffff16908163ffffffff16815250506000808373ffffffffffffffffffffffffffffffffffffffff1663883bdbfd846040518263ffffffff1660e01b8152600401611aab9190613926565b60006040518083038186803b158015611ac357600080fd5b505afa158015611ad7573d6000803e3d6000fd5b505050506040513d6000823e3d601f19601f82011682018060405250810190611b009190613377565b91509150600082600081518110611b40577f4e487b7100000000000000000000000000000000000000000000000000000000600052603260045260246000fd5b602002602001015183600181518110611b82577f4e487b7100000000000000000000000000000000000000000000000000000000600052603260045260246000fd5b6020026020010151611b9491906140fa565b9050600084600181518110611bd2577f4e487b7100000000000000000000000000000000000000000000000000000000600052603260045260246000fd5b602002602001015185600081518110611c14577f4e487b7100000000000000000000000000000000000000000000000000000000600052603260045260246000fd5b6020026020010151611c2691906141a9565b63ffffffff169050600081611c3a9061442a565b83611c459190613c2b565b90506000611c5282612292565b90506000620186a082611c659190613fbe565b905060006c01000000000000000000000000905060008183611c879190613c95565b90506000600282611c989190613d4a565b9050809c5050505050505050505050505090565b601560009054906101000a900473ffffffffffffffffffffffffffffffffffffffff1681565b600d8054611cdf90614307565b80601f0160208091040260200160405190810160405280929190818152602001828054611d0b90614307565b8015611d585780601f10611d2d57610100808354040283529160200191611d58565b820191906000526020600020905b815481529060010190602001808311611d3b57829003601f168201915b505050505081565b60115481565b611d74601354601254610e3a565b50565b600081611d83336113cb565b1015611dc4576040517f08c379a0000000000000000000000000000000000000000000000000000000008152600401611dbb906139db565b60405180910390fd5b81600660008573ffffffffffffffffffffffffffffffffffffffff1673ffffffffffffffffffffffffffffffffffffffff1681526020019081526020016000206000828254611e139190613b6b565b9250508190555081600660003373ffffffffffffffffffffffffffffffffffffffff1673ffffffffffffffffffffffffffffffffffffffff1681526020019081526020016000206000828254611e699190614175565b92505081905550611e798361214b565b611f2a57600880549050600960008573ffffffffffffffffffffffffffffffffffffffff1673ffffffffffffffffffffffffffffffffffffffff168152602001908152602001600020819055506008839080600181540180825580915050600190039060005260206000200160009091909190916101000a81548173ffffffffffffffffffffffffffffffffffffffff021916908373ffffffffffffffffffffffffffffffffffffffff1602179055505b8273ffffffffffffffffffffffffffffffffffffffff163373ffffffffffffffffffffffffffffffffffffffff167fddf252ad1be2c89b69c2b068fc378daa952ba7f163c4a11628f55a4df523b3ef84604051611f879190613a56565b60405180910390a36001905092915050565b60145481565b600080611fb6600f543063837e756060e01b6121a7565b905061201a6040518060400160405280600381526020017f676574000000000000000000000000000000000000000000000000000000000081525060405180608001604052806055815260200161465960559139836121d89092919063ffffffff16565b6120996040518060400160405280600481526020017f70617468000000000000000000000000000000000000000000000000000000008152506040518060400160405280600a81526020017f646174612e707269636500000000000000000000000000000000000000000000815250836121d89092919063ffffffff16565b6000670de0b6b3a764000090506120f06040518060400160405280600581526020017f74696d6573000000000000000000000000000000000000000000000000000000815250828461220b9092919063ffffffff16565b61211f600e60009054906101000a900473ffffffffffffffffffffffffffffffffffffffff168360105461223e565b9250505090565b6007602052816000526040600020602052806000526040600020600091509150505481565b600080600960008473ffffffffffffffffffffffffffffffffffffffff1673ffffffffffffffffffffffffffffffffffffffff16815260200190815260200160002054111561219d57600190506121a2565b600090505b919050565b6121af613003565b6121b7613003565b6121ce858585846126ef909392919063ffffffff16565b9150509392505050565b6121ef82846080015161279f90919063ffffffff16565b61220681846080015161279f90919063ffffffff16565b505050565b61222282846080015161279f90919063ffffffff16565b6122398184608001516127c490919063ffffffff16565b505050565b60006122558484846001634042994660e01b612871565b90509392505050565b600060ff6001901b82141561227257600080fd5b60008212612280578161228b565b8161228a906143e1565b5b9050919050565b60008060008360020b126122a9578260020b6122b7565b8260020b6122b6906143e1565b5b90506000806001831614156122dd577001000000000000000000000000000000006122ef565b6ffffcb933bd6fad37aa2d162d1a5940015b70ffffffffffffffffffffffffffffffffff169050600060028316146123325760806ffff97272373d413259a46990580e213a8261232d919061400c565b901c90505b600060048316146123605760806ffff2e50f5f656932ef12357cf3c7fdcc8261235b919061400c565b901c90505b6000600883161461238e5760806fffe5caca7e10e4e61c3624eaa0941cd082612389919061400c565b901c90505b600060108316146123bc5760806fffcb9843d60f6159c9db58835c926644826123b7919061400c565b901c90505b600060208316146123ea5760806fff973b41fa98c081472e6896dfb254c0826123e5919061400c565b901c90505b600060408316146124185760806fff2ea16466c96a3843ec78b326b5286182612413919061400c565b901c90505b600060808316146124465760806ffe5dee046a99a2a811c461f1969c305382612441919061400c565b901c90505b60006101008316146124755760806ffcbe86c7900a88aedcffc83b479aa3a482612470919061400c565b901c90505b60006102008316146124a45760806ff987a7253ac413176f2b074cf7815e548261249f919061400c565b901c90505b60006104008316146124d35760806ff3392b0822b70005940c7a398e4b70f3826124ce919061400c565b901c90505b60006108008316146125025760806fe7159475a2c29b7443b29c7fa6e889d9826124fd919061400c565b901c90505b60006110008316146125315760806fd097f3bdfd2022b8845ad8f792aa58258261252c919061400c565b901c90505b60006120008316146125605760806fa9f746462d870fdf8a65dc1f90e061e58261255b919061400c565b901c90505b600061400083161461258f5760806f70d869a156d2a1b890bb3df62baf32f78261258a919061400c565b901c90505b60006180008316146125be5760806f31be135f97d08fd981231505542fcfa6826125b9919061400c565b901c90505b6000620100008316146125ee5760806f09aa508b5b7a84e1c677de54f3e99bc9826125e9919061400c565b901c90505b60006202000083161461261d5760806e5d6af8dedb81196699c329225ee60482612618919061400c565b901c90505b60006204000083161461264b5760806d2216e584f5fa1ea926041bedfe9882612646919061400c565b901c90505b6000620800008316146126775760806b048a170391f7dc42444e8fa282612672919061400c565b901c90505b60008460020b13156126b257807fffffffffffffffffffffffffffffffffffffffffffffffffffffffffffffffff6126af9190613cc6565b90505b6000640100000000826126c591906143b0565b146126d15760016126d4565b60005b60ff16602082901c6126e69190613b6b565b92505050919050565b6126f7613003565b6127078560800151610100612ad9565b508385600001818152505082856020019073ffffffffffffffffffffffffffffffffffffffff16908173ffffffffffffffffffffffffffffffffffffffff16815250508185604001907bffffffffffffffffffffffffffffffffffffffffffffffffffffffff191690817bffffffffffffffffffffffffffffffffffffffffffffffffffffffff191681525050849050949350505050565b6127ac8260038351612b43565b6127bf8183612c8890919063ffffffff16565b505050565b7fffffffffffffffffffffffffffffffffffffffffffffffff00000000000000008112156127fb576127f68282612caa565b61286d565b67ffffffffffffffff81131561281a576128158282612d21565b61286c565b600081126128335761282e82600083612b43565b61286b565b61286a826001837fffffffffffffffffffffffffffffffffffffffffffffffffffffffffffffffff6128659190614066565b612b43565b5b5b5b5050565b6000306004546040516020016128889291906137e5565b604051602081830303815290604052805190602001209050600454856060018181525050856005600083815260200190815260200160002060006101000a81548173ffffffffffffffffffffffffffffffffffffffff021916908373ffffffffffffffffffffffffffffffffffffffff160217905550807fb5e6e01e79f91267dc17b4e6314d5d4d03593d2ceee0fbb452b750bd70ea5af960405160405180910390a2600082600080886000015189602001518a604001518b606001518a8d6080015160000151604051602401612966989796959493929190613863565b604051602081830303815290604052907bffffffffffffffffffffffffffffffffffffffffffffffffffffffff19166020820180517bffffffffffffffffffffffffffffffffffffffffffffffffffffffff83818316178352505050509050600260009054906101000a900473ffffffffffffffffffffffffffffffffffffffff1673ffffffffffffffffffffffffffffffffffffffff16634000aea08887846040518463ffffffff1660e01b8152600401612a24939291906138e8565b602060405180830381600087803b158015612a3e57600080fd5b505af1158015612a52573d6000803e3d6000fd5b505050506040513d601f19601f82011682018060405250810190612a7691906133e3565b612ab5576040517f08c379a0000000000000000000000000000000000000000000000000000000008152600401612aac906139bb565b60405180910390fd5b600160046000828254612ac89190613b6b565b925050819055505095945050505050565b612ae1613070565b6000602083612af091906143b0565b14612b1c57602082612b0291906143b0565b6020612b0e9190614175565b82612b199190613b6b565b91505b81836020018181525050604051808452600081528281016020016040525082905092915050565b60178111612b7057612b6a8160058460ff16901b60ff161784612d6d90919063ffffffff16565b50612c83565b60ff8111612bb257612b95601860058460ff16901b1784612d6d90919063ffffffff16565b50612bac81600185612d8d9092919063ffffffff16565b50612c82565b61ffff8111612bf557612bd8601960058460ff16901b1784612d6d90919063ffffffff16565b50612bef81600285612d8d9092919063ffffffff16565b50612c81565b63ffffffff8111612c3a57612c1d601a60058460ff16901b1784612d6d90919063ffffffff16565b50612c3481600485612d8d9092919063ffffffff16565b50612c80565b67ffffffffffffffff8111612c7f57612c66601b60058460ff16901b1784612d6d90919063ffffffff16565b50612c7d81600885612d8d9092919063ffffffff16565b505b5b5b5b5b505050565b612c90613070565b612ca283846000015151848551612daf565b905092915050565b612cc860036005600660ff16901b1783612d6d90919063ffffffff16565b50612d1d82827fffffffffffffffffffffffffffffffffffffffffffffffffffffffffffffffff612cf99190614066565b604051602001612d099190613a56565b604051602081830303815290604052612eb9565b5050565b612d3f60026005600660ff16901b1783612d6d90919063ffffffff16565b50612d698282604051602001612d559190613a56565b604051602081830303815290604052612eb9565b5050565b612d75613070565b612d858384600001515184612ede565b905092915050565b612d95613070565b612da6848560000151518585612f35565b90509392505050565b612db7613070565b8251821115612dc557600080fd5b84602001518285612dd69190613b6b565b1115612e0b57612e0a856002612dfb88602001518887612df69190613b6b565b612fc3565b612e05919061400c565b612fdf565b5b600080865180518760208301019350808887011115612e2a5787860182525b60208701925050505b60208410612e715780518252602082612e4c9190613b6b565b9150602081612e5b9190613b6b565b9050602084612e6a9190614175565b9350612e33565b60006001856020612e829190614175565b610100612e8f9190613d89565b612e999190614175565b905080198251168184511681811785525050879350505050949350505050565b612ec68260028351612b43565b612ed98183612c8890919063ffffffff16565b505050565b612ee6613070565b83602001518310612f0c57612f0b8460028660200151612f06919061400c565b612fdf565b5b8351805160208583010184815381861415612f28576001820183525b5050508390509392505050565b612f3d613070565b84602001518483612f4e9190613b6b565b1115612f7657612f758560028685612f669190613b6b565b612f70919061400c565b612fdf565b5b6000600183610100612f889190613d89565b612f929190614175565b90508551838682010185831982511617815281518588011115612fb55784870182525b505085915050949350505050565b600081831115612fd557829050612fd9565b8190505b92915050565b600082600001519050612ff28383612ad9565b50612ffd8382612c88565b50505050565b6040518060a0016040528060008019168152602001600073ffffffffffffffffffffffffffffffffffffffff16815260200160007bffffffffffffffffffffffffffffffffffffffffffffffffffffffff191681526020016000815260200161306a613070565b81525090565b604051806040016040528060608152602001600081525090565b600061309d61309884613aa2565b613a71565b905080838252602082019050828560208602820111156130bc57600080fd5b60005b858110156130ec57816130d2888261320a565b8452602084019350602083019250506001810190506130bf565b5050509392505050565b600061310961310484613ace565b613a71565b9050808382526020820190508285602086028201111561312857600080fd5b60005b85811015613158578161313e888261321f565b84526020840193506020830192505060018101905061312b565b5050509392505050565b6000813590506131718161455a565b92915050565b6000815190506131868161455a565b92915050565b600082601f83011261319d57600080fd5b81516131ad84826020860161308a565b91505092915050565b600082601f8301126131c757600080fd5b81516131d78482602086016130f6565b91505092915050565b6000815190506131ef81614571565b92915050565b60008135905061320481614588565b92915050565b6000815190506132198161459f565b92915050565b60008151905061322e816145b6565b92915050565b600081359050613243816145cd565b92915050565b600081359050613258816145e4565b92915050565b60006020828403121561327057600080fd5b600061327e84828501613162565b91505092915050565b60006020828403121561329957600080fd5b60006132a784828501613177565b91505092915050565b600080604083850312156132c357600080fd5b60006132d185828601613162565b92505060206132e285828601613162565b9150509250929050565b60008060006060848603121561330157600080fd5b600061330f86828701613162565b935050602061332086828701613162565b925050604061333186828701613234565b9150509250925092565b6000806040838503121561334e57600080fd5b600061335c85828601613162565b925050602061336d85828601613234565b9150509250929050565b6000806040838503121561338a57600080fd5b600083015167ffffffffffffffff8111156133a457600080fd5b6133b08582860161318c565b925050602083015167ffffffffffffffff8111156133cd57600080fd5b6133d9858286016131b6565b9150509250929050565b6000602082840312156133f557600080fd5b6000613403848285016131e0565b91505092915050565b6000806040838503121561341f57600080fd5b600061342d858286016131f5565b925050602061343e85828601613234565b9150509250929050565b60006020828403121561345a57600080fd5b600061346884828501613234565b91505092915050565b6000806040838503121561348457600080fd5b600061349285828601613234565b92505060206134a385828601613234565b9150509250929050565b6000806000606084860312156134c257600080fd5b60006134d086828701613249565b93505060206134e186828701613249565b92505060406134f286828701613162565b9150509250925092565b600061350883836137d6565b60208301905092915050565b61351d816141dd565b82525050565b600061352e82613b0a565b6135388185613b38565b935061354383613afa565b8060005b8381101561357457815161355b88826134fc565b975061356683613b2b565b925050600181019050613547565b5085935050505092915050565b61358a816141ef565b82525050565b613599816141fb565b82525050565b6135a881614205565b82525050565b60006135b982613b15565b6135c38185613b49565b93506135d38185602086016142d4565b6135dc8161452f565b840191505092915050565b6135f86135f38261429e565b614382565b82525050565b61360781614231565b82525050565b613616816142c2565b82525050565b600061362782613b20565b6136318185613b5a565b93506136418185602086016142d4565b61364a8161452f565b840191505092915050565b6000613662602383613b5a565b91507f756e61626c6520746f207472616e73666572416e6443616c6c20746f206f726160008301527f636c6500000000000000000000000000000000000000000000000000000000006020830152604082019050919050565b60006136c8600f83613b5a565b91507f62616c616e636520746f6f206c6f7700000000000000000000000000000000006000830152602082019050919050565b6000613708601183613b5a565b91507f616c6c6f77616e636520746f6f206c6f770000000000000000000000000000006000830152602082019050919050565b6000613748602883613b5a565b91507f536f75726365206d75737420626520746865206f7261636c65206f662074686560008301527f20726571756573740000000000000000000000000000000000000000000000006020830152604082019050919050565b6137aa81614248565b82525050565b6137b981614277565b82525050565b6137d06137cb82614277565b6143a6565b82525050565b6137df81614281565b82525050565b60006137f182856135e7565b60148201915061380182846137bf565b6020820191508190509392505050565b60006020820190506138266000830184613514565b92915050565b60006060820190506138416000830186613514565b61384e6020830185613514565b61385b604083018461360d565b949350505050565b600061010082019050613879600083018b613514565b613886602083018a6137b0565b6138936040830189613590565b6138a06060830188613514565b6138ad608083018761359f565b6138ba60a08301866137b0565b6138c760c08301856137b0565b81810360e08301526138d981846135ae565b90509998505050505050505050565b60006060820190506138fd6000830186613514565b61390a60208301856137b0565b818103604083015261391c81846135ae565b9050949350505050565b600060208201905081810360008301526139408184613523565b905092915050565b600060208201905061395d6000830184613581565b92915050565b60006020820190506139786000830184613590565b92915050565b600060208201905061399360008301846135fe565b92915050565b600060208201905081810360008301526139b3818461361c565b905092915050565b600060208201905081810360008301526139d481613655565b9050919050565b600060208201905081810360008301526139f4816136bb565b9050919050565b60006020820190508181036000830152613a14816136fb565b9050919050565b60006020820190508181036000830152613a348161373b565b9050919050565b6000602082019050613a5060008301846137a1565b92915050565b6000602082019050613a6b60008301846137b0565b92915050565b6000604051905081810181811067ffffffffffffffff82111715613a9857613a97614500565b5b8060405250919050565b600067ffffffffffffffff821115613abd57613abc614500565b5b602082029050602081019050919050565b600067ffffffffffffffff821115613ae957613ae8614500565b5b602082029050602081019050919050565b6000819050602082019050919050565b600081519050919050565b600081519050919050565b600081519050919050565b6000602082019050919050565b600082825260208201905092915050565b600082825260208201905092915050565b600082825260208201905092915050565b6000613b7682614277565b9150613b8183614277565b9250827fffffffffffffffffffffffffffffffffffffffffffffffffffffffffffffffff03821115613bb657613bb5614473565b5b828201905092915050565b6000613bcc82614231565b9150613bd783614231565b925082613be757613be66144a2565b5b600160000383147f800000000000000000000000000000000000000000000000000000000000000083141615613c2057613c1f614473565b5b828205905092915050565b6000613c368261423b565b9150613c418361423b565b925082613c5157613c506144a2565b5b600160000383147fffffffffffffffffffffffffffffffffffffffffffffffffff8000000000000083141615613c8a57613c89614473565b5b828205905092915050565b6000613ca082614248565b9150613cab83614248565b925082613cbb57613cba6144a2565b5b828204905092915050565b6000613cd182614277565b9150613cdc83614277565b925082613cec57613ceb6144a2565b5b828204905092915050565b6000808291508390505b6001851115613d4157808604811115613d1d57613d1c614473565b5b6001851615613d2c5780820291505b8081029050613d3a8561454d565b9450613d01565b94509492505050565b6000613d5582614248565b9150613d6083614291565b9250613d8173ffffffffffffffffffffffffffffffffffffffff8484613dd4565b905092915050565b6000613d9482614277565b9150613d9f83614277565b9250613dcc7fffffffffffffffffffffffffffffffffffffffffffffffffffffffffffffffff8484613dd4565b905092915050565b600082613de45760019050613ea0565b81613df25760009050613ea0565b8160018114613e085760028114613e1257613e41565b6001915050613ea0565b60ff841115613e2457613e23614473565b5b8360020a915084821115613e3b57613e3a614473565b5b50613ea0565b5060208310610133831016604e8410600b8410161715613e765782820a905083811115613e7157613e70614473565b5b613ea0565b613e838484846001613cf7565b92509050818404811115613e9a57613e99614473565b5b81810290505b9392505050565b6000613eb282614231565b9150613ebd83614231565b9250827f7fffffffffffffffffffffffffffffffffffffffffffffffffffffffffffffff0482116000841360008413161615613efc57613efb614473565b5b817f80000000000000000000000000000000000000000000000000000000000000000583126000841260008413161615613f3957613f38614473565b5b827f80000000000000000000000000000000000000000000000000000000000000000582126000841360008412161615613f7657613f75614473565b5b827f7fffffffffffffffffffffffffffffffffffffffffffffffffffffffffffffff0582126000841260008412161615613fb357613fb2614473565b5b828202905092915050565b6000613fc982614248565b9150613fd483614248565b92508173ffffffffffffffffffffffffffffffffffffffff048311821515161561400157614000614473565b5b828202905092915050565b600061401782614277565b915061402283614277565b9250817fffffffffffffffffffffffffffffffffffffffffffffffffffffffffffffffff048311821515161561405b5761405a614473565b5b828202905092915050565b600061407182614231565b915061407c83614231565b9250827f8000000000000000000000000000000000000000000000000000000000000000018212600084121516156140b7576140b6614473565b5b827f7fffffffffffffffffffffffffffffffffffffffffffffffffffffffffffffff0182136000841216156140ef576140ee614473565b5b828203905092915050565b60006141058261423b565b91506141108361423b565b9250827fffffffffffffffffffffffffffffffffffffffffffffffffff800000000000000182126000841215161561414b5761414a614473565b5b82667fffffffffffff01821360008412161561416a57614169614473565b5b828203905092915050565b600061418082614277565b915061418b83614277565b92508282101561419e5761419d614473565b5b828203905092915050565b60006141b482614281565b91506141bf83614281565b9250828210156141d2576141d1614473565b5b828203905092915050565b60006141e882614248565b9050919050565b60008115159050919050565b6000819050919050565b60007fffffffff0000000000000000000000000000000000000000000000000000000082169050919050565b6000819050919050565b60008160060b9050919050565b600073ffffffffffffffffffffffffffffffffffffffff82169050919050565b600062ffffff82169050919050565b6000819050919050565b600063ffffffff82169050919050565b600060ff82169050919050565b60006142a9826142b0565b9050919050565b60006142bb82614248565b9050919050565b60006142cd82614268565b9050919050565b60005b838110156142f25780820151818401526020810190506142d7565b83811115614301576000848401525b50505050565b6000600282049050600182168061431f57607f821691505b60208210811415614333576143326144d1565b5b50919050565b600061434482614277565b91507fffffffffffffffffffffffffffffffffffffffffffffffffffffffffffffffff82141561437757614376614473565b5b600182019050919050565b600061438d82614394565b9050919050565b600061439f82614540565b9050919050565b6000819050919050565b60006143bb82614277565b91506143c683614277565b9250826143d6576143d56144a2565b5b828206905092915050565b60006143ec82614231565b91507f800000000000000000000000000000000000000000000000000000000000000082141561441f5761441e614473565b5b816000039050919050565b60006144358261423b565b91507fffffffffffffffffffffffffffffffffffffffffffffffffff8000000000000082141561446857614467614473565b5b816000039050919050565b7f4e487b7100000000000000000000000000000000000000000000000000000000600052601160045260246000fd5b7f4e487b7100000000000000000000000000000000000000000000000000000000600052601260045260246000fd5b7f4e487b7100000000000000000000000000000000000000000000000000000000600052602260045260246000fd5b7f4e487b7100000000000000000000000000000000000000000000000000000000600052604160045260246000fd5b6000601f19601f8301169050919050565b60008160601b9050919050565b60008160011c9050919050565b614563816141dd565b811461456e57600080fd5b50565b61457a816141ef565b811461458557600080fd5b50565b614591816141fb565b811461459c57600080fd5b50565b6145a88161423b565b81146145b357600080fd5b50565b6145bf81614248565b81146145ca57600080fd5b50565b6145d681614277565b81146145e157600080fd5b50565b6145ed81614281565b81146145f857600080fd5b5056fe68747470733a2f2f66696e616e6369616c6d6f64656c696e67707265702e636f6d2f6170692f76332f71756f74652f2535454e44583f6170696b65793d373638306639383161323435653432326431366531363232623462616330376568747470733a2f2f6170692e70616e63616b65737761702e696e666f2f6170692f76322f746f6b656e732f307830396164323730313230643837336132623266616230623031646666303063363739383830393139a2646970667358221220974511220690d495b643912b3e6ec691ed77f533e679068e78cfa231a7e4c97564736f6c63430008000033",
  "immutableReferences": {},
  "source": "pragma solidity ^0.8.0;\n\nimport \"@chainlink/contracts/src/v0.8/ChainlinkClient.sol\";\n\nimport \"./IndexProtocol.sol\";\nimport \"./lib/SafeMathInt.sol\";\nimport \"./lib/UInt256Lib.sol\";\n//import \"./Rebase.sol\";\n\nimport \"@uniswap/v3-core/contracts/interfaces/IUniswapV3Pool.sol\";\n\nimport '@uniswap/v3-core/contracts/libraries/TickMath.sol';\n\nimport \"@uniswap/v3-core/contracts/interfaces/IUniswapV3Factory.sol\";\n\ncontract Oracle is ChainlinkClient, IndexProtocol {\n\n    using Chainlink for Chainlink.Request;\n    // using SafeMathInt for int256;\n    // using UInt256Lib for uint256;\n\n    address private oracle;\n    bytes32 private jobId;\n    uint256 private fee;\n \n    uint256 public price;\n    uint256 public oracleMarket;\n    uint256 public oracleTarget;\n    uint256 public volume;\n\n    address public uniswapV3PoolAddress;\n\n    address public constant FACTORY = 0x1F98431c8aD98523631AE4a59f267346ea31F984;\n\n    event Rebase(address indexed caller, uint targetPrice, uint marketPrice, uint change);\n\n    constructor() public {\n\n        setPublicChainlinkToken();\n        oracle = 0x3A56aE4a2831C3d3514b5D7Af5578E45eBDb7a40;\n        jobId = \"3b7ca0d48c7a4b2da9268456665d11ae\";\n        fee = 0.1 * 10 ** 18; // 0.1 LINK\n\n        uniswapV3PoolAddress = address(0xeeCac0f984c6b69888c63D681a1731c4aC79bDC9);\n\n    }\n\n    function query() public returns (bytes32 requestId) \n    {\n        Chainlink.Request memory request = buildChainlinkRequest(jobId, address(this), this.fulfill.selector);\n        \n        request.add(\"get\", \"https://financialmodelingprep.com/api/v3/quote/%5ENDX?apikey=7680f981a245e422d16e1622b4bac07e\");\n        //request.add(\"get\", \"https://api.pancakeswap.info/api/v2/tokens/0x09ad270120d873a2b2fab0b01dff00c679880919\");\n        \n        \n        request.add(\"path\", \"0.price\");\n        \n        \n        \n        // Multiply the result by 1000000000000000000 to remove decimals\n        int timesAmount = 10**16;\n        request.addInt(\"times\", timesAmount);\n        \n        // Sends the request\n        return sendChainlinkRequestTo(oracle, request, fee);\n    }\n    function fulfill(bytes32 _requestId, uint256 _price) public recordChainlinkFulfillment(_requestId)\n    {\n        oracleTarget = _price;\n        price = _price;\n\n        if (oracleTarget != 0){\n            //oracleMarketPrice();\n            marketOracle(1,0,uniswapV3PoolAddress);\n        }\n\n        \n        \n    }\n\n    function oracleMarketPrice() public returns (bytes32 requestId) \n    {\n        Chainlink.Request memory request = buildChainlinkRequest(jobId, address(this), this.fulfillMarket.selector);\n        \n        //https://financialmodelingprep.com/api/v3/quote/%5ENDX?apikey=7680f981a245e422d16e1622b4bac07e\n        //request.add(\"get\", \"https://api.pancakeswap.info/api/v2/tokens/0x7130d2A12B9BCbFAe4f2634d864A1Ee1Ce3Ead9c\");\n        \n        \n        request.add(\"get\", \"https://api.pancakeswap.info/api/v2/tokens/0x09ad270120d873a2b2fab0b01dff00c679880919\");\n        \n        \n        request.add(\"path\", \"data.price\");\n        \n        // Multiply the result by 1000000000000000000 to remove decimals\n        int timesAmount = 10**18;\n        request.addInt(\"times\", timesAmount);\n        \n        // Sends the request\n        return sendChainlinkRequestTo(oracle, request, fee);\n    }\n    function fulfillMarket(bytes32 _requestId, uint256 _volume) public recordChainlinkFulfillment(_requestId)\n    {\n        oracleMarket = _volume;\n        volume = _volume;\n\n        // rebasefunction(oracleTarget, oracleMarket);\n        if (oracleMarket != 0){\n            rebasefunction(oracleTarget, oracleMarket);\n        }\n        \n    }\n\n    \n\n    function marketOracle(uint32 s0, uint32 s1, address pool) public returns(uint160){\n\n        if (pool == address(0x0)){\n            pool = 0xeeCac0f984c6b69888c63D681a1731c4aC79bDC9;\n        } \n\n        IUniswapV3Pool uniswapv3Pool = IUniswapV3Pool(pool);\n        \n        uint32[] memory secondAgos = new uint32[](2);\n        secondAgos[0] = s0;\n        secondAgos[1] = s1;\n        \n        //return secondAgos[0];\n        \n        (int56[] memory tickCumulatives, uint160[] memory test) = uniswapv3Pool.observe(secondAgos);\n        \n        int56 tickCumulativesDiff = tickCumulatives[1] - tickCumulatives[0];\n        uint56 period = uint56(secondAgos[0]-secondAgos[1]);\n\n        int56 timeWeightedAverageTick = (tickCumulativesDiff / -int56(period));\n\n        //price = 1.0001 ** timeWeightedAverageTick;\n        uint160 sqrtRatioX96 = TickMath.getSqrtRatioAtTick(int24(timeWeightedAverageTick));\n        //uint160 sqrtRatioX96 = TickMath.getSqrtRatioAtTick(int24(-46087));\n        \n        uint160 temp = sqrtRatioX96 * 100000;\n        \n        uint160 ex = (2 ** 96);\n        \n        uint160 next = temp / ex;\n        \n        uint160 last = next ** 2;\n        \n        \n        oracleMarket = last * 100;\n        callRebase();\n        // uint256 ratioX192 = uint256(sqrtRatioX96) * sqrtRatioX96;\n        // price = uint32((ratioX192 * 1e18) >> (96 * 2));\n\n        return last;\n\n    }\n\n    function callRebase() public {\n\n        rebasefunction(oracleTarget, oracleMarket);\n    }\n\n    function mtest() public view returns(uint160){\n\n        // if (pool == address(0x0)){\n        //     pool = 0xeeCac0f984c6b69888c63D681a1731c4aC79bDC9;\n        // } \n\n        IUniswapV3Pool uniswapv3Pool = IUniswapV3Pool(0xeeCac0f984c6b69888c63D681a1731c4aC79bDC9);        \n        uint32[] memory secondAgos = new uint32[](2);\n        secondAgos[0] = 1;\n        secondAgos[1] = 0;\n        \n        //return secondAgos[0];\n        \n        (int56[] memory tickCumulatives, uint160[] memory test) = uniswapv3Pool.observe(secondAgos);\n        \n        int56 tickCumulativesDiff = tickCumulatives[1] - tickCumulatives[0];\n        uint56 period = uint56(secondAgos[0]-secondAgos[1]);\n\n        int56 timeWeightedAverageTick = (tickCumulativesDiff / -int56(period));\n\n        //price = 1.0001 ** timeWeightedAverageTick;\n        uint160 sqrtRatioX96 = TickMath.getSqrtRatioAtTick(int24(timeWeightedAverageTick));\n        //uint160 sqrtRatioX96 = TickMath.getSqrtRatioAtTick(int24(-46087));\n        \n        uint160 temp = sqrtRatioX96 * 100000;\n        \n        uint160 ex = (2 ** 96);\n        \n        uint160 next = temp / ex;\n        \n        uint160 last = next ** 2;\n        \n        \n\n        // uint256 ratioX192 = uint256(sqrtRatioX96) * sqrtRatioX96;\n        // price = uint32((ratioX192 * 1e18) >> (96 * 2));\n\n        return last;\n\n    }\n\n    function getPool(address token1, address token2) external view returns (address) {\n      address pair = IUniswapV3Factory(FACTORY).getPool(token1,token2,3000);\n      return pair;\n\n}\n\n    \n\n}",
  "sourcePath": "/Users/mac/Desktop/repos/indexprotocol/contracts/Oracle.sol",
  "compiler": {
    "name": "solc",
    "version": "0.8.0+commit.c7dfd78e.Emscripten.clang"
  },
  "schemaVersion": "3.4.2",
  "updatedAt": "2021-08-11T23:11:36.691Z",
  "networkType": "ethereum",
  "devdoc": {
    "kind": "dev",
    "methods": {},
    "version": 1
  },
  "userdoc": {
    "kind": "user",
    "methods": {},
    "version": 1
  }
}