{
  "contractName": "Oracle",
  "abi": [
    {
      "inputs": [],
      "payable": false,
      "stateMutability": "nonpayable",
      "type": "constructor"
    },
    {
      "anonymous": false,
      "inputs": [
        {
          "indexed": true,
          "internalType": "address",
          "name": "owner",
          "type": "address"
        },
        {
          "indexed": true,
          "internalType": "address",
          "name": "spender",
          "type": "address"
        },
        {
          "indexed": false,
          "internalType": "uint256",
          "name": "value",
          "type": "uint256"
        }
      ],
      "name": "Approval",
      "type": "event"
    },
    {
      "anonymous": false,
      "inputs": [
        {
          "indexed": true,
          "internalType": "bytes32",
          "name": "id",
          "type": "bytes32"
        }
      ],
      "name": "ChainlinkCancelled",
      "type": "event"
    },
    {
      "anonymous": false,
      "inputs": [
        {
          "indexed": true,
          "internalType": "bytes32",
          "name": "id",
          "type": "bytes32"
        }
      ],
      "name": "ChainlinkFulfilled",
      "type": "event"
    },
    {
      "anonymous": false,
      "inputs": [
        {
          "indexed": true,
          "internalType": "bytes32",
          "name": "id",
          "type": "bytes32"
        }
      ],
      "name": "ChainlinkRequested",
      "type": "event"
    },
    {
      "anonymous": false,
      "inputs": [
        {
          "indexed": true,
          "internalType": "address",
          "name": "caller",
          "type": "address"
        },
        {
          "indexed": false,
          "internalType": "uint256",
          "name": "targetPrice",
          "type": "uint256"
        },
        {
          "indexed": false,
          "internalType": "uint256",
          "name": "marketPrice",
          "type": "uint256"
        },
        {
          "indexed": false,
          "internalType": "uint256",
          "name": "change",
          "type": "uint256"
        }
      ],
      "name": "Rebase",
      "type": "event"
    },
    {
      "anonymous": false,
      "inputs": [
        {
          "indexed": true,
          "internalType": "address",
          "name": "from",
          "type": "address"
        },
        {
          "indexed": true,
          "internalType": "address",
          "name": "to",
          "type": "address"
        },
        {
          "indexed": false,
          "internalType": "uint256",
          "name": "value",
          "type": "uint256"
        }
      ],
      "name": "Transfer",
      "type": "event"
    },
    {
      "constant": false,
      "inputs": [
        {
          "internalType": "address",
          "name": "who",
          "type": "address"
        }
      ],
      "name": "addAddress",
      "outputs": [
        {
          "internalType": "bool",
          "name": "",
          "type": "bool"
        }
      ],
      "payable": false,
      "stateMutability": "nonpayable",
      "type": "function"
    },
    {
      "constant": true,
      "inputs": [
        {
          "internalType": "address",
          "name": "",
          "type": "address"
        },
        {
          "internalType": "address",
          "name": "",
          "type": "address"
        }
      ],
      "name": "allowance",
      "outputs": [
        {
          "internalType": "uint256",
          "name": "",
          "type": "uint256"
        }
      ],
      "payable": false,
      "stateMutability": "view",
      "type": "function"
    },
    {
      "constant": false,
      "inputs": [
        {
          "internalType": "address",
          "name": "spender",
          "type": "address"
        },
        {
          "internalType": "uint256",
          "name": "value",
          "type": "uint256"
        }
      ],
      "name": "approve",
      "outputs": [
        {
          "internalType": "bool",
          "name": "",
          "type": "bool"
        }
      ],
      "payable": false,
      "stateMutability": "nonpayable",
      "type": "function"
    },
    {
      "constant": true,
      "inputs": [
        {
          "internalType": "address",
          "name": "owner",
          "type": "address"
        }
      ],
      "name": "balanceOf",
      "outputs": [
        {
          "internalType": "uint256",
          "name": "",
          "type": "uint256"
        }
      ],
      "payable": false,
      "stateMutability": "view",
      "type": "function"
    },
    {
      "constant": true,
      "inputs": [
        {
          "internalType": "address",
          "name": "",
          "type": "address"
        }
      ],
      "name": "balances",
      "outputs": [
        {
          "internalType": "uint256",
          "name": "",
          "type": "uint256"
        }
      ],
      "payable": false,
      "stateMutability": "view",
      "type": "function"
    },
    {
      "constant": true,
      "inputs": [],
      "name": "countAddress",
      "outputs": [
        {
          "internalType": "uint256",
          "name": "",
          "type": "uint256"
        }
      ],
      "payable": false,
      "stateMutability": "view",
      "type": "function"
    },
    {
      "constant": true,
      "inputs": [],
      "name": "decimals",
      "outputs": [
        {
          "internalType": "uint256",
          "name": "",
          "type": "uint256"
        }
      ],
      "payable": false,
      "stateMutability": "view",
      "type": "function"
    },
    {
      "constant": true,
      "inputs": [
        {
          "internalType": "uint256",
          "name": "",
          "type": "uint256"
        }
      ],
      "name": "holders",
      "outputs": [
        {
          "internalType": "address",
          "name": "",
          "type": "address"
        }
      ],
      "payable": false,
      "stateMutability": "view",
      "type": "function"
    },
    {
      "constant": true,
      "inputs": [
        {
          "internalType": "address",
          "name": "who",
          "type": "address"
        }
      ],
      "name": "inArray",
      "outputs": [
        {
          "internalType": "bool",
          "name": "",
          "type": "bool"
        }
      ],
      "payable": false,
      "stateMutability": "view",
      "type": "function"
    },
    {
      "constant": true,
      "inputs": [],
      "name": "name",
      "outputs": [
        {
          "internalType": "string",
          "name": "",
          "type": "string"
        }
      ],
      "payable": false,
      "stateMutability": "view",
      "type": "function"
    },
    {
      "constant": true,
      "inputs": [],
      "name": "oracleMarket",
      "outputs": [
        {
          "internalType": "uint256",
          "name": "",
          "type": "uint256"
        }
      ],
      "payable": false,
      "stateMutability": "view",
      "type": "function"
    },
    {
      "constant": true,
      "inputs": [],
      "name": "oracleTarget",
      "outputs": [
        {
          "internalType": "uint256",
          "name": "",
          "type": "uint256"
        }
      ],
      "payable": false,
      "stateMutability": "view",
      "type": "function"
    },
    {
      "constant": true,
      "inputs": [],
      "name": "poolAddress",
      "outputs": [
        {
          "internalType": "address",
          "name": "",
          "type": "address"
        }
      ],
      "payable": false,
      "stateMutability": "view",
      "type": "function"
    },
    {
      "constant": true,
      "inputs": [],
      "name": "price",
      "outputs": [
        {
          "internalType": "uint256",
          "name": "",
          "type": "uint256"
        }
      ],
      "payable": false,
      "stateMutability": "view",
      "type": "function"
    },
    {
      "constant": true,
      "inputs": [],
      "name": "symbol",
      "outputs": [
        {
          "internalType": "string",
          "name": "",
          "type": "string"
        }
      ],
      "payable": false,
      "stateMutability": "view",
      "type": "function"
    },
    {
      "constant": true,
      "inputs": [],
      "name": "totalSupply",
      "outputs": [
        {
          "internalType": "uint256",
          "name": "",
          "type": "uint256"
        }
      ],
      "payable": false,
      "stateMutability": "view",
      "type": "function"
    },
    {
      "constant": false,
      "inputs": [
        {
          "internalType": "address",
          "name": "to",
          "type": "address"
        },
        {
          "internalType": "uint256",
          "name": "value",
          "type": "uint256"
        }
      ],
      "name": "transfer",
      "outputs": [
        {
          "internalType": "bool",
          "name": "",
          "type": "bool"
        }
      ],
      "payable": false,
      "stateMutability": "nonpayable",
      "type": "function"
    },
    {
      "constant": false,
      "inputs": [
        {
          "internalType": "address",
          "name": "from",
          "type": "address"
        },
        {
          "internalType": "address",
          "name": "to",
          "type": "address"
        },
        {
          "internalType": "uint256",
          "name": "value",
          "type": "uint256"
        }
      ],
      "name": "transferFrom",
      "outputs": [
        {
          "internalType": "bool",
          "name": "",
          "type": "bool"
        }
      ],
      "payable": false,
      "stateMutability": "nonpayable",
      "type": "function"
    },
    {
      "constant": true,
      "inputs": [],
      "name": "uniswapV3PoolAddress",
      "outputs": [
        {
          "internalType": "address",
          "name": "",
          "type": "address"
        }
      ],
      "payable": false,
      "stateMutability": "view",
      "type": "function"
    },
    {
      "constant": true,
      "inputs": [],
      "name": "volume",
      "outputs": [
        {
          "internalType": "uint256",
          "name": "",
          "type": "uint256"
        }
      ],
      "payable": false,
      "stateMutability": "view",
      "type": "function"
    },
    {
      "constant": false,
      "inputs": [],
      "name": "getTargetPrice",
      "outputs": [
        {
          "internalType": "bytes32",
          "name": "requestId",
          "type": "bytes32"
        }
      ],
      "payable": false,
      "stateMutability": "nonpayable",
      "type": "function"
    },
    {
      "constant": false,
      "inputs": [
        {
          "internalType": "bytes32",
          "name": "_requestId",
          "type": "bytes32"
        },
        {
          "internalType": "uint256",
          "name": "_targetPrice",
          "type": "uint256"
        }
      ],
      "name": "fulfill",
      "outputs": [],
      "payable": false,
      "stateMutability": "nonpayable",
      "type": "function"
    },
    {
      "constant": false,
      "inputs": [],
      "name": "callRebase",
      "outputs": [],
      "payable": false,
      "stateMutability": "nonpayable",
      "type": "function"
    },
    {
      "constant": false,
      "inputs": [
        {
          "internalType": "address",
          "name": "pairAddress",
          "type": "address"
        },
        {
          "internalType": "uint256",
          "name": "amount",
          "type": "uint256"
        },
        {
          "internalType": "uint256",
          "name": "switchToken",
          "type": "uint256"
        }
      ],
      "name": "getMarketPrice",
      "outputs": [
        {
          "internalType": "bool",
          "name": "",
          "type": "bool"
        }
      ],
      "payable": false,
      "stateMutability": "nonpayable",
      "type": "function"
    },
    {
      "constant": false,
      "inputs": [
        {
          "internalType": "address",
          "name": "pool",
          "type": "address"
        }
      ],
      "name": "poolSync",
      "outputs": [
        {
          "internalType": "bool",
          "name": "",
          "type": "bool"
        }
      ],
      "payable": false,
      "stateMutability": "nonpayable",
      "type": "function"
    },
    {
      "constant": true,
      "inputs": [],
      "name": "getEthPrice",
      "outputs": [
        {
          "internalType": "int256",
          "name": "",
          "type": "int256"
        }
      ],
      "payable": false,
      "stateMutability": "view",
      "type": "function"
    },
    {
      "constant": false,
      "inputs": [
        {
          "internalType": "uint256",
          "name": "targetPrice",
          "type": "uint256"
        },
        {
          "internalType": "uint256",
          "name": "marketPrice",
          "type": "uint256"
        }
      ],
      "name": "deltaChange",
      "outputs": [
        {
          "internalType": "int256",
          "name": "",
          "type": "int256"
        }
      ],
      "payable": false,
      "stateMutability": "nonpayable",
      "type": "function"
    },
    {
      "constant": false,
      "inputs": [
        {
          "internalType": "uint256",
          "name": "oracleTarget",
          "type": "uint256"
        },
        {
          "internalType": "uint256",
          "name": "oracleMarket",
          "type": "uint256"
        }
      ],
      "name": "rebase",
      "outputs": [
        {
          "internalType": "bool",
          "name": "",
          "type": "bool"
        }
      ],
      "payable": false,
      "stateMutability": "nonpayable",
      "type": "function"
    }
  ],
  "bytecode": "0x608060405260016004556012600a55600a54600a0a620186a002600b556040518060400160405280600d81526020017f496e64657850726f746f636f6c00000000000000000000000000000000000000815250600c9080519060200190620000699291906200039f565b506040518060400160405280600481526020017f494e445800000000000000000000000000000000000000000000000000000000815250600d9080519060200190620000b79291906200039f565b50348015620000c557600080fd5b50600b54600660003373ffffffffffffffffffffffffffffffffffffffff1673ffffffffffffffffffffffffffffffffffffffff1681526020019081526020016000208190555060083390806001815401808255809150509060018203906000526020600020016000909192909190916101000a81548173ffffffffffffffffffffffffffffffffffffffff021916908373ffffffffffffffffffffffffffffffffffffffff16021790555050600880549050600960003373ffffffffffffffffffffffffffffffffffffffff1673ffffffffffffffffffffffffffffffffffffffff16815260200190815260200160002081905550620001cb620002b160201b60201c565b733a56ae4a2831c3d3514b5d7af5578e45ebdb7a40600e60006101000a81548173ffffffffffffffffffffffffffffffffffffffff021916908373ffffffffffffffffffffffffffffffffffffffff1602179055507f3362376361306434386337613462326461393236383435363636356431316165600f8190555067016345785d8a0000601081905550738a753747a1fa494ec906ce90e9f37563a8af630e601760006101000a81548173ffffffffffffffffffffffffffffffffffffffff021916908373ffffffffffffffffffffffffffffffffffffffff1602179055506200044e565b6200035973c89bd4e1632d3a43cb03aaad5262cbe4038bc57173ffffffffffffffffffffffffffffffffffffffff166338cc48316040518163ffffffff1660e01b815260040160206040518083038186803b1580156200031057600080fd5b505afa15801562000325573d6000803e3d6000fd5b505050506040513d60208110156200033c57600080fd5b81019080805190602001909291905050506200035b60201b60201c565b565b80600260006101000a81548173ffffffffffffffffffffffffffffffffffffffff021916908373ffffffffffffffffffffffffffffffffffffffff16021790555050565b828054600181600116156101000203166002900490600052602060002090601f016020900481019282601f10620003e257805160ff191683800117855562000413565b8280016001018555821562000413579182015b8281111562000412578251825591602001919060010190620003f5565b5b50905062000422919062000426565b5090565b6200044b91905b80821115620004475760008160009055506001016200042d565b5090565b90565b612aa8806200045e6000396000f3fe608060405234801561001057600080fd5b50600436106101c45760003560e01c806367c9b017116100f9578063a035b1fe11610097578063bd01bb3211610071578063bd01bb32146108ab578063c618a1e4146108c9578063dd62ed3e146108e7578063deac46591461095f576101c4565b8063a035b1fe1461081d578063a588d7d21461083b578063a9059cbb14610845576101c4565b8063867bf465116100d3578063867bf465146107145780638de079d914610732578063902609ed1461075057806395d89b411461079a576101c4565b806367c9b0171461062e57806370a082311461064c5780637544af3d146106a4576101c4565b806327e235e31161016657806338eada1c1161014057806338eada1c1461052057806342154e9c1461057c5780634357855e1461059a5780634d098644146105d2576101c4565b806327e235e31461043c5780632a11ced014610494578063313ce56714610502576101c4565b806311d1ab6b116101a257806311d1ab6b146103025780631755ff211461034e57806318160ddd1461039857806323b872dd146103b6576101c4565b8063058ecdb4146101c957806306fdde0314610219578063095ea7b31461029c575b600080fd5b6101ff600480360360408110156101df57600080fd5b8101908080359060200190929190803590602001909291905050506109bb565b604051808215151515815260200191505060405180910390f35b610221610de5565b6040518080602001828103825283818151815260200191508051906020019080838360005b83811015610261578082015181840152602081019050610246565b50505050905090810190601f16801561028e5780820380516001836020036101000a031916815260200191505b509250505060405180910390f35b6102e8600480360360408110156102b257600080fd5b81019080803573ffffffffffffffffffffffffffffffffffffffff16906020019092919080359060200190929190505050610e83565b604051808215151515815260200191505060405180910390f35b6103386004803603604081101561031857600080fd5b810190808035906020019092919080359060200190929190505050610f75565b6040518082815260200191505060405180910390f35b610356610f97565b604051808273ffffffffffffffffffffffffffffffffffffffff1673ffffffffffffffffffffffffffffffffffffffff16815260200191505060405180910390f35b6103a0610fbd565b6040518082815260200191505060405180910390f35b610422600480360360608110156103cc57600080fd5b81019080803573ffffffffffffffffffffffffffffffffffffffff169060200190929190803573ffffffffffffffffffffffffffffffffffffffff16906020019092919080359060200190929190505050610fc3565b604051808215151515815260200191505060405180910390f35b61047e6004803603602081101561045257600080fd5b81019080803573ffffffffffffffffffffffffffffffffffffffff16906020019092919050505061123f565b6040518082815260200191505060405180910390f35b6104c0600480360360208110156104aa57600080fd5b8101908080359060200190929190505050611257565b604051808273ffffffffffffffffffffffffffffffffffffffff1673ffffffffffffffffffffffffffffffffffffffff16815260200191505060405180910390f35b61050a611293565b6040518082815260200191505060405180910390f35b6105626004803603602081101561053657600080fd5b81019080803573ffffffffffffffffffffffffffffffffffffffff169060200190929190505050611299565b604051808215151515815260200191505060405180910390f35b610584611361565b6040518082815260200191505060405180910390f35b6105d0600480360360408110156105b057600080fd5b81019080803590602001909291908035906020019092919050505061136e565b005b610614600480360360208110156105e857600080fd5b81019080803573ffffffffffffffffffffffffffffffffffffffff1690602001909291905050506114a8565b604051808215151515815260200191505060405180910390f35b610636611513565b6040518082815260200191505060405180910390f35b61068e6004803603602081101561066257600080fd5b81019080803573ffffffffffffffffffffffffffffffffffffffff1690602001909291905050506115fc565b6040518082815260200191505060405180910390f35b6106fa600480360360608110156106ba57600080fd5b81019080803573ffffffffffffffffffffffffffffffffffffffff1690602001909291908035906020019092919080359060200190929190505050611645565b604051808215151515815260200191505060405180910390f35b61071c611869565b6040518082815260200191505060405180910390f35b61073a61186f565b6040518082815260200191505060405180910390f35b610758611875565b604051808273ffffffffffffffffffffffffffffffffffffffff1673ffffffffffffffffffffffffffffffffffffffff16815260200191505060405180910390f35b6107a261189b565b6040518080602001828103825283818151815260200191508051906020019080838360005b838110156107e25780820151818401526020810190506107c7565b50505050905090810190601f16801561080f5780820380516001836020036101000a031916815260200191505b509250505060405180910390f35b610825611939565b6040518082815260200191505060405180910390f35b61084361193f565b005b6108916004803603604081101561085b57600080fd5b81019080803573ffffffffffffffffffffffffffffffffffffffff16906020019092919080359060200190929190505050611950565b604051808215151515815260200191505060405180910390f35b6108b3611b96565b6040518082815260200191505060405180910390f35b6108d1611d22565b6040518082815260200191505060405180910390f35b610949600480360360408110156108fd57600080fd5b81019080803573ffffffffffffffffffffffffffffffffffffffff169060200190929190803573ffffffffffffffffffffffffffffffffffffffff169060200190929190505050611d28565b6040518082815260200191505060405180910390f35b6109a16004803603602081101561097557600080fd5b81019080803573ffffffffffffffffffffffffffffffffffffffff169060200190929190505050611d4d565b604051808215151515815260200191505060405180910390f35b600080600080600a9050600060099050600080600090506000670de0b6b3a7640000905060006109e9611513565b90506305f5e10081816109f857fe5b059050808a029950610a0a8b8b610f75565b93506000841415610a2657600198505050505050505050610ddf565b6000841215610a59577fffffffffffffffffffffffffffffffffffffffffffffffffffffffffffffffff84029350600192505b610a6284611da9565b9750600b54880297506103e88881610a7657fe5b049750600115158315151415610a965787600b5403600b81905550610aa2565b87600b5401600b819055505b60008090505b600880549050811015610d4f57610abe85611da9565b97506006600060088381548110610ad157fe5b9060005260206000200160009054906101000a900473ffffffffffffffffffffffffffffffffffffffff1673ffffffffffffffffffffffffffffffffffffffff1673ffffffffffffffffffffffffffffffffffffffff16815260200190815260200160002054880297506103e88881610b4657fe5b049750600115158415151415610c4e57876006600060088481548110610b6857fe5b9060005260206000200160009054906101000a900473ffffffffffffffffffffffffffffffffffffffff1673ffffffffffffffffffffffffffffffffffffffff1673ffffffffffffffffffffffffffffffffffffffff16815260200190815260200160002054036006600060088481548110610be057fe5b9060005260206000200160009054906101000a900473ffffffffffffffffffffffffffffffffffffffff1673ffffffffffffffffffffffffffffffffffffffff1673ffffffffffffffffffffffffffffffffffffffff16815260200190815260200160002081905550610d42565b876006600060088481548110610c6057fe5b9060005260206000200160009054906101000a900473ffffffffffffffffffffffffffffffffffffffff1673ffffffffffffffffffffffffffffffffffffffff1673ffffffffffffffffffffffffffffffffffffffff16815260200190815260200160002054016006600060088481548110610cd857fe5b9060005260206000200160009054906101000a900473ffffffffffffffffffffffffffffffffffffffff1673ffffffffffffffffffffffffffffffffffffffff1673ffffffffffffffffffffffffffffffffffffffff168152602001908152602001600020819055505b8080600101915050610aa8565b50601660009054906101000a900473ffffffffffffffffffffffffffffffffffffffff1673ffffffffffffffffffffffffffffffffffffffff1663fff6cae96040518163ffffffff1660e01b8152600401600060405180830381600087803b158015610dba57600080fd5b505af1158015610dce573d6000803e3d6000fd5b505050506001985050505050505050505b92915050565b600c8054600181600116156101000203166002900480601f016020809104026020016040519081016040528092919081815260200182805460018160011615610100020316600290048015610e7b5780601f10610e5057610100808354040283529160200191610e7b565b820191906000526020600020905b815481529060010190602001808311610e5e57829003601f168201915b505050505081565b600081600760003373ffffffffffffffffffffffffffffffffffffffff1673ffffffffffffffffffffffffffffffffffffffff16815260200190815260200160002060008573ffffffffffffffffffffffffffffffffffffffff1673ffffffffffffffffffffffffffffffffffffffff168152602001908152602001600020819055508273ffffffffffffffffffffffffffffffffffffffff163373ffffffffffffffffffffffffffffffffffffffff167f8c5be1e5ebec7d5bd14f71427d1e84f3dd0314c0f7b2291e5b200ac8c7c3b925846040518082815260200191505060405180910390a36001905092915050565b6000806103e8848403029050838181610f8a57fe5b0590508091505092915050565b601660009054906101000a900473ffffffffffffffffffffffffffffffffffffffff1681565b600b5481565b600081610fcf856115fc565b1015611043576040517f08c379a000000000000000000000000000000000000000000000000000000000815260040180806020018281038252600f8152602001807f62616c616e636520746f6f206c6f77000000000000000000000000000000000081525060200191505060405180910390fd5b81600760008673ffffffffffffffffffffffffffffffffffffffff1673ffffffffffffffffffffffffffffffffffffffff16815260200190815260200160002060003373ffffffffffffffffffffffffffffffffffffffff1673ffffffffffffffffffffffffffffffffffffffff168152602001908152602001600020541015611135576040517f08c379a00000000000000000000000000000000000000000000000000000000081526004018080602001828103825260118152602001807f616c6c6f77616e636520746f6f206c6f7700000000000000000000000000000081525060200191505060405180910390fd5b81600660008573ffffffffffffffffffffffffffffffffffffffff1673ffffffffffffffffffffffffffffffffffffffff1681526020019081526020016000206000828254019250508190555081600660008673ffffffffffffffffffffffffffffffffffffffff1673ffffffffffffffffffffffffffffffffffffffff168152602001908152602001600020600082825403925050819055508273ffffffffffffffffffffffffffffffffffffffff168473ffffffffffffffffffffffffffffffffffffffff167fddf252ad1be2c89b69c2b068fc378daa952ba7f163c4a11628f55a4df523b3ef846040518082815260200191505060405180910390a3600190509392505050565b60066020528060005260406000206000915090505481565b6008818154811061126457fe5b906000526020600020016000915054906101000a900473ffffffffffffffffffffffffffffffffffffffff1681565b600a5481565b60006112a482611d4d565b61135857600880549050600960008473ffffffffffffffffffffffffffffffffffffffff1673ffffffffffffffffffffffffffffffffffffffff1681526020019081526020016000208190555060088290806001815401808255809150509060018203906000526020600020016000909192909190916101000a81548173ffffffffffffffffffffffffffffffffffffffff021916908373ffffffffffffffffffffffffffffffffffffffff160217905550505b60019050919050565b6000600880549050905090565b816005600082815260200190815260200160002060009054906101000a900473ffffffffffffffffffffffffffffffffffffffff1673ffffffffffffffffffffffffffffffffffffffff163373ffffffffffffffffffffffffffffffffffffffff1614611426576040517f08c379a0000000000000000000000000000000000000000000000000000000008152600401808060200182810382526028815260200180612a4c6028913960400191505060405180910390fd5b6005600082815260200190815260200160002060006101000a81549073ffffffffffffffffffffffffffffffffffffffff0219169055807f7cc135e0cebb02c3480ae5d74d377283180a2601f8f644edf7987b009316c63a60405160405180910390a2816013819055506000601354146114a3576114a261193f565b5b505050565b60008173ffffffffffffffffffffffffffffffffffffffff1663fff6cae96040518163ffffffff1660e01b8152600401600060405180830381600087803b1580156114f257600080fd5b505af1158015611506573d6000803e3d6000fd5b5050505060019050919050565b600080600080600080601760009054906101000a900473ffffffffffffffffffffffffffffffffffffffff1673ffffffffffffffffffffffffffffffffffffffff1663feaf968c6040518163ffffffff1660e01b815260040160a06040518083038186803b15801561158457600080fd5b505afa158015611598573d6000803e3d6000fd5b505050506040513d60a08110156115ae57600080fd5b81019080805190602001909291908051906020019092919080519060200190929190805190602001909291908051906020019092919050505094509450945094509450839550505050505090565b6000600660008373ffffffffffffffffffffffffffffffffffffffff1673ffffffffffffffffffffffffffffffffffffffff168152602001908152602001600020549050919050565b60008084905084601660006101000a81548173ffffffffffffffffffffffffffffffffffffffff021916908373ffffffffffffffffffffffffffffffffffffffff1602179055506000806000851415611761578273ffffffffffffffffffffffffffffffffffffffff16630902f1ac6040518163ffffffff1660e01b815260040160606040518083038186803b1580156116de57600080fd5b505afa1580156116f2573d6000803e3d6000fd5b505050506040513d606081101561170857600080fd5b81019080805190602001909291908051906020019092919080519060200190929190505050826dffffffffffffffffffffffffffff169250816dffffffffffffffffffffffffffff169150508093508192505050611826565b8273ffffffffffffffffffffffffffffffffffffffff16630902f1ac6040518163ffffffff1660e01b815260040160606040518083038186803b1580156117a757600080fd5b505afa1580156117bb573d6000803e3d6000fd5b505050506040513d60608110156117d157600080fd5b81019080805190602001909291908051906020019092919080519060200190929190505050826dffffffffffffffffffffffffffff169250816dffffffffffffffffffffffffffff1691505080925081935050505b6000670de0b6b3a764000082029050828188028161184057fe5b0460128190555061185088611299565b50611859611b96565b5060019450505050509392505050565b60125481565b60135481565b601560009054906101000a900473ffffffffffffffffffffffffffffffffffffffff1681565b600d8054600181600116156101000203166002900480601f0160208091040260200160405190810160405280929190818152602001828054600181600116156101000203166002900480156119315780601f1061190657610100808354040283529160200191611931565b820191906000526020600020905b81548152906001019060200180831161191457829003601f168201915b505050505081565b60115481565b61194d6013546012546109bb565b50565b60008161195c336115fc565b10156119d0576040517f08c379a000000000000000000000000000000000000000000000000000000000815260040180806020018281038252600f8152602001807f62616c616e636520746f6f206c6f77000000000000000000000000000000000081525060200191505060405180910390fd5b81600660008573ffffffffffffffffffffffffffffffffffffffff1673ffffffffffffffffffffffffffffffffffffffff1681526020019081526020016000206000828254019250508190555081600660003373ffffffffffffffffffffffffffffffffffffffff1673ffffffffffffffffffffffffffffffffffffffff16815260200190815260200160002060008282540392505081905550611a7383611d4d565b611b2757600880549050600960008573ffffffffffffffffffffffffffffffffffffffff1673ffffffffffffffffffffffffffffffffffffffff1681526020019081526020016000208190555060088390806001815401808255809150509060018203906000526020600020016000909192909190916101000a81548173ffffffffffffffffffffffffffffffffffffffff021916908373ffffffffffffffffffffffffffffffffffffffff160217905550505b8273ffffffffffffffffffffffffffffffffffffffff163373ffffffffffffffffffffffffffffffffffffffff167fddf252ad1be2c89b69c2b068fc378daa952ba7f163c4a11628f55a4df523b3ef846040518082815260200191505060405180910390a36001905092915050565b6000611ba061292a565b611bb4600f5430634357855e60e01b611dd7565b9050611c186040518060400160405280600381526020017f67657400000000000000000000000000000000000000000000000000000000008152506040518060800160405280605d81526020016129ef605d913983611e089092919063ffffffff16565b611c976040518060400160405280600481526020017f70617468000000000000000000000000000000000000000000000000000000008152506040518060400160405280600781526020017f302e70726963650000000000000000000000000000000000000000000000000081525083611e089092919063ffffffff16565b6000655af3107a40009050611cec6040518060400160405280600581526020017f74696d65730000000000000000000000000000000000000000000000000000008152508284611e3b9092919063ffffffff16565b611d1b600e60009054906101000a900473ffffffffffffffffffffffffffffffffffffffff1683601054611e6e565b9250505090565b60145481565b6007602052816000526040600020602052806000526040600020600091509150505481565b600080600960008473ffffffffffffffffffffffffffffffffffffffff1673ffffffffffffffffffffffffffffffffffffffff168152602001908152602001600020541115611d9f5760019050611da4565b600090505b919050565b600060ff6001901b821415611dbd57600080fd5b60008212611dcb5781611dd0565b816000035b9050919050565b611ddf61292a565b611de761292a565b611dfe85858584612126909392919063ffffffff16565b9150509392505050565b611e1f8284608001516121d690919063ffffffff16565b611e368184608001516121d690919063ffffffff16565b505050565b611e528284608001516121d690919063ffffffff16565b611e698184608001516121fb90919063ffffffff16565b505050565b600030600454604051602001808373ffffffffffffffffffffffffffffffffffffffff1673ffffffffffffffffffffffffffffffffffffffff1660601b815260140182815260200192505050604051602081830303815290604052805190602001209050600454836060018181525050836005600083815260200190815260200160002060006101000a81548173ffffffffffffffffffffffffffffffffffffffff021916908373ffffffffffffffffffffffffffffffffffffffff160217905550807fb5e6e01e79f91267dc17b4e6314d5d4d03593d2ceee0fbb452b750bd70ea5af960405160405180910390a2600260009054906101000a900473ffffffffffffffffffffffffffffffffffffffff1673ffffffffffffffffffffffffffffffffffffffff16634000aea08584611fa68761229f565b6040518463ffffffff1660e01b8152600401808473ffffffffffffffffffffffffffffffffffffffff1673ffffffffffffffffffffffffffffffffffffffff16815260200183815260200180602001828103825283818151815260200191508051906020019080838360005b8381101561202d578082015181840152602081019050612012565b50505050905090810190601f16801561205a5780820380516001836020036101000a031916815260200191505b50945050505050602060405180830381600087803b15801561207b57600080fd5b505af115801561208f573d6000803e3d6000fd5b505050506040513d60208110156120a557600080fd5b810190808051906020019092919050505061210b576040517f08c379a00000000000000000000000000000000000000000000000000000000081526004018080602001828103825260238152602001806129cc6023913960400191505060405180910390fd5b60016004600082825401925050819055508090509392505050565b61212e61292a565b61213e85608001516101006124a6565b508385600001818152505082856020019073ffffffffffffffffffffffffffffffffffffffff16908173ffffffffffffffffffffffffffffffffffffffff16815250508185604001907bffffffffffffffffffffffffffffffffffffffffffffffffffffffff191690817bffffffffffffffffffffffffffffffffffffffffffffffffffffffff191681525050849050949350505050565b6121e382600383516124fa565b6121f6818361263f90919063ffffffff16565b505050565b7fffffffffffffffffffffffffffffffffffffffffffffffff00000000000000008112156122325761222d8282612661565b61229b565b67ffffffffffffffff8113156122515761224c82826126cf565b61229a565b6000811261226a57612265826000836124fa565b612299565b612298826001837fffffffffffffffffffffffffffffffffffffffffffffffffffffffffffffffff036124fa565b5b5b5b5050565b6060600360009054906101000a900473ffffffffffffffffffffffffffffffffffffffff1673ffffffffffffffffffffffffffffffffffffffff166340429946905060e01b60008084600001518560200151866040015187606001516001896080015160000151604051602401808973ffffffffffffffffffffffffffffffffffffffff1673ffffffffffffffffffffffffffffffffffffffff1681526020018881526020018781526020018673ffffffffffffffffffffffffffffffffffffffff1673ffffffffffffffffffffffffffffffffffffffff168152602001857bffffffffffffffffffffffffffffffffffffffffffffffffffffffff19167bffffffffffffffffffffffffffffffffffffffffffffffffffffffff1916815260200184815260200183815260200180602001828103825283818151815260200191508051906020019080838360005b838110156124095780820151818401526020810190506123ee565b50505050905090810190601f1680156124365780820380516001836020036101000a031916815260200191505b509950505050505050505050604051602081830303815290604052907bffffffffffffffffffffffffffffffffffffffffffffffffffffffff19166020820180517bffffffffffffffffffffffffffffffffffffffffffffffffffffffff83818316178352505050509050919050565b6124ae612997565b6000602083816124ba57fe5b06146124d357602082816124ca57fe5b06602003820191505b81836020018181525050604051808452600081528281016020016040525082905092915050565b60178111612527576125218160058460ff16901b60ff16178461271b90919063ffffffff16565b5061263a565b60ff81116125695761254c601860058460ff16901b178461271b90919063ffffffff16565b506125638160018561273b9092919063ffffffff16565b50612639565b61ffff81116125ac5761258f601960058460ff16901b178461271b90919063ffffffff16565b506125a68160028561273b9092919063ffffffff16565b50612638565b63ffffffff81116125f1576125d4601a60058460ff16901b178461271b90919063ffffffff16565b506125eb8160048561273b9092919063ffffffff16565b50612637565b67ffffffffffffffff81116126365761261d601b60058460ff16901b178461271b90919063ffffffff16565b506126348160088561273b9092919063ffffffff16565b505b5b5b5b5b505050565b612647612997565b6126598384600001515184855161275d565b905092915050565b61267f60036005600660ff16901b178361271b90919063ffffffff16565b506126cb82827fffffffffffffffffffffffffffffffffffffffffffffffffffffffffffffffff0360405160200180828152602001915050604051602081830303815290604052612816565b5050565b6126ed60026005600660ff16901b178361271b90919063ffffffff16565b50612717828260405160200180828152602001915050604051602081830303815290604052612816565b5050565b612723612997565b612733838460000151518461283b565b905092915050565b612743612997565b612754848560000151518585612889565b90509392505050565b612765612997565b825182111561277357600080fd5b8460200151828501111561279e5761279d85600261279788602001518887016128ea565b02612906565b5b6000808651805187602083010193508088870111156127bd5787860182525b60208701925050505b602084106127e957805182526020820191506020810190506020840393506127c6565b60006001856020036101000a03905080198251168184511681811785525050879350505050949350505050565b61282382600283516124fa565b612836818361263f90919063ffffffff16565b505050565b612843612997565b836020015183106128605761285f846002866020015102612906565b5b835180516020858301018481538186141561287c576001820183525b5050508390509392505050565b612891612997565b846020015184830111156128af576128ae85600286850102612906565b5b60006001836101000a03905085518386820101858319825116178152815185880111156128dc5784870182525b505085915050949350505050565b6000818311156128fc57829050612900565b8190505b92915050565b60608260000151905061291983836124a6565b50612924838261263f565b50505050565b6040518060a0016040528060008019168152602001600073ffffffffffffffffffffffffffffffffffffffff16815260200160007bffffffffffffffffffffffffffffffffffffffffffffffffffffffff19168152602001600081526020016129916129b1565b81525090565b604051806040016040528060608152602001600081525090565b60405180604001604052806060815260200160008152509056fe756e61626c6520746f207472616e73666572416e6443616c6c20746f206f7261636c6568747470733a2f2f66696e616e6369616c6d6f64656c696e67707265702e636f6d2f6170692f76332f71756f74652f2535454e44583f6170696b65793d3736383066393831613234356534323264313665313632326234626163303765536f75726365206d75737420626520746865206f7261636c65206f66207468652072657175657374a265627a7a72315820f125bc9c63377de7b01123d642216bcc0ef39011caa7f6e11eff6fef7f437c4964736f6c63430005100032",
  "source": "pragma solidity ^0.5.16;\n\nimport \"@chainlink/contracts/src/v0.5/ChainlinkClient.sol\";\nimport \"@uniswap/v2-core/contracts/UniswapV2Pair.sol\";\nimport \"@chainlink/contracts/src/v0.5/interfaces/AggregatorV3Interface.sol\";\n\n\n\nimport \"./IndexProtocol.sol\";\nimport \"./lib/SafeMathInt.sol\";\nimport \"./lib/UInt256Lib.sol\";\n\n\ninterface ISync {\n    function sync() external;\n}\n\ncontract Oracle is ChainlinkClient, IndexProtocol {\n\n    using Chainlink for Chainlink.Request;\n    using SafeMathInt for int256;\n    using UInt256Lib for uint256;\n\n    address private oracle;\n    bytes32 private jobId;\n    uint256 private fee;\n \n    uint256 public price;\n    uint256 public oracleMarket;\n    uint256 public oracleTarget;\n    uint256 public volume;\n\n    address public uniswapV3PoolAddress;\n\n    address public poolAddress;\n\n    event Rebase(address indexed caller, uint targetPrice, uint marketPrice, uint change);\n\n    AggregatorV3Interface internal priceFeed;\n\n    constructor() public {\n\n        setPublicChainlinkToken();\n\n        //For testing\n        oracle = 0x3A56aE4a2831C3d3514b5D7Af5578E45eBDb7a40;\n        jobId = \"3b7ca0d48c7a4b2da9268456665d11ae\";\n        fee = 0.1 * 10 ** 18; // 0.1 LINK\n\n        //price feed\n        priceFeed = AggregatorV3Interface(0x8A753747A1Fa494EC906cE90E9f37563A8AF630e);\n\n    }\n\n    function getTargetPrice() public returns (bytes32 requestId) \n    {\n        Chainlink.Request memory request = buildChainlinkRequest(jobId, address(this), this.fulfill.selector);\n        \n        request.add(\"get\", \"https://financialmodelingprep.com/api/v3/quote/%5ENDX?apikey=7680f981a245e422d16e1622b4bac07e\");        \n        \n        request.add(\"path\", \"0.price\");\n        \n        // Multiply the result by 1000000000000000000 to remove decimals\n        int timesAmount = 10**14;\n        request.addInt(\"times\", timesAmount);\n        \n        // Sends the request\n        return sendChainlinkRequestTo(oracle, request, fee);\n    }\n    function fulfill(bytes32 _requestId, uint256 _targetPrice) public recordChainlinkFulfillment(_requestId)\n    {\n        oracleTarget = _targetPrice;\n        //price = _price;\n\n        if (oracleTarget != 0){\n            \n            callRebase();\n        }\n\n        \n        \n    }\n\n    function callRebase() public {\n\n        rebase(oracleTarget, oracleMarket);\n    }\n\n\n    function getMarketPrice(address pairAddress, uint amount, uint switchToken) public returns (bool)\n       {\n        IUniswapV2Pair pair = IUniswapV2Pair(pairAddress);\n\n        poolAddress = pairAddress;\n\n        uint Res1;\n        uint Res0;\n\n        if (switchToken == 0){\n            (Res0, Res1,) = pair.getReserves();\n        } else {\n            (Res1, Res0,) = pair.getReserves();\n        }\n\n        // decimals\n        uint res0 = Res0*(10**18);\n        \n        oracleMarket = ((amount*res0)/Res1);\n\n        addAddress(pairAddress);\n        \n        getTargetPrice();\n        \n        return true;\n       }\n       \n    function poolSync(address pool) public returns (bool){\n        ISync(pool).sync();\n        return true;\n    }\n\n    function getEthPrice() public view returns(int){\n        (\n            uint80 roundID, \n            int price,\n            uint startedAt,\n            uint timeStamp,\n            uint80 answeredInRound\n        ) = priceFeed.latestRoundData();\n        return price;\n    }\n\n    function deltaChange(uint targetPrice, uint marketPrice) public returns (int){\n        \n        int change = (int(marketPrice) - int(targetPrice)) * 1000;\n        change = (change / int(targetPrice));\n        return change;\n        \n        // return (int(x) / 1000) * -500;\n    }\n    \n    \n    \n    function rebase(uint256 oracleTarget, uint256 oracleMarket) public returns (bool){\n        \n        \n\n        // uint256 change = 1;\n        uint256 supplyDelta;\n        uint256 userDelta;\n        uint256 targetPrice = 10;\n        uint256 marketPrice = 9;\n        int256 change;\n        bool neg = false;\n        \n        \n        uint timesAmount = 10**18;\n        \n\n        //eth price 3000 \n        //oracleMarket *= 3000;\n\n        //get eth price\n        int price = getEthPrice();\n        price /= 10**8;\n        oracleMarket *= uint256(price);\n        \n        \n        change = deltaChange(oracleTarget, oracleMarket);\n\n        \n        if (change == 0){\n            //No rebase needed\n            return true;\n        }\n        \n        if (change < 0) {\n            change = change * -1;\n            neg = true;\n            }\n        \n        //emit Rebase(msg.sender, oracleTarget, oracleMarket, uint256(change.abs()));\n            \n        supplyDelta = uint256(change.abs());\n        supplyDelta *= totalSupply;\n        supplyDelta /= 1000;\n        \n        \n        //Split or merge token supply\n        if (neg == true){\n            totalSupply = totalSupply - supplyDelta;\n        } else{\n            totalSupply = totalSupply + supplyDelta;\n        }\n        \n        \n        //Split or merge user balance\n        for (uint i = 0; i < holders.length; i++) {\n            \n            userDelta = uint256(change.abs());\n            userDelta *= balances[holders[i]];\n            userDelta /= 1000;\n       \n            //rebase user supply\n            if (neg == true){\n                balances[holders[i]] = balances[holders[i]] - userDelta;\n            } else{\n                balances[holders[i]] = balances[holders[i]] + userDelta;\n            }\n            \n        }\n\n        ISync(poolAddress).sync();\n        \n        return true;\n    }\n\n    \n\n}",
  "sourcePath": "/Users/mac/Desktop/repos/indexprotocol/contracts/Oracle.sol",
  "compiler": {
    "name": "solc",
    "version": "0.5.16+commit.9c3226ce.Emscripten.clang"
  },
  "schemaVersion": "3.4.2",
  "updatedAt": "2021-08-14T18:56:29.263Z",
  "networkType": "ethereum",
  "devdoc": {
    "methods": {}
  },
  "userdoc": {
    "methods": {}
  }
}