{
  "contractName": "Oracle",
  "abi": [
    {
      "inputs": [],
      "stateMutability": "nonpayable",
      "type": "constructor"
    },
    {
      "anonymous": false,
      "inputs": [
        {
          "indexed": true,
          "internalType": "address",
          "name": "owner",
          "type": "address"
        },
        {
          "indexed": true,
          "internalType": "address",
          "name": "spender",
          "type": "address"
        },
        {
          "indexed": false,
          "internalType": "uint256",
          "name": "value",
          "type": "uint256"
        }
      ],
      "name": "Approval",
      "type": "event"
    },
    {
      "anonymous": false,
      "inputs": [
        {
          "indexed": true,
          "internalType": "bytes32",
          "name": "id",
          "type": "bytes32"
        }
      ],
      "name": "ChainlinkCancelled",
      "type": "event"
    },
    {
      "anonymous": false,
      "inputs": [
        {
          "indexed": true,
          "internalType": "bytes32",
          "name": "id",
          "type": "bytes32"
        }
      ],
      "name": "ChainlinkFulfilled",
      "type": "event"
    },
    {
      "anonymous": false,
      "inputs": [
        {
          "indexed": true,
          "internalType": "bytes32",
          "name": "id",
          "type": "bytes32"
        }
      ],
      "name": "ChainlinkRequested",
      "type": "event"
    },
    {
      "anonymous": false,
      "inputs": [
        {
          "indexed": true,
          "internalType": "address",
          "name": "caller",
          "type": "address"
        },
        {
          "indexed": false,
          "internalType": "uint256",
          "name": "targetPrice",
          "type": "uint256"
        },
        {
          "indexed": false,
          "internalType": "uint256",
          "name": "marketPrice",
          "type": "uint256"
        },
        {
          "indexed": false,
          "internalType": "uint256",
          "name": "change",
          "type": "uint256"
        }
      ],
      "name": "Rebase",
      "type": "event"
    },
    {
      "anonymous": false,
      "inputs": [
        {
          "indexed": true,
          "internalType": "address",
          "name": "from",
          "type": "address"
        },
        {
          "indexed": true,
          "internalType": "address",
          "name": "to",
          "type": "address"
        },
        {
          "indexed": false,
          "internalType": "uint256",
          "name": "value",
          "type": "uint256"
        }
      ],
      "name": "Transfer",
      "type": "event"
    },
    {
      "inputs": [],
      "name": "FACTORY",
      "outputs": [
        {
          "internalType": "address",
          "name": "",
          "type": "address"
        }
      ],
      "stateMutability": "view",
      "type": "function",
      "constant": true
    },
    {
      "inputs": [
        {
          "internalType": "address",
          "name": "who",
          "type": "address"
        }
      ],
      "name": "addAddress",
      "outputs": [
        {
          "internalType": "bool",
          "name": "",
          "type": "bool"
        }
      ],
      "stateMutability": "nonpayable",
      "type": "function"
    },
    {
      "inputs": [
        {
          "internalType": "address",
          "name": "",
          "type": "address"
        },
        {
          "internalType": "address",
          "name": "",
          "type": "address"
        }
      ],
      "name": "allowance",
      "outputs": [
        {
          "internalType": "uint256",
          "name": "",
          "type": "uint256"
        }
      ],
      "stateMutability": "view",
      "type": "function",
      "constant": true
    },
    {
      "inputs": [
        {
          "internalType": "address",
          "name": "spender",
          "type": "address"
        },
        {
          "internalType": "uint256",
          "name": "value",
          "type": "uint256"
        }
      ],
      "name": "approve",
      "outputs": [
        {
          "internalType": "bool",
          "name": "",
          "type": "bool"
        }
      ],
      "stateMutability": "nonpayable",
      "type": "function"
    },
    {
      "inputs": [
        {
          "internalType": "address",
          "name": "owner",
          "type": "address"
        }
      ],
      "name": "balanceOf",
      "outputs": [
        {
          "internalType": "uint256",
          "name": "",
          "type": "uint256"
        }
      ],
      "stateMutability": "view",
      "type": "function",
      "constant": true
    },
    {
      "inputs": [
        {
          "internalType": "address",
          "name": "",
          "type": "address"
        }
      ],
      "name": "balances",
      "outputs": [
        {
          "internalType": "uint256",
          "name": "",
          "type": "uint256"
        }
      ],
      "stateMutability": "view",
      "type": "function",
      "constant": true
    },
    {
      "inputs": [],
      "name": "countAddress",
      "outputs": [
        {
          "internalType": "uint256",
          "name": "",
          "type": "uint256"
        }
      ],
      "stateMutability": "view",
      "type": "function",
      "constant": true
    },
    {
      "inputs": [],
      "name": "decimals",
      "outputs": [
        {
          "internalType": "uint256",
          "name": "",
          "type": "uint256"
        }
      ],
      "stateMutability": "view",
      "type": "function",
      "constant": true
    },
    {
      "inputs": [
        {
          "internalType": "uint256",
          "name": "targetPrice",
          "type": "uint256"
        },
        {
          "internalType": "uint256",
          "name": "marketPrice",
          "type": "uint256"
        }
      ],
      "name": "deltaChange",
      "outputs": [
        {
          "internalType": "int256",
          "name": "",
          "type": "int256"
        }
      ],
      "stateMutability": "nonpayable",
      "type": "function"
    },
    {
      "inputs": [
        {
          "internalType": "uint256",
          "name": "",
          "type": "uint256"
        }
      ],
      "name": "holders",
      "outputs": [
        {
          "internalType": "address",
          "name": "",
          "type": "address"
        }
      ],
      "stateMutability": "view",
      "type": "function",
      "constant": true
    },
    {
      "inputs": [
        {
          "internalType": "address",
          "name": "who",
          "type": "address"
        }
      ],
      "name": "inArray",
      "outputs": [
        {
          "internalType": "bool",
          "name": "",
          "type": "bool"
        }
      ],
      "stateMutability": "view",
      "type": "function",
      "constant": true
    },
    {
      "inputs": [],
      "name": "name",
      "outputs": [
        {
          "internalType": "string",
          "name": "",
          "type": "string"
        }
      ],
      "stateMutability": "view",
      "type": "function",
      "constant": true
    },
    {
      "inputs": [],
      "name": "oracleMarket",
      "outputs": [
        {
          "internalType": "uint256",
          "name": "",
          "type": "uint256"
        }
      ],
      "stateMutability": "view",
      "type": "function",
      "constant": true
    },
    {
      "inputs": [],
      "name": "oracleTarget",
      "outputs": [
        {
          "internalType": "uint256",
          "name": "",
          "type": "uint256"
        }
      ],
      "stateMutability": "view",
      "type": "function",
      "constant": true
    },
    {
      "inputs": [],
      "name": "price",
      "outputs": [
        {
          "internalType": "uint256",
          "name": "",
          "type": "uint256"
        }
      ],
      "stateMutability": "view",
      "type": "function",
      "constant": true
    },
    {
      "inputs": [
        {
          "internalType": "uint256",
          "name": "oracleTarget",
          "type": "uint256"
        },
        {
          "internalType": "uint256",
          "name": "oracleMarket",
          "type": "uint256"
        }
      ],
      "name": "rebasefunction",
      "outputs": [
        {
          "internalType": "bool",
          "name": "",
          "type": "bool"
        }
      ],
      "stateMutability": "nonpayable",
      "type": "function"
    },
    {
      "inputs": [],
      "name": "symbol",
      "outputs": [
        {
          "internalType": "string",
          "name": "",
          "type": "string"
        }
      ],
      "stateMutability": "view",
      "type": "function",
      "constant": true
    },
    {
      "inputs": [],
      "name": "totalSupply",
      "outputs": [
        {
          "internalType": "uint256",
          "name": "",
          "type": "uint256"
        }
      ],
      "stateMutability": "view",
      "type": "function",
      "constant": true
    },
    {
      "inputs": [
        {
          "internalType": "address",
          "name": "to",
          "type": "address"
        },
        {
          "internalType": "uint256",
          "name": "value",
          "type": "uint256"
        }
      ],
      "name": "transfer",
      "outputs": [
        {
          "internalType": "bool",
          "name": "",
          "type": "bool"
        }
      ],
      "stateMutability": "nonpayable",
      "type": "function"
    },
    {
      "inputs": [
        {
          "internalType": "address",
          "name": "from",
          "type": "address"
        },
        {
          "internalType": "address",
          "name": "to",
          "type": "address"
        },
        {
          "internalType": "uint256",
          "name": "value",
          "type": "uint256"
        }
      ],
      "name": "transferFrom",
      "outputs": [
        {
          "internalType": "bool",
          "name": "",
          "type": "bool"
        }
      ],
      "stateMutability": "nonpayable",
      "type": "function"
    },
    {
      "inputs": [],
      "name": "uniswapV3PoolAddress",
      "outputs": [
        {
          "internalType": "address",
          "name": "",
          "type": "address"
        }
      ],
      "stateMutability": "view",
      "type": "function",
      "constant": true
    },
    {
      "inputs": [],
      "name": "volume",
      "outputs": [
        {
          "internalType": "uint256",
          "name": "",
          "type": "uint256"
        }
      ],
      "stateMutability": "view",
      "type": "function",
      "constant": true
    },
    {
      "inputs": [],
      "name": "query",
      "outputs": [
        {
          "internalType": "bytes32",
          "name": "requestId",
          "type": "bytes32"
        }
      ],
      "stateMutability": "nonpayable",
      "type": "function"
    },
    {
      "inputs": [
        {
          "internalType": "bytes32",
          "name": "_requestId",
          "type": "bytes32"
        },
        {
          "internalType": "uint256",
          "name": "_price",
          "type": "uint256"
        }
      ],
      "name": "fulfill",
      "outputs": [],
      "stateMutability": "nonpayable",
      "type": "function"
    },
    {
      "inputs": [],
      "name": "oracleMarketPrice",
      "outputs": [
        {
          "internalType": "bytes32",
          "name": "requestId",
          "type": "bytes32"
        }
      ],
      "stateMutability": "nonpayable",
      "type": "function"
    },
    {
      "inputs": [
        {
          "internalType": "bytes32",
          "name": "_requestId",
          "type": "bytes32"
        },
        {
          "internalType": "uint256",
          "name": "_volume",
          "type": "uint256"
        }
      ],
      "name": "fulfillMarket",
      "outputs": [],
      "stateMutability": "nonpayable",
      "type": "function"
    },
    {
      "inputs": [
        {
          "internalType": "uint32",
          "name": "s0",
          "type": "uint32"
        },
        {
          "internalType": "uint32",
          "name": "s1",
          "type": "uint32"
        },
        {
          "internalType": "address",
          "name": "pool",
          "type": "address"
        }
      ],
      "name": "marketOracle",
      "outputs": [
        {
          "internalType": "uint160",
          "name": "",
          "type": "uint160"
        }
      ],
      "stateMutability": "nonpayable",
      "type": "function"
    },
    {
      "inputs": [],
      "name": "callRebase",
      "outputs": [],
      "stateMutability": "nonpayable",
      "type": "function"
    },
    {
      "inputs": [
        {
          "internalType": "address",
          "name": "token1",
          "type": "address"
        },
        {
          "internalType": "address",
          "name": "token2",
          "type": "address"
        }
      ],
      "name": "getPool",
      "outputs": [
        {
          "internalType": "address",
          "name": "",
          "type": "address"
        }
      ],
      "stateMutability": "view",
      "type": "function",
      "constant": true
    }
  ],
  "bytecode": "0x608060405260016004556012600a55600a54600a6200001f9190620004fe565b620186a06200002f91906200063b565b600b556040518060400160405280600d81526020017f496e64657850726f746f636f6c00000000000000000000000000000000000000815250600c90805190602001906200007f929190620003b0565b506040518060400160405280600481526020017f494e445800000000000000000000000000000000000000000000000000000000815250600d9080519060200190620000cd929190620003b0565b50348015620000db57600080fd5b50600b54600660003373ffffffffffffffffffffffffffffffffffffffff1673ffffffffffffffffffffffffffffffffffffffff168152602001908152602001600020819055506008339080600181540180825580915050600190039060005260206000200160009091909190916101000a81548173ffffffffffffffffffffffffffffffffffffffff021916908373ffffffffffffffffffffffffffffffffffffffff160217905550600880549050600960003373ffffffffffffffffffffffffffffffffffffffff1673ffffffffffffffffffffffffffffffffffffffff16815260200190815260200160002081905550620001de620002c460201b60201c565b733a56ae4a2831c3d3514b5d7af5578e45ebdb7a40600e60006101000a81548173ffffffffffffffffffffffffffffffffffffffff021916908373ffffffffffffffffffffffffffffffffffffffff1602179055507f3362376361306434386337613462326461393236383435363636356431316165600f8190555067016345785d8a000060108190555073eecac0f984c6b69888c63d681a1731c4ac79bdc9601560006101000a81548173ffffffffffffffffffffffffffffffffffffffff021916908373ffffffffffffffffffffffffffffffffffffffff16021790555062000795565b6200036a73c89bd4e1632d3a43cb03aaad5262cbe4038bc57173ffffffffffffffffffffffffffffffffffffffff166338cc48316040518163ffffffff1660e01b815260040160206040518083038186803b1580156200032357600080fd5b505afa15801562000338573d6000803e3d6000fd5b505050506040513d601f19601f820116820180604052508101906200035e919062000477565b6200036c60201b60201c565b565b80600260006101000a81548173ffffffffffffffffffffffffffffffffffffffff021916908373ffffffffffffffffffffffffffffffffffffffff16021790555050565b828054620003be90620006da565b90600052602060002090601f016020900481019282620003e257600085556200042e565b82601f10620003fd57805160ff19168380011785556200042e565b828001600101855582156200042e579182015b828111156200042d57825182559160200191906001019062000410565b5b5090506200043d919062000441565b5090565b5b808211156200045c57600081600090555060010162000442565b5090565b60008151905062000471816200077b565b92915050565b6000602082840312156200048a57600080fd5b60006200049a8482850162000460565b91505092915050565b6000808291508390505b6001851115620004f557808604811115620004cd57620004cc62000710565b5b6001851615620004dd5780820291505b8081029050620004ed856200076e565b9450620004ad565b94509492505050565b60006200050b82620006d0565b91506200051883620006d0565b9250620005477fffffffffffffffffffffffffffffffffffffffffffffffffffffffffffffffff84846200054f565b905092915050565b60008262000561576001905062000634565b8162000571576000905062000634565b81600181146200058a57600281146200059557620005cb565b600191505062000634565b60ff841115620005aa57620005a962000710565b5b8360020a915084821115620005c457620005c362000710565b5b5062000634565b5060208310610133831016604e8410600b8410161715620006055782820a905083811115620005ff57620005fe62000710565b5b62000634565b620006148484846001620004a3565b925090508184048111156200062e576200062d62000710565b5b81810290505b9392505050565b60006200064882620006d0565b91506200065583620006d0565b9250817fffffffffffffffffffffffffffffffffffffffffffffffffffffffffffffffff048311821515161562000691576200069062000710565b5b828202905092915050565b6000620006a982620006b0565b9050919050565b600073ffffffffffffffffffffffffffffffffffffffff82169050919050565b6000819050919050565b60006002820490506001821680620006f357607f821691505b602082108114156200070a57620007096200073f565b5b50919050565b7f4e487b7100000000000000000000000000000000000000000000000000000000600052601160045260246000fd5b7f4e487b7100000000000000000000000000000000000000000000000000000000600052602260045260246000fd5b60008160011c9050919050565b62000786816200069c565b81146200079257600080fd5b50565b6143da80620007a56000396000f3fe608060405234801561001057600080fd5b50600436106101cf5760003560e01c8063531aa03e1161010457806395d89b41116100a2578063c618a1e411610071578063c618a1e414610570578063cd121b6b1461058e578063dd62ed3e146105ac578063deac4659146105dc576101cf565b806395d89b41146104fa578063a035b1fe14610518578063a588d7d214610536578063a9059cbb14610540576101cf565b8063837e7560116100de578063837e756014610484578063867bf465146104a05780638de079d9146104be578063902609ed146104dc576101cf565b8063531aa03e146103f457806370a08231146104245780637d3f385114610454576101cf565b80632c46b2051161017157806338eada1c1161014b57806338eada1c1461035a57806342154e9c1461038a5780634357855e146103a8578063485894f9146103c4576101cf565b80632c46b205146103005780632dd310001461031e578063313ce5671461033c576101cf565b806318160ddd116101ad57806318160ddd1461025257806323b872dd1461027057806327e235e3146102a05780632a11ced0146102d0576101cf565b806306fdde03146101d4578063095ea7b3146101f257806311d1ab6b14610222575b600080fd5b6101dc61060c565b6040516101e99190613690565b60405180910390f35b61020c60048036038101906102079190613032565b61069a565b604051610219919061363f565b60405180910390f35b61023c60048036038101906102379190613168565b61078c565b6040516102499190613675565b60405180910390f35b61025a6107c2565b604051610267919061374d565b60405180910390f35b61028a60048036038101906102859190612fe3565b6107c8565b604051610297919061363f565b60405180910390f35b6102ba60048036038101906102b59190612f55565b6109f0565b6040516102c7919061374d565b60405180910390f35b6102ea60048036038101906102e5919061313f565b610a08565b6040516102f79190613508565b60405180910390f35b610308610a47565b604051610315919061365a565b60405180910390f35b610326610bcd565b6040516103339190613508565b60405180910390f35b610344610be5565b604051610351919061374d565b60405180910390f35b610374600480360381019061036f9190612f55565b610beb565b604051610381919061363f565b60405180910390f35b610392610cb0565b60405161039f919061374d565b60405180910390f35b6103c260048036038101906103bd9190613103565b610cbd565b005b6103de60048036038101906103d99190613168565b610de8565b6040516103eb919061363f565b60405180910390f35b61040e60048036038101906104099190612fa7565b6112d8565b60405161041b9190613508565b60405180910390f35b61043e60048036038101906104399190612f55565b61138a565b60405161044b919061374d565b60405180910390f35b61046e600480360381019061046991906131a4565b6113d3565b60405161047b9190613732565b60405180910390f35b61049e60048036038101906104999190613103565b611865565b005b6104a8611997565b6040516104b5919061374d565b60405180910390f35b6104c661199d565b6040516104d3919061374d565b60405180910390f35b6104e46119a3565b6040516104f19190613508565b60405180910390f35b6105026119c9565b60405161050f9190613690565b60405180910390f35b610520611a57565b60405161052d919061374d565b60405180910390f35b61053e611a5d565b005b61055a60048036038101906105559190613032565b611a6e565b604051610567919061363f565b60405180910390f35b610578611c90565b604051610585919061374d565b60405180910390f35b610596611c96565b6040516105a3919061365a565b60405180910390f35b6105c660048036038101906105c19190612fa7565b611e1d565b6040516105d3919061374d565b60405180910390f35b6105f660048036038101906105f19190612f55565b611e42565b604051610603919061363f565b60405180910390f35b600c805461061990613ffe565b80601f016020809104026020016040519081016040528092919081815260200182805461064590613ffe565b80156106925780601f1061066757610100808354040283529160200191610692565b820191906000526020600020905b81548152906001019060200180831161067557829003601f168201915b505050505081565b600081600760003373ffffffffffffffffffffffffffffffffffffffff1673ffffffffffffffffffffffffffffffffffffffff16815260200190815260200160002060008573ffffffffffffffffffffffffffffffffffffffff1673ffffffffffffffffffffffffffffffffffffffff168152602001908152602001600020819055508273ffffffffffffffffffffffffffffffffffffffff163373ffffffffffffffffffffffffffffffffffffffff167f8c5be1e5ebec7d5bd14f71427d1e84f3dd0314c0f7b2291e5b200ac8c7c3b9258460405161077a919061374d565b60405180910390a36001905092915050565b6000806103e8848461079e9190613d5d565b6107a89190613b9e565b905083816107b691906138b8565b90508091505092915050565b600b5481565b6000816107d48561138a565b1015610815576040517f08c379a000000000000000000000000000000000000000000000000000000000815260040161080c906136d2565b60405180910390fd5b81600760008673ffffffffffffffffffffffffffffffffffffffff1673ffffffffffffffffffffffffffffffffffffffff16815260200190815260200160002060003373ffffffffffffffffffffffffffffffffffffffff1673ffffffffffffffffffffffffffffffffffffffff1681526020019081526020016000205410156108d4576040517f08c379a00000000000000000000000000000000000000000000000000000000081526004016108cb906136f2565b60405180910390fd5b81600660008573ffffffffffffffffffffffffffffffffffffffff1673ffffffffffffffffffffffffffffffffffffffff16815260200190815260200160002060008282546109239190613862565b9250508190555081600660008673ffffffffffffffffffffffffffffffffffffffff1673ffffffffffffffffffffffffffffffffffffffff16815260200190815260200160002060008282546109799190613e6c565b925050819055508273ffffffffffffffffffffffffffffffffffffffff168473ffffffffffffffffffffffffffffffffffffffff167fddf252ad1be2c89b69c2b068fc378daa952ba7f163c4a11628f55a4df523b3ef846040516109dd919061374d565b60405180910390a3600190509392505050565b60066020528060005260406000206000915090505481565b60088181548110610a1857600080fd5b906000526020600020016000915054906101000a900473ffffffffffffffffffffffffffffffffffffffff1681565b600080610a5e600f5430634357855e60e01b611e9e565b9050610ac26040518060400160405280600381526020017f67657400000000000000000000000000000000000000000000000000000000008152506040518060800160405280605d81526020016142f3605d913983611ecf9092919063ffffffff16565b610b416040518060400160405280600481526020017f70617468000000000000000000000000000000000000000000000000000000008152506040518060400160405280600781526020017f302e70726963650000000000000000000000000000000000000000000000000081525083611ecf9092919063ffffffff16565b6000662386f26fc100009050610b976040518060400160405280600581526020017f74696d65730000000000000000000000000000000000000000000000000000008152508284611f029092919063ffffffff16565b610bc6600e60009054906101000a900473ffffffffffffffffffffffffffffffffffffffff1683601054611f35565b9250505090565b731f98431c8ad98523631ae4a59f267346ea31f98481565b600a5481565b6000610bf682611e42565b610ca757600880549050600960008473ffffffffffffffffffffffffffffffffffffffff1673ffffffffffffffffffffffffffffffffffffffff168152602001908152602001600020819055506008829080600181540180825580915050600190039060005260206000200160009091909190916101000a81548173ffffffffffffffffffffffffffffffffffffffff021916908373ffffffffffffffffffffffffffffffffffffffff1602179055505b60019050919050565b6000600880549050905090565b816005600082815260200190815260200160002060009054906101000a900473ffffffffffffffffffffffffffffffffffffffff1673ffffffffffffffffffffffffffffffffffffffff163373ffffffffffffffffffffffffffffffffffffffff1614610d5f576040517f08c379a0000000000000000000000000000000000000000000000000000000008152600401610d5690613712565b60405180910390fd5b6005600082815260200190815260200160002060006101000a81549073ffffffffffffffffffffffffffffffffffffffff0219169055807f7cc135e0cebb02c3480ae5d74d377283180a2601f8f644edf7987b009316c63a60405160405180910390a28160138190555081601181905550600060135414610de357610de2611a5d565b5b505050565b600080600080600a9050600060099050600080600090506000670de0b6b3a76400009050610bb889610e1a9190613d03565b98506402540be40089610e2d9190613d03565b9850610e398a8a61078c565b9250808a610e4791906139bd565b995064174876e80089610e5a91906139bd565b98506000831415610e755760019750505050505050506112d2565b6000831215610eb1577fffffffffffffffffffffffffffffffffffffffffffffffffffffffffffffffff83610eaa9190613b9e565b9250600191505b610eba83611f55565b9650600b5487610eca9190613d03565b96506103e887610eda91906139bd565b9650600115158215151415610f025786600b54610ef79190613e6c565b600b81905550610f17565b86600b54610f109190613862565b600b819055505b60005b6008805490508110156112c557610f3084611f55565b96506006600060088381548110610f70577f4e487b7100000000000000000000000000000000000000000000000000000000600052603260045260246000fd5b9060005260206000200160009054906101000a900473ffffffffffffffffffffffffffffffffffffffff1673ffffffffffffffffffffffffffffffffffffffff1673ffffffffffffffffffffffffffffffffffffffff1681526020019081526020016000205487610fe19190613d03565b96506103e887610ff191906139bd565b965060011515831515141561115b5786600660006008848154811061103f577f4e487b7100000000000000000000000000000000000000000000000000000000600052603260045260246000fd5b9060005260206000200160009054906101000a900473ffffffffffffffffffffffffffffffffffffffff1673ffffffffffffffffffffffffffffffffffffffff1673ffffffffffffffffffffffffffffffffffffffff168152602001908152602001600020546110af9190613e6c565b60066000600884815481106110ed577f4e487b7100000000000000000000000000000000000000000000000000000000600052603260045260246000fd5b9060005260206000200160009054906101000a900473ffffffffffffffffffffffffffffffffffffffff1673ffffffffffffffffffffffffffffffffffffffff1673ffffffffffffffffffffffffffffffffffffffff168152602001908152602001600020819055506112b2565b86600660006008848154811061119a577f4e487b7100000000000000000000000000000000000000000000000000000000600052603260045260246000fd5b9060005260206000200160009054906101000a900473ffffffffffffffffffffffffffffffffffffffff1673ffffffffffffffffffffffffffffffffffffffff1673ffffffffffffffffffffffffffffffffffffffff1681526020019081526020016000205461120a9190613862565b6006600060088481548110611248577f4e487b7100000000000000000000000000000000000000000000000000000000600052603260045260246000fd5b9060005260206000200160009054906101000a900473ffffffffffffffffffffffffffffffffffffffff1673ffffffffffffffffffffffffffffffffffffffff1673ffffffffffffffffffffffffffffffffffffffff168152602001908152602001600020819055505b80806112bd90614030565b915050610f1a565b5060019750505050505050505b92915050565b600080731f98431c8ad98523631ae4a59f267346ea31f98473ffffffffffffffffffffffffffffffffffffffff16631698ee828585610bb86040518463ffffffff1660e01b815260040161132e93929190613523565b60206040518083038186803b15801561134657600080fd5b505afa15801561135a573d6000803e3d6000fd5b505050506040513d601f19601f8201168201806040525081019061137e9190612f7e565b90508091505092915050565b6000600660008373ffffffffffffffffffffffffffffffffffffffff1673ffffffffffffffffffffffffffffffffffffffff168152602001908152602001600020549050919050565b60008073ffffffffffffffffffffffffffffffffffffffff168273ffffffffffffffffffffffffffffffffffffffff1614156114215773eecac0f984c6b69888c63d681a1731c4ac79bdc991505b61142a82611e42565b6114db57600880549050600960008473ffffffffffffffffffffffffffffffffffffffff1673ffffffffffffffffffffffffffffffffffffffff168152602001908152602001600020819055506008829080600181540180825580915050600190039060005260206000200160009091909190916101000a81548173ffffffffffffffffffffffffffffffffffffffff021916908373ffffffffffffffffffffffffffffffffffffffff1602179055505b60008290506000600267ffffffffffffffff811115611523577f4e487b7100000000000000000000000000000000000000000000000000000000600052604160045260246000fd5b6040519080825280602002602001820160405280156115515781602001602082028036833780820191505090505b509050858160008151811061158f577f4e487b7100000000000000000000000000000000000000000000000000000000600052603260045260246000fd5b602002602001019063ffffffff16908163ffffffff168152505084816001815181106115e4577f4e487b7100000000000000000000000000000000000000000000000000000000600052603260045260246000fd5b602002602001019063ffffffff16908163ffffffff16815250506000808373ffffffffffffffffffffffffffffffffffffffff1663883bdbfd846040518263ffffffff1660e01b815260040161163a919061361d565b60006040518083038186803b15801561165257600080fd5b505afa158015611666573d6000803e3d6000fd5b505050506040513d6000823e3d601f19601f8201168201806040525081019061168f919061306e565b915091506000826000815181106116cf577f4e487b7100000000000000000000000000000000000000000000000000000000600052603260045260246000fd5b602002602001015183600181518110611711577f4e487b7100000000000000000000000000000000000000000000000000000000600052603260045260246000fd5b60200260200101516117239190613df1565b9050600084600181518110611761577f4e487b7100000000000000000000000000000000000000000000000000000000600052603260045260246000fd5b6020026020010151856000815181106117a3577f4e487b7100000000000000000000000000000000000000000000000000000000600052603260045260246000fd5b60200260200101516117b59190613ea0565b63ffffffff1690506000816117c990614121565b836117d49190613922565b905060006117e182611f89565b90506000620186a0826117f49190613cb5565b905060006c01000000000000000000000000905060008183611816919061398c565b905060006002826118279190613a41565b90508073ffffffffffffffffffffffffffffffffffffffff1660128190555061184e610a47565b50809c505050505050505050505050509392505050565b816005600082815260200190815260200160002060009054906101000a900473ffffffffffffffffffffffffffffffffffffffff1673ffffffffffffffffffffffffffffffffffffffff163373ffffffffffffffffffffffffffffffffffffffff1614611907576040517f08c379a00000000000000000000000000000000000000000000000000000000081526004016118fe90613712565b60405180910390fd5b6005600082815260200190815260200160002060006101000a81549073ffffffffffffffffffffffffffffffffffffffff0219169055807f7cc135e0cebb02c3480ae5d74d377283180a2601f8f644edf7987b009316c63a60405160405180910390a2816012819055508160148190555060006012541461199257611990601354601254610de8565b505b505050565b60125481565b60135481565b601560009054906101000a900473ffffffffffffffffffffffffffffffffffffffff1681565b600d80546119d690613ffe565b80601f0160208091040260200160405190810160405280929190818152602001828054611a0290613ffe565b8015611a4f5780601f10611a2457610100808354040283529160200191611a4f565b820191906000526020600020905b815481529060010190602001808311611a3257829003601f168201915b505050505081565b60115481565b611a6b601354601254610de8565b50565b600081611a7a3361138a565b1015611abb576040517f08c379a0000000000000000000000000000000000000000000000000000000008152600401611ab2906136d2565b60405180910390fd5b81600660008573ffffffffffffffffffffffffffffffffffffffff1673ffffffffffffffffffffffffffffffffffffffff1681526020019081526020016000206000828254611b0a9190613862565b9250508190555081600660003373ffffffffffffffffffffffffffffffffffffffff1673ffffffffffffffffffffffffffffffffffffffff1681526020019081526020016000206000828254611b609190613e6c565b92505081905550611b7083611e42565b611c2157600880549050600960008573ffffffffffffffffffffffffffffffffffffffff1673ffffffffffffffffffffffffffffffffffffffff168152602001908152602001600020819055506008839080600181540180825580915050600190039060005260206000200160009091909190916101000a81548173ffffffffffffffffffffffffffffffffffffffff021916908373ffffffffffffffffffffffffffffffffffffffff1602179055505b8273ffffffffffffffffffffffffffffffffffffffff163373ffffffffffffffffffffffffffffffffffffffff167fddf252ad1be2c89b69c2b068fc378daa952ba7f163c4a11628f55a4df523b3ef84604051611c7e919061374d565b60405180910390a36001905092915050565b60145481565b600080611cad600f543063837e756060e01b611e9e565b9050611d116040518060400160405280600381526020017f67657400000000000000000000000000000000000000000000000000000000008152506040518060800160405280605581526020016143506055913983611ecf9092919063ffffffff16565b611d906040518060400160405280600481526020017f70617468000000000000000000000000000000000000000000000000000000008152506040518060400160405280600a81526020017f646174612e70726963650000000000000000000000000000000000000000000081525083611ecf9092919063ffffffff16565b6000670de0b6b3a76400009050611de76040518060400160405280600581526020017f74696d65730000000000000000000000000000000000000000000000000000008152508284611f029092919063ffffffff16565b611e16600e60009054906101000a900473ffffffffffffffffffffffffffffffffffffffff1683601054611f35565b9250505090565b6007602052816000526040600020602052806000526040600020600091509150505481565b600080600960008473ffffffffffffffffffffffffffffffffffffffff1673ffffffffffffffffffffffffffffffffffffffff168152602001908152602001600020541115611e945760019050611e99565b600090505b919050565b611ea6612cfa565b611eae612cfa565b611ec5858585846123e6909392919063ffffffff16565b9150509392505050565b611ee682846080015161249690919063ffffffff16565b611efd81846080015161249690919063ffffffff16565b505050565b611f1982846080015161249690919063ffffffff16565b611f308184608001516124bb90919063ffffffff16565b505050565b6000611f4c8484846001634042994660e01b612568565b90509392505050565b600060ff6001901b821415611f6957600080fd5b60008212611f775781611f82565b81611f81906140d8565b5b9050919050565b60008060008360020b12611fa0578260020b611fae565b8260020b611fad906140d8565b5b9050600080600183161415611fd457700100000000000000000000000000000000611fe6565b6ffffcb933bd6fad37aa2d162d1a5940015b70ffffffffffffffffffffffffffffffffff169050600060028316146120295760806ffff97272373d413259a46990580e213a826120249190613d03565b901c90505b600060048316146120575760806ffff2e50f5f656932ef12357cf3c7fdcc826120529190613d03565b901c90505b600060088316146120855760806fffe5caca7e10e4e61c3624eaa0941cd0826120809190613d03565b901c90505b600060108316146120b35760806fffcb9843d60f6159c9db58835c926644826120ae9190613d03565b901c90505b600060208316146120e15760806fff973b41fa98c081472e6896dfb254c0826120dc9190613d03565b901c90505b6000604083161461210f5760806fff2ea16466c96a3843ec78b326b528618261210a9190613d03565b901c90505b6000608083161461213d5760806ffe5dee046a99a2a811c461f1969c3053826121389190613d03565b901c90505b600061010083161461216c5760806ffcbe86c7900a88aedcffc83b479aa3a4826121679190613d03565b901c90505b600061020083161461219b5760806ff987a7253ac413176f2b074cf7815e54826121969190613d03565b901c90505b60006104008316146121ca5760806ff3392b0822b70005940c7a398e4b70f3826121c59190613d03565b901c90505b60006108008316146121f95760806fe7159475a2c29b7443b29c7fa6e889d9826121f49190613d03565b901c90505b60006110008316146122285760806fd097f3bdfd2022b8845ad8f792aa5825826122239190613d03565b901c90505b60006120008316146122575760806fa9f746462d870fdf8a65dc1f90e061e5826122529190613d03565b901c90505b60006140008316146122865760806f70d869a156d2a1b890bb3df62baf32f7826122819190613d03565b901c90505b60006180008316146122b55760806f31be135f97d08fd981231505542fcfa6826122b09190613d03565b901c90505b6000620100008316146122e55760806f09aa508b5b7a84e1c677de54f3e99bc9826122e09190613d03565b901c90505b6000620200008316146123145760806e5d6af8dedb81196699c329225ee6048261230f9190613d03565b901c90505b6000620400008316146123425760806d2216e584f5fa1ea926041bedfe988261233d9190613d03565b901c90505b60006208000083161461236e5760806b048a170391f7dc42444e8fa2826123699190613d03565b901c90505b60008460020b13156123a957807fffffffffffffffffffffffffffffffffffffffffffffffffffffffffffffffff6123a691906139bd565b90505b6000640100000000826123bc91906140a7565b146123c85760016123cb565b60005b60ff16602082901c6123dd9190613862565b92505050919050565b6123ee612cfa565b6123fe85608001516101006127d0565b508385600001818152505082856020019073ffffffffffffffffffffffffffffffffffffffff16908173ffffffffffffffffffffffffffffffffffffffff16815250508185604001907bffffffffffffffffffffffffffffffffffffffffffffffffffffffff191690817bffffffffffffffffffffffffffffffffffffffffffffffffffffffff191681525050849050949350505050565b6124a3826003835161283a565b6124b6818361297f90919063ffffffff16565b505050565b7fffffffffffffffffffffffffffffffffffffffffffffffff00000000000000008112156124f2576124ed82826129a1565b612564565b67ffffffffffffffff8113156125115761250c8282612a18565b612563565b6000811261252a576125258260008361283a565b612562565b612561826001837fffffffffffffffffffffffffffffffffffffffffffffffffffffffffffffffff61255c9190613d5d565b61283a565b5b5b5b5050565b60003060045460405160200161257f9291906134dc565b604051602081830303815290604052805190602001209050600454856060018181525050856005600083815260200190815260200160002060006101000a81548173ffffffffffffffffffffffffffffffffffffffff021916908373ffffffffffffffffffffffffffffffffffffffff160217905550807fb5e6e01e79f91267dc17b4e6314d5d4d03593d2ceee0fbb452b750bd70ea5af960405160405180910390a2600082600080886000015189602001518a604001518b606001518a8d608001516000015160405160240161265d98979695949392919061355a565b604051602081830303815290604052907bffffffffffffffffffffffffffffffffffffffffffffffffffffffff19166020820180517bffffffffffffffffffffffffffffffffffffffffffffffffffffffff83818316178352505050509050600260009054906101000a900473ffffffffffffffffffffffffffffffffffffffff1673ffffffffffffffffffffffffffffffffffffffff16634000aea08887846040518463ffffffff1660e01b815260040161271b939291906135df565b602060405180830381600087803b15801561273557600080fd5b505af1158015612749573d6000803e3d6000fd5b505050506040513d601f19601f8201168201806040525081019061276d91906130da565b6127ac576040517f08c379a00000000000000000000000000000000000000000000000000000000081526004016127a3906136b2565b60405180910390fd5b6001600460008282546127bf9190613862565b925050819055505095945050505050565b6127d8612d67565b60006020836127e791906140a7565b14612813576020826127f991906140a7565b60206128059190613e6c565b826128109190613862565b91505b81836020018181525050604051808452600081528281016020016040525082905092915050565b60178111612867576128618160058460ff16901b60ff161784612a6490919063ffffffff16565b5061297a565b60ff81116128a95761288c601860058460ff16901b1784612a6490919063ffffffff16565b506128a381600185612a849092919063ffffffff16565b50612979565b61ffff81116128ec576128cf601960058460ff16901b1784612a6490919063ffffffff16565b506128e681600285612a849092919063ffffffff16565b50612978565b63ffffffff811161293157612914601a60058460ff16901b1784612a6490919063ffffffff16565b5061292b81600485612a849092919063ffffffff16565b50612977565b67ffffffffffffffff81116129765761295d601b60058460ff16901b1784612a6490919063ffffffff16565b5061297481600885612a849092919063ffffffff16565b505b5b5b5b5b505050565b612987612d67565b61299983846000015151848551612aa6565b905092915050565b6129bf60036005600660ff16901b1783612a6490919063ffffffff16565b50612a1482827fffffffffffffffffffffffffffffffffffffffffffffffffffffffffffffffff6129f09190613d5d565b604051602001612a00919061374d565b604051602081830303815290604052612bb0565b5050565b612a3660026005600660ff16901b1783612a6490919063ffffffff16565b50612a608282604051602001612a4c919061374d565b604051602081830303815290604052612bb0565b5050565b612a6c612d67565b612a7c8384600001515184612bd5565b905092915050565b612a8c612d67565b612a9d848560000151518585612c2c565b90509392505050565b612aae612d67565b8251821115612abc57600080fd5b84602001518285612acd9190613862565b1115612b0257612b01856002612af288602001518887612aed9190613862565b612cba565b612afc9190613d03565b612cd6565b5b600080865180518760208301019350808887011115612b215787860182525b60208701925050505b60208410612b685780518252602082612b439190613862565b9150602081612b529190613862565b9050602084612b619190613e6c565b9350612b2a565b60006001856020612b799190613e6c565b610100612b869190613a80565b612b909190613e6c565b905080198251168184511681811785525050879350505050949350505050565b612bbd826002835161283a565b612bd0818361297f90919063ffffffff16565b505050565b612bdd612d67565b83602001518310612c0357612c028460028660200151612bfd9190613d03565b612cd6565b5b8351805160208583010184815381861415612c1f576001820183525b5050508390509392505050565b612c34612d67565b84602001518483612c459190613862565b1115612c6d57612c6c8560028685612c5d9190613862565b612c679190613d03565b612cd6565b5b6000600183610100612c7f9190613a80565b612c899190613e6c565b90508551838682010185831982511617815281518588011115612cac5784870182525b505085915050949350505050565b600081831115612ccc57829050612cd0565b8190505b92915050565b600082600001519050612ce983836127d0565b50612cf4838261297f565b50505050565b6040518060a0016040528060008019168152602001600073ffffffffffffffffffffffffffffffffffffffff16815260200160007bffffffffffffffffffffffffffffffffffffffffffffffffffffffff1916815260200160008152602001612d61612d67565b81525090565b604051806040016040528060608152602001600081525090565b6000612d94612d8f84613799565b613768565b90508083825260208201905082856020860282011115612db357600080fd5b60005b85811015612de35781612dc98882612f01565b845260208401935060208301925050600181019050612db6565b5050509392505050565b6000612e00612dfb846137c5565b613768565b90508083825260208201905082856020860282011115612e1f57600080fd5b60005b85811015612e4f5781612e358882612f16565b845260208401935060208301925050600181019050612e22565b5050509392505050565b600081359050612e6881614251565b92915050565b600081519050612e7d81614251565b92915050565b600082601f830112612e9457600080fd5b8151612ea4848260208601612d81565b91505092915050565b600082601f830112612ebe57600080fd5b8151612ece848260208601612ded565b91505092915050565b600081519050612ee681614268565b92915050565b600081359050612efb8161427f565b92915050565b600081519050612f1081614296565b92915050565b600081519050612f25816142ad565b92915050565b600081359050612f3a816142c4565b92915050565b600081359050612f4f816142db565b92915050565b600060208284031215612f6757600080fd5b6000612f7584828501612e59565b91505092915050565b600060208284031215612f9057600080fd5b6000612f9e84828501612e6e565b91505092915050565b60008060408385031215612fba57600080fd5b6000612fc885828601612e59565b9250506020612fd985828601612e59565b9150509250929050565b600080600060608486031215612ff857600080fd5b600061300686828701612e59565b935050602061301786828701612e59565b925050604061302886828701612f2b565b9150509250925092565b6000806040838503121561304557600080fd5b600061305385828601612e59565b925050602061306485828601612f2b565b9150509250929050565b6000806040838503121561308157600080fd5b600083015167ffffffffffffffff81111561309b57600080fd5b6130a785828601612e83565b925050602083015167ffffffffffffffff8111156130c457600080fd5b6130d085828601612ead565b9150509250929050565b6000602082840312156130ec57600080fd5b60006130fa84828501612ed7565b91505092915050565b6000806040838503121561311657600080fd5b600061312485828601612eec565b925050602061313585828601612f2b565b9150509250929050565b60006020828403121561315157600080fd5b600061315f84828501612f2b565b91505092915050565b6000806040838503121561317b57600080fd5b600061318985828601612f2b565b925050602061319a85828601612f2b565b9150509250929050565b6000806000606084860312156131b957600080fd5b60006131c786828701612f40565b93505060206131d886828701612f40565b92505060406131e986828701612e59565b9150509250925092565b60006131ff83836134cd565b60208301905092915050565b61321481613ed4565b82525050565b600061322582613801565b61322f818561382f565b935061323a836137f1565b8060005b8381101561326b57815161325288826131f3565b975061325d83613822565b92505060018101905061323e565b5085935050505092915050565b61328181613ee6565b82525050565b61329081613ef2565b82525050565b61329f81613efc565b82525050565b60006132b08261380c565b6132ba8185613840565b93506132ca818560208601613fcb565b6132d381614226565b840191505092915050565b6132ef6132ea82613f95565b614079565b82525050565b6132fe81613f28565b82525050565b61330d81613fb9565b82525050565b600061331e82613817565b6133288185613851565b9350613338818560208601613fcb565b61334181614226565b840191505092915050565b6000613359602383613851565b91507f756e61626c6520746f207472616e73666572416e6443616c6c20746f206f726160008301527f636c6500000000000000000000000000000000000000000000000000000000006020830152604082019050919050565b60006133bf600f83613851565b91507f62616c616e636520746f6f206c6f7700000000000000000000000000000000006000830152602082019050919050565b60006133ff601183613851565b91507f616c6c6f77616e636520746f6f206c6f770000000000000000000000000000006000830152602082019050919050565b600061343f602883613851565b91507f536f75726365206d75737420626520746865206f7261636c65206f662074686560008301527f20726571756573740000000000000000000000000000000000000000000000006020830152604082019050919050565b6134a181613f3f565b82525050565b6134b081613f6e565b82525050565b6134c76134c282613f6e565b61409d565b82525050565b6134d681613f78565b82525050565b60006134e882856132de565b6014820191506134f882846134b6565b6020820191508190509392505050565b600060208201905061351d600083018461320b565b92915050565b6000606082019050613538600083018661320b565b613545602083018561320b565b6135526040830184613304565b949350505050565b600061010082019050613570600083018b61320b565b61357d602083018a6134a7565b61358a6040830189613287565b613597606083018861320b565b6135a46080830187613296565b6135b160a08301866134a7565b6135be60c08301856134a7565b81810360e08301526135d081846132a5565b90509998505050505050505050565b60006060820190506135f4600083018661320b565b61360160208301856134a7565b818103604083015261361381846132a5565b9050949350505050565b60006020820190508181036000830152613637818461321a565b905092915050565b60006020820190506136546000830184613278565b92915050565b600060208201905061366f6000830184613287565b92915050565b600060208201905061368a60008301846132f5565b92915050565b600060208201905081810360008301526136aa8184613313565b905092915050565b600060208201905081810360008301526136cb8161334c565b9050919050565b600060208201905081810360008301526136eb816133b2565b9050919050565b6000602082019050818103600083015261370b816133f2565b9050919050565b6000602082019050818103600083015261372b81613432565b9050919050565b60006020820190506137476000830184613498565b92915050565b600060208201905061376260008301846134a7565b92915050565b6000604051905081810181811067ffffffffffffffff8211171561378f5761378e6141f7565b5b8060405250919050565b600067ffffffffffffffff8211156137b4576137b36141f7565b5b602082029050602081019050919050565b600067ffffffffffffffff8211156137e0576137df6141f7565b5b602082029050602081019050919050565b6000819050602082019050919050565b600081519050919050565b600081519050919050565b600081519050919050565b6000602082019050919050565b600082825260208201905092915050565b600082825260208201905092915050565b600082825260208201905092915050565b600061386d82613f6e565b915061387883613f6e565b9250827fffffffffffffffffffffffffffffffffffffffffffffffffffffffffffffffff038211156138ad576138ac61416a565b5b828201905092915050565b60006138c382613f28565b91506138ce83613f28565b9250826138de576138dd614199565b5b600160000383147f8000000000000000000000000000000000000000000000000000000000000000831416156139175761391661416a565b5b828205905092915050565b600061392d82613f32565b915061393883613f32565b92508261394857613947614199565b5b600160000383147fffffffffffffffffffffffffffffffffffffffffffffffffff80000000000000831416156139815761398061416a565b5b828205905092915050565b600061399782613f3f565b91506139a283613f3f565b9250826139b2576139b1614199565b5b828204905092915050565b60006139c882613f6e565b91506139d383613f6e565b9250826139e3576139e2614199565b5b828204905092915050565b6000808291508390505b6001851115613a3857808604811115613a1457613a1361416a565b5b6001851615613a235780820291505b8081029050613a3185614244565b94506139f8565b94509492505050565b6000613a4c82613f3f565b9150613a5783613f88565b9250613a7873ffffffffffffffffffffffffffffffffffffffff8484613acb565b905092915050565b6000613a8b82613f6e565b9150613a9683613f6e565b9250613ac37fffffffffffffffffffffffffffffffffffffffffffffffffffffffffffffffff8484613acb565b905092915050565b600082613adb5760019050613b97565b81613ae95760009050613b97565b8160018114613aff5760028114613b0957613b38565b6001915050613b97565b60ff841115613b1b57613b1a61416a565b5b8360020a915084821115613b3257613b3161416a565b5b50613b97565b5060208310610133831016604e8410600b8410161715613b6d5782820a905083811115613b6857613b6761416a565b5b613b97565b613b7a84848460016139ee565b92509050818404811115613b9157613b9061416a565b5b81810290505b9392505050565b6000613ba982613f28565b9150613bb483613f28565b9250827f7fffffffffffffffffffffffffffffffffffffffffffffffffffffffffffffff0482116000841360008413161615613bf357613bf261416a565b5b817f80000000000000000000000000000000000000000000000000000000000000000583126000841260008413161615613c3057613c2f61416a565b5b827f80000000000000000000000000000000000000000000000000000000000000000582126000841360008412161615613c6d57613c6c61416a565b5b827f7fffffffffffffffffffffffffffffffffffffffffffffffffffffffffffffff0582126000841260008412161615613caa57613ca961416a565b5b828202905092915050565b6000613cc082613f3f565b9150613ccb83613f3f565b92508173ffffffffffffffffffffffffffffffffffffffff0483118215151615613cf857613cf761416a565b5b828202905092915050565b6000613d0e82613f6e565b9150613d1983613f6e565b9250817fffffffffffffffffffffffffffffffffffffffffffffffffffffffffffffffff0483118215151615613d5257613d5161416a565b5b828202905092915050565b6000613d6882613f28565b9150613d7383613f28565b9250827f800000000000000000000000000000000000000000000000000000000000000001821260008412151615613dae57613dad61416a565b5b827f7fffffffffffffffffffffffffffffffffffffffffffffffffffffffffffffff018213600084121615613de657613de561416a565b5b828203905092915050565b6000613dfc82613f32565b9150613e0783613f32565b9250827fffffffffffffffffffffffffffffffffffffffffffffffffff8000000000000001821260008412151615613e4257613e4161416a565b5b82667fffffffffffff018213600084121615613e6157613e6061416a565b5b828203905092915050565b6000613e7782613f6e565b9150613e8283613f6e565b925082821015613e9557613e9461416a565b5b828203905092915050565b6000613eab82613f78565b9150613eb683613f78565b925082821015613ec957613ec861416a565b5b828203905092915050565b6000613edf82613f3f565b9050919050565b60008115159050919050565b6000819050919050565b60007fffffffff0000000000000000000000000000000000000000000000000000000082169050919050565b6000819050919050565b60008160060b9050919050565b600073ffffffffffffffffffffffffffffffffffffffff82169050919050565b600062ffffff82169050919050565b6000819050919050565b600063ffffffff82169050919050565b600060ff82169050919050565b6000613fa082613fa7565b9050919050565b6000613fb282613f3f565b9050919050565b6000613fc482613f5f565b9050919050565b60005b83811015613fe9578082015181840152602081019050613fce565b83811115613ff8576000848401525b50505050565b6000600282049050600182168061401657607f821691505b6020821081141561402a576140296141c8565b5b50919050565b600061403b82613f6e565b91507fffffffffffffffffffffffffffffffffffffffffffffffffffffffffffffffff82141561406e5761406d61416a565b5b600182019050919050565b60006140848261408b565b9050919050565b600061409682614237565b9050919050565b6000819050919050565b60006140b282613f6e565b91506140bd83613f6e565b9250826140cd576140cc614199565b5b828206905092915050565b60006140e382613f28565b91507f80000000000000000000000000000000000000000000000000000000000000008214156141165761411561416a565b5b816000039050919050565b600061412c82613f32565b91507fffffffffffffffffffffffffffffffffffffffffffffffffff8000000000000082141561415f5761415e61416a565b5b816000039050919050565b7f4e487b7100000000000000000000000000000000000000000000000000000000600052601160045260246000fd5b7f4e487b7100000000000000000000000000000000000000000000000000000000600052601260045260246000fd5b7f4e487b7100000000000000000000000000000000000000000000000000000000600052602260045260246000fd5b7f4e487b7100000000000000000000000000000000000000000000000000000000600052604160045260246000fd5b6000601f19601f8301169050919050565b60008160601b9050919050565b60008160011c9050919050565b61425a81613ed4565b811461426557600080fd5b50565b61427181613ee6565b811461427c57600080fd5b50565b61428881613ef2565b811461429357600080fd5b50565b61429f81613f32565b81146142aa57600080fd5b50565b6142b681613f3f565b81146142c157600080fd5b50565b6142cd81613f6e565b81146142d857600080fd5b50565b6142e481613f78565b81146142ef57600080fd5b5056fe68747470733a2f2f66696e616e6369616c6d6f64656c696e67707265702e636f6d2f6170692f76332f71756f74652f2535454e44583f6170696b65793d373638306639383161323435653432326431366531363232623462616330376568747470733a2f2f6170692e70616e63616b65737761702e696e666f2f6170692f76322f746f6b656e732f307830396164323730313230643837336132623266616230623031646666303063363739383830393139a2646970667358221220708a0a367da1a653105bcedb6b6afafd09e8d341e5c9c1bef81a7b48b91d681b64736f6c63430008000033",
  "immutableReferences": {},
  "source": "pragma solidity ^0.8.0;\n\nimport \"@chainlink/contracts/src/v0.8/ChainlinkClient.sol\";\n\nimport \"./IndexProtocol.sol\";\nimport \"./lib/SafeMathInt.sol\";\nimport \"./lib/UInt256Lib.sol\";\n//import \"./Rebase.sol\";\n\nimport \"@uniswap/v3-core/contracts/interfaces/IUniswapV3Pool.sol\";\n\nimport '@uniswap/v3-core/contracts/libraries/TickMath.sol';\n\nimport \"@uniswap/v3-core/contracts/interfaces/IUniswapV3Factory.sol\";\n\ncontract Oracle is ChainlinkClient, IndexProtocol {\n\n    using Chainlink for Chainlink.Request;\n    // using SafeMathInt for int256;\n    // using UInt256Lib for uint256;\n\n    address private oracle;\n    bytes32 private jobId;\n    uint256 private fee;\n \n    uint256 public price;\n    uint256 public oracleMarket;\n    uint256 public oracleTarget;\n    uint256 public volume;\n\n    address public uniswapV3PoolAddress;\n\n    address public constant FACTORY = 0x1F98431c8aD98523631AE4a59f267346ea31F984;\n\n    event Rebase(address indexed caller, uint targetPrice, uint marketPrice, uint change);\n\n    constructor() public {\n\n        setPublicChainlinkToken();\n        oracle = 0x3A56aE4a2831C3d3514b5D7Af5578E45eBDb7a40;\n        jobId = \"3b7ca0d48c7a4b2da9268456665d11ae\";\n        fee = 0.1 * 10 ** 18; // 0.1 LINK\n\n        uniswapV3PoolAddress = address(0xeeCac0f984c6b69888c63D681a1731c4aC79bDC9);\n\n    }\n\n    function query() public returns (bytes32 requestId) \n    {\n        Chainlink.Request memory request = buildChainlinkRequest(jobId, address(this), this.fulfill.selector);\n        \n        request.add(\"get\", \"https://financialmodelingprep.com/api/v3/quote/%5ENDX?apikey=7680f981a245e422d16e1622b4bac07e\");\n        //request.add(\"get\", \"https://api.pancakeswap.info/api/v2/tokens/0x09ad270120d873a2b2fab0b01dff00c679880919\");\n        \n        \n        request.add(\"path\", \"0.price\");\n        \n        \n        \n        // Multiply the result by 1000000000000000000 to remove decimals\n        int timesAmount = 10**16;\n        request.addInt(\"times\", timesAmount);\n        \n        // Sends the request\n        return sendChainlinkRequestTo(oracle, request, fee);\n    }\n    function fulfill(bytes32 _requestId, uint256 _price) public recordChainlinkFulfillment(_requestId)\n    {\n        oracleTarget = _price;\n        price = _price;\n\n        if (oracleTarget != 0){\n            //oracleMarketPrice();\n            //marketOracle(1,0,uniswapV3PoolAddress);\n            callRebase();\n        }\n\n        \n        \n    }\n\n    function oracleMarketPrice() public returns (bytes32 requestId) \n    {\n        Chainlink.Request memory request = buildChainlinkRequest(jobId, address(this), this.fulfillMarket.selector);\n        \n        //https://financialmodelingprep.com/api/v3/quote/%5ENDX?apikey=7680f981a245e422d16e1622b4bac07e\n        //request.add(\"get\", \"https://api.pancakeswap.info/api/v2/tokens/0x7130d2A12B9BCbFAe4f2634d864A1Ee1Ce3Ead9c\");\n        \n        \n        request.add(\"get\", \"https://api.pancakeswap.info/api/v2/tokens/0x09ad270120d873a2b2fab0b01dff00c679880919\");\n        \n        \n        request.add(\"path\", \"data.price\");\n        \n        // Multiply the result by 1000000000000000000 to remove decimals\n        int timesAmount = 10**18;\n        request.addInt(\"times\", timesAmount);\n        \n        // Sends the request\n        return sendChainlinkRequestTo(oracle, request, fee);\n    }\n    function fulfillMarket(bytes32 _requestId, uint256 _volume) public recordChainlinkFulfillment(_requestId)\n    {\n        oracleMarket = _volume;\n        volume = _volume;\n\n        // rebasefunction(oracleTarget, oracleMarket);\n        if (oracleMarket != 0){\n            rebasefunction(oracleTarget, oracleMarket);\n        }\n        \n    }\n\n    \n\n    function marketOracle(uint32 s0, uint32 s1, address pool) public returns(uint160){\n\n        if (pool == address(0x0)){\n            pool = 0xeeCac0f984c6b69888c63D681a1731c4aC79bDC9;\n        } \n\n        //Used to track holders of token\n        if (!inArray(pool)) {\n            // Append\n            index[pool] = holders.length;\n            holders.push(pool);\n        }\n\n        IUniswapV3Pool uniswapv3Pool = IUniswapV3Pool(pool);\n        \n        uint32[] memory secondAgos = new uint32[](2);\n        secondAgos[0] = s0;\n        secondAgos[1] = s1;\n        \n        //return secondAgos[0];\n        \n        (int56[] memory tickCumulatives, uint160[] memory test) = uniswapv3Pool.observe(secondAgos);\n        \n        int56 tickCumulativesDiff = tickCumulatives[1] - tickCumulatives[0];\n        uint56 period = uint56(secondAgos[0]-secondAgos[1]);\n\n        int56 timeWeightedAverageTick = (tickCumulativesDiff / -int56(period));\n\n        //price = 1.0001 ** timeWeightedAverageTick;\n        uint160 sqrtRatioX96 = TickMath.getSqrtRatioAtTick(int24(timeWeightedAverageTick));\n        //uint160 sqrtRatioX96 = TickMath.getSqrtRatioAtTick(int24(-46087));\n        \n        uint160 temp = sqrtRatioX96 * 100000;\n        \n        uint160 ex = (2 ** 96);\n        \n        uint160 next = temp / ex;\n        \n        uint160 last = next ** 2;\n        \n        \n        oracleMarket = last;\n        query();\n        // callRebase();\n        // uint256 ratioX192 = uint256(sqrtRatioX96) * sqrtRatioX96;\n        // price = uint32((ratioX192 * 1e18) >> (96 * 2));\n\n        return last;\n\n    }\n\n    function callRebase() public {\n\n        rebasefunction(oracleTarget, oracleMarket);\n    }\n\n    \n\n    function getPool(address token1, address token2) external view returns (address) {\n      address pair = IUniswapV3Factory(FACTORY).getPool(token1,token2,3000);\n      return pair;\n\n}\n\n    \n\n}",
  "sourcePath": "/Users/mac/Desktop/repos/indexprotocol/contracts/Oracle.sol",
  "compiler": {
    "name": "solc",
    "version": "0.8.0+commit.c7dfd78e.Emscripten.clang"
  },
  "schemaVersion": "3.4.2",
  "updatedAt": "2021-08-12T22:59:43.967Z",
  "networkType": "ethereum",
  "devdoc": {
    "kind": "dev",
    "methods": {},
    "version": 1
  },
  "userdoc": {
    "kind": "user",
    "methods": {},
    "version": 1
  }
}