{
  "contractName": "Rebase",
  "abi": [
    {
      "anonymous": false,
      "inputs": [
        {
          "indexed": true,
          "internalType": "address",
          "name": "owner",
          "type": "address"
        },
        {
          "indexed": true,
          "internalType": "address",
          "name": "spender",
          "type": "address"
        },
        {
          "indexed": false,
          "internalType": "uint256",
          "name": "value",
          "type": "uint256"
        }
      ],
      "name": "Approval",
      "type": "event"
    },
    {
      "anonymous": false,
      "inputs": [
        {
          "indexed": true,
          "internalType": "address",
          "name": "from",
          "type": "address"
        },
        {
          "indexed": true,
          "internalType": "address",
          "name": "to",
          "type": "address"
        },
        {
          "indexed": false,
          "internalType": "uint256",
          "name": "value",
          "type": "uint256"
        }
      ],
      "name": "Transfer",
      "type": "event"
    },
    {
      "inputs": [
        {
          "internalType": "address",
          "name": "who",
          "type": "address"
        }
      ],
      "name": "addAddress",
      "outputs": [
        {
          "internalType": "bool",
          "name": "",
          "type": "bool"
        }
      ],
      "stateMutability": "nonpayable",
      "type": "function"
    },
    {
      "inputs": [
        {
          "internalType": "address",
          "name": "",
          "type": "address"
        },
        {
          "internalType": "address",
          "name": "",
          "type": "address"
        }
      ],
      "name": "allowance",
      "outputs": [
        {
          "internalType": "uint256",
          "name": "",
          "type": "uint256"
        }
      ],
      "stateMutability": "view",
      "type": "function"
    },
    {
      "inputs": [
        {
          "internalType": "address",
          "name": "spender",
          "type": "address"
        },
        {
          "internalType": "uint256",
          "name": "value",
          "type": "uint256"
        }
      ],
      "name": "approve",
      "outputs": [
        {
          "internalType": "bool",
          "name": "",
          "type": "bool"
        }
      ],
      "stateMutability": "nonpayable",
      "type": "function"
    },
    {
      "inputs": [
        {
          "internalType": "address",
          "name": "owner",
          "type": "address"
        }
      ],
      "name": "balanceOf",
      "outputs": [
        {
          "internalType": "uint256",
          "name": "",
          "type": "uint256"
        }
      ],
      "stateMutability": "view",
      "type": "function"
    },
    {
      "inputs": [
        {
          "internalType": "address",
          "name": "",
          "type": "address"
        }
      ],
      "name": "balances",
      "outputs": [
        {
          "internalType": "uint256",
          "name": "",
          "type": "uint256"
        }
      ],
      "stateMutability": "view",
      "type": "function"
    },
    {
      "inputs": [],
      "name": "countAddress",
      "outputs": [
        {
          "internalType": "uint256",
          "name": "",
          "type": "uint256"
        }
      ],
      "stateMutability": "view",
      "type": "function"
    },
    {
      "inputs": [],
      "name": "decimals",
      "outputs": [
        {
          "internalType": "uint256",
          "name": "",
          "type": "uint256"
        }
      ],
      "stateMutability": "view",
      "type": "function"
    },
    {
      "inputs": [
        {
          "internalType": "uint256",
          "name": "targetPrice",
          "type": "uint256"
        },
        {
          "internalType": "uint256",
          "name": "marketPrice",
          "type": "uint256"
        }
      ],
      "name": "deltaChange",
      "outputs": [
        {
          "internalType": "int256",
          "name": "",
          "type": "int256"
        }
      ],
      "stateMutability": "nonpayable",
      "type": "function"
    },
    {
      "inputs": [
        {
          "internalType": "uint256",
          "name": "",
          "type": "uint256"
        }
      ],
      "name": "holders",
      "outputs": [
        {
          "internalType": "address",
          "name": "",
          "type": "address"
        }
      ],
      "stateMutability": "view",
      "type": "function"
    },
    {
      "inputs": [
        {
          "internalType": "address",
          "name": "who",
          "type": "address"
        }
      ],
      "name": "inArray",
      "outputs": [
        {
          "internalType": "bool",
          "name": "",
          "type": "bool"
        }
      ],
      "stateMutability": "view",
      "type": "function"
    },
    {
      "inputs": [],
      "name": "name",
      "outputs": [
        {
          "internalType": "string",
          "name": "",
          "type": "string"
        }
      ],
      "stateMutability": "view",
      "type": "function"
    },
    {
      "inputs": [
        {
          "internalType": "uint256",
          "name": "oracleTarget",
          "type": "uint256"
        },
        {
          "internalType": "uint256",
          "name": "oracleMarket",
          "type": "uint256"
        }
      ],
      "name": "rebasefunction",
      "outputs": [
        {
          "internalType": "bool",
          "name": "",
          "type": "bool"
        }
      ],
      "stateMutability": "nonpayable",
      "type": "function"
    },
    {
      "inputs": [],
      "name": "symbol",
      "outputs": [
        {
          "internalType": "string",
          "name": "",
          "type": "string"
        }
      ],
      "stateMutability": "view",
      "type": "function"
    },
    {
      "inputs": [],
      "name": "totalSupply",
      "outputs": [
        {
          "internalType": "uint256",
          "name": "",
          "type": "uint256"
        }
      ],
      "stateMutability": "view",
      "type": "function"
    },
    {
      "inputs": [
        {
          "internalType": "address",
          "name": "to",
          "type": "address"
        },
        {
          "internalType": "uint256",
          "name": "value",
          "type": "uint256"
        }
      ],
      "name": "transfer",
      "outputs": [
        {
          "internalType": "bool",
          "name": "",
          "type": "bool"
        }
      ],
      "stateMutability": "nonpayable",
      "type": "function"
    },
    {
      "inputs": [
        {
          "internalType": "address",
          "name": "from",
          "type": "address"
        },
        {
          "internalType": "address",
          "name": "to",
          "type": "address"
        },
        {
          "internalType": "uint256",
          "name": "value",
          "type": "uint256"
        }
      ],
      "name": "transferFrom",
      "outputs": [
        {
          "internalType": "bool",
          "name": "",
          "type": "bool"
        }
      ],
      "stateMutability": "nonpayable",
      "type": "function"
    }
  ],
  "bytecode": "0x60806040526012600455600454600a6200001a9190620002d9565b620186a06200002a919062000416565b6005556040518060400160405280600d81526020017f496e64657850726f746f636f6c00000000000000000000000000000000000000815250600690805190602001906200007a929190620001ce565b506040518060400160405280600481526020017f494e44580000000000000000000000000000000000000000000000000000000081525060079080519060200190620000c8929190620001ce565b50348015620000d657600080fd5b506005546000803373ffffffffffffffffffffffffffffffffffffffff1673ffffffffffffffffffffffffffffffffffffffff168152602001908152602001600020819055506002339080600181540180825580915050600190039060005260206000200160009091909190916101000a81548173ffffffffffffffffffffffffffffffffffffffff021916908373ffffffffffffffffffffffffffffffffffffffff160217905550600280549050600360003373ffffffffffffffffffffffffffffffffffffffff1673ffffffffffffffffffffffffffffffffffffffff1681526020019081526020016000208190555062000522565b828054620001dc9062000481565b90600052602060002090601f0160209004810192826200020057600085556200024c565b82601f106200021b57805160ff19168380011785556200024c565b828001600101855582156200024c579182015b828111156200024b5782518255916020019190600101906200022e565b5b5090506200025b91906200025f565b5090565b5b808211156200027a57600081600090555060010162000260565b5090565b6000808291508390505b6001851115620002d057808604811115620002a857620002a7620004b7565b5b6001851615620002b85780820291505b8081029050620002c88562000515565b945062000288565b94509492505050565b6000620002e68262000477565b9150620002f38362000477565b9250620003227fffffffffffffffffffffffffffffffffffffffffffffffffffffffffffffffff84846200032a565b905092915050565b6000826200033c57600190506200040f565b816200034c57600090506200040f565b81600181146200036557600281146200037057620003a6565b60019150506200040f565b60ff841115620003855762000384620004b7565b5b8360020a9150848211156200039f576200039e620004b7565b5b506200040f565b5060208310610133831016604e8410600b8410161715620003e05782820a905083811115620003da57620003d9620004b7565b5b6200040f565b620003ef84848460016200027e565b92509050818404811115620004095762000408620004b7565b5b81810290505b9392505050565b6000620004238262000477565b9150620004308362000477565b9250817fffffffffffffffffffffffffffffffffffffffffffffffffffffffffffffffff04831182151516156200046c576200046b620004b7565b5b828202905092915050565b6000819050919050565b600060028204905060018216806200049a57607f821691505b60208210811415620004b157620004b0620004e6565b5b50919050565b7f4e487b7100000000000000000000000000000000000000000000000000000000600052601160045260246000fd5b7f4e487b7100000000000000000000000000000000000000000000000000000000600052602260045260246000fd5b60008160011c9050919050565b611a2580620005326000396000f3fe608060405234801561001057600080fd5b50600436106101005760003560e01c806338eada1c1161009757806395d89b411161006657806395d89b41146102fd578063a9059cbb1461031b578063dd62ed3e1461034b578063deac46591461037b57610100565b806338eada1c1461024f57806342154e9c1461027f578063485894f91461029d57806370a08231146102cd57610100565b806323b872dd116100d357806323b872dd146101a157806327e235e3146101d15780632a11ced014610201578063313ce5671461023157610100565b806306fdde0314610105578063095ea7b31461012357806311d1ab6b1461015357806318160ddd14610183575b600080fd5b61010d6103ab565b60405161011a9190611417565b60405180910390f35b61013d60048036038101906101389190611230565b610439565b60405161014a91906113e1565b60405180910390f35b61016d60048036038101906101689190611295565b61052b565b60405161017a91906113fc565b60405180910390f35b61018b610561565b6040516101989190611479565b60405180910390f35b6101bb60048036038101906101b691906111e1565b610567565b6040516101c891906113e1565b60405180910390f35b6101eb60048036038101906101e6919061117c565b61078d565b6040516101f89190611479565b60405180910390f35b61021b6004803603810190610216919061126c565b6107a5565b60405161022891906113c6565b60405180910390f35b6102396107e4565b6040516102469190611479565b60405180910390f35b6102696004803603810190610264919061117c565b6107ea565b60405161027691906113e1565b60405180910390f35b6102876108af565b6040516102949190611479565b60405180910390f35b6102b760048036038101906102b29190611295565b6108bc565b6040516102c491906113e1565b60405180910390f35b6102e760048036038101906102e2919061117c565b610da7565b6040516102f49190611479565b60405180910390f35b610305610def565b6040516103129190611417565b60405180910390f35b61033560048036038101906103309190611230565b610e7d565b60405161034291906113e1565b60405180910390f35b610365600480360381019061036091906111a5565b61109d565b6040516103729190611479565b60405180910390f35b6103956004803603810190610390919061117c565b6110c2565b6040516103a291906113e1565b60405180910390f35b600680546103b89061185f565b80601f01602080910402602001604051908101604052809291908181526020018280546103e49061185f565b80156104315780601f1061040657610100808354040283529160200191610431565b820191906000526020600020905b81548152906001019060200180831161041457829003601f168201915b505050505081565b600081600160003373ffffffffffffffffffffffffffffffffffffffff1673ffffffffffffffffffffffffffffffffffffffff16815260200190815260200160002060008573ffffffffffffffffffffffffffffffffffffffff1673ffffffffffffffffffffffffffffffffffffffff168152602001908152602001600020819055508273ffffffffffffffffffffffffffffffffffffffff163373ffffffffffffffffffffffffffffffffffffffff167f8c5be1e5ebec7d5bd14f71427d1e84f3dd0314c0f7b2291e5b200ac8c7c3b925846040516105199190611479565b60405180910390a36001905092915050565b6000806103e8848461053d9190611712565b61054791906115a1565b905083816105559190611506565b90508091505092915050565b60055481565b60008161057385610da7565b10156105b4576040517f08c379a00000000000000000000000000000000000000000000000000000000081526004016105ab90611439565b60405180910390fd5b81600160008673ffffffffffffffffffffffffffffffffffffffff1673ffffffffffffffffffffffffffffffffffffffff16815260200190815260200160002060003373ffffffffffffffffffffffffffffffffffffffff1673ffffffffffffffffffffffffffffffffffffffff168152602001908152602001600020541015610673576040517f08c379a000000000000000000000000000000000000000000000000000000000815260040161066a90611459565b60405180910390fd5b816000808573ffffffffffffffffffffffffffffffffffffffff1673ffffffffffffffffffffffffffffffffffffffff16815260200190815260200160002060008282546106c191906114b0565b92505081905550816000808673ffffffffffffffffffffffffffffffffffffffff1673ffffffffffffffffffffffffffffffffffffffff168152602001908152602001600020600082825461071691906117a6565b925050819055508273ffffffffffffffffffffffffffffffffffffffff168473ffffffffffffffffffffffffffffffffffffffff167fddf252ad1be2c89b69c2b068fc378daa952ba7f163c4a11628f55a4df523b3ef8460405161077a9190611479565b60405180910390a3600190509392505050565b60006020528060005260406000206000915090505481565b600281815481106107b557600080fd5b906000526020600020016000915054906101000a900473ffffffffffffffffffffffffffffffffffffffff1681565b60045481565b60006107f5826110c2565b6108a657600280549050600360008473ffffffffffffffffffffffffffffffffffffffff1673ffffffffffffffffffffffffffffffffffffffff168152602001908152602001600020819055506002829080600181540180825580915050600190039060005260206000200160009091909190916101000a81548173ffffffffffffffffffffffffffffffffffffffff021916908373ffffffffffffffffffffffffffffffffffffffff1602179055505b60019050919050565b6000600280549050905090565b600080600080600a9050600060099050600080600090506000670de0b6b3a76400009050610bb8896108ee91906116b8565b98506402540be4008961090191906116b8565b985061090d8a8a61052b565b9250808a61091b9190611570565b995064174876e8008961092e9190611570565b98506000831415610949576001975050505050505050610da1565b6000831215610985577fffffffffffffffffffffffffffffffffffffffffffffffffffffffffffffffff8361097e91906115a1565b9250600191505b61098e8361111e565b96506005548761099e91906116b8565b96506103e8876109ae9190611570565b96506001151582151514156109d657866005546109cb91906117a6565b6005819055506109eb565b866005546109e491906114b0565b6005819055505b60005b600280549050811015610d9457610a048461111e565b965060008060028381548110610a43577f4e487b7100000000000000000000000000000000000000000000000000000000600052603260045260246000fd5b9060005260206000200160009054906101000a900473ffffffffffffffffffffffffffffffffffffffff1673ffffffffffffffffffffffffffffffffffffffff1673ffffffffffffffffffffffffffffffffffffffff1681526020019081526020016000205487610ab491906116b8565b96506103e887610ac49190611570565b9650600115158315151415610c2c578660008060028481548110610b11577f4e487b7100000000000000000000000000000000000000000000000000000000600052603260045260246000fd5b9060005260206000200160009054906101000a900473ffffffffffffffffffffffffffffffffffffffff1673ffffffffffffffffffffffffffffffffffffffff1673ffffffffffffffffffffffffffffffffffffffff16815260200190815260200160002054610b8191906117a6565b60008060028481548110610bbe577f4e487b7100000000000000000000000000000000000000000000000000000000600052603260045260246000fd5b9060005260206000200160009054906101000a900473ffffffffffffffffffffffffffffffffffffffff1673ffffffffffffffffffffffffffffffffffffffff1673ffffffffffffffffffffffffffffffffffffffff16815260200190815260200160002081905550610d81565b8660008060028481548110610c6a577f4e487b7100000000000000000000000000000000000000000000000000000000600052603260045260246000fd5b9060005260206000200160009054906101000a900473ffffffffffffffffffffffffffffffffffffffff1673ffffffffffffffffffffffffffffffffffffffff1673ffffffffffffffffffffffffffffffffffffffff16815260200190815260200160002054610cda91906114b0565b60008060028481548110610d17577f4e487b7100000000000000000000000000000000000000000000000000000000600052603260045260246000fd5b9060005260206000200160009054906101000a900473ffffffffffffffffffffffffffffffffffffffff1673ffffffffffffffffffffffffffffffffffffffff1673ffffffffffffffffffffffffffffffffffffffff168152602001908152602001600020819055505b8080610d8c90611891565b9150506109ee565b5060019750505050505050505b92915050565b60008060008373ffffffffffffffffffffffffffffffffffffffff1673ffffffffffffffffffffffffffffffffffffffff168152602001908152602001600020549050919050565b60078054610dfc9061185f565b80601f0160208091040260200160405190810160405280929190818152602001828054610e289061185f565b8015610e755780601f10610e4a57610100808354040283529160200191610e75565b820191906000526020600020905b815481529060010190602001808311610e5857829003601f168201915b505050505081565b600081610e8933610da7565b1015610eca576040517f08c379a0000000000000000000000000000000000000000000000000000000008152600401610ec190611439565b60405180910390fd5b816000808573ffffffffffffffffffffffffffffffffffffffff1673ffffffffffffffffffffffffffffffffffffffff1681526020019081526020016000206000828254610f1891906114b0565b92505081905550816000803373ffffffffffffffffffffffffffffffffffffffff1673ffffffffffffffffffffffffffffffffffffffff1681526020019081526020016000206000828254610f6d91906117a6565b92505081905550610f7d836110c2565b61102e57600280549050600360008573ffffffffffffffffffffffffffffffffffffffff1673ffffffffffffffffffffffffffffffffffffffff168152602001908152602001600020819055506002839080600181540180825580915050600190039060005260206000200160009091909190916101000a81548173ffffffffffffffffffffffffffffffffffffffff021916908373ffffffffffffffffffffffffffffffffffffffff1602179055505b8273ffffffffffffffffffffffffffffffffffffffff163373ffffffffffffffffffffffffffffffffffffffff167fddf252ad1be2c89b69c2b068fc378daa952ba7f163c4a11628f55a4df523b3ef8460405161108b9190611479565b60405180910390a36001905092915050565b6001602052816000526040600020602052806000526040600020600091509150505481565b600080600360008473ffffffffffffffffffffffffffffffffffffffff1673ffffffffffffffffffffffffffffffffffffffff1681526020019081526020016000205411156111145760019050611119565b600090505b919050565b600060ff6001901b82141561113257600080fd5b60008212611140578161114b565b8161114a906118da565b5b9050919050565b600081359050611161816119c1565b92915050565b600081359050611176816119d8565b92915050565b60006020828403121561118e57600080fd5b600061119c84828501611152565b91505092915050565b600080604083850312156111b857600080fd5b60006111c685828601611152565b92505060206111d785828601611152565b9150509250929050565b6000806000606084860312156111f657600080fd5b600061120486828701611152565b935050602061121586828701611152565b925050604061122686828701611167565b9150509250925092565b6000806040838503121561124357600080fd5b600061125185828601611152565b925050602061126285828601611167565b9150509250929050565b60006020828403121561127e57600080fd5b600061128c84828501611167565b91505092915050565b600080604083850312156112a857600080fd5b60006112b685828601611167565b92505060206112c785828601611167565b9150509250929050565b6112da816117da565b82525050565b6112e9816117ec565b82525050565b6112f8816117f8565b82525050565b600061130982611494565b611313818561149f565b935061132381856020860161182c565b61132c816119b0565b840191505092915050565b6000611344600f8361149f565b91507f62616c616e636520746f6f206c6f7700000000000000000000000000000000006000830152602082019050919050565b600061138460118361149f565b91507f616c6c6f77616e636520746f6f206c6f770000000000000000000000000000006000830152602082019050919050565b6113c081611822565b82525050565b60006020820190506113db60008301846112d1565b92915050565b60006020820190506113f660008301846112e0565b92915050565b600060208201905061141160008301846112ef565b92915050565b6000602082019050818103600083015261143181846112fe565b905092915050565b6000602082019050818103600083015261145281611337565b9050919050565b6000602082019050818103600083015261147281611377565b9050919050565b600060208201905061148e60008301846113b7565b92915050565b600081519050919050565b600082825260208201905092915050565b60006114bb82611822565b91506114c683611822565b9250827fffffffffffffffffffffffffffffffffffffffffffffffffffffffffffffffff038211156114fb576114fa611923565b5b828201905092915050565b6000611511826117f8565b915061151c836117f8565b92508261152c5761152b611952565b5b600160000383147f80000000000000000000000000000000000000000000000000000000000000008314161561156557611564611923565b5b828205905092915050565b600061157b82611822565b915061158683611822565b92508261159657611595611952565b5b828204905092915050565b60006115ac826117f8565b91506115b7836117f8565b9250827f7fffffffffffffffffffffffffffffffffffffffffffffffffffffffffffffff04821160008413600084131616156115f6576115f5611923565b5b817f8000000000000000000000000000000000000000000000000000000000000000058312600084126000841316161561163357611632611923565b5b827f800000000000000000000000000000000000000000000000000000000000000005821260008413600084121616156116705761166f611923565b5b827f7fffffffffffffffffffffffffffffffffffffffffffffffffffffffffffffff05821260008412600084121616156116ad576116ac611923565b5b828202905092915050565b60006116c382611822565b91506116ce83611822565b9250817fffffffffffffffffffffffffffffffffffffffffffffffffffffffffffffffff048311821515161561170757611706611923565b5b828202905092915050565b600061171d826117f8565b9150611728836117f8565b9250827f80000000000000000000000000000000000000000000000000000000000000000182126000841215161561176357611762611923565b5b827f7fffffffffffffffffffffffffffffffffffffffffffffffffffffffffffffff01821360008412161561179b5761179a611923565b5b828203905092915050565b60006117b182611822565b91506117bc83611822565b9250828210156117cf576117ce611923565b5b828203905092915050565b60006117e582611802565b9050919050565b60008115159050919050565b6000819050919050565b600073ffffffffffffffffffffffffffffffffffffffff82169050919050565b6000819050919050565b60005b8381101561184a57808201518184015260208101905061182f565b83811115611859576000848401525b50505050565b6000600282049050600182168061187757607f821691505b6020821081141561188b5761188a611981565b5b50919050565b600061189c82611822565b91507fffffffffffffffffffffffffffffffffffffffffffffffffffffffffffffffff8214156118cf576118ce611923565b5b600182019050919050565b60006118e5826117f8565b91507f800000000000000000000000000000000000000000000000000000000000000082141561191857611917611923565b5b816000039050919050565b7f4e487b7100000000000000000000000000000000000000000000000000000000600052601160045260246000fd5b7f4e487b7100000000000000000000000000000000000000000000000000000000600052601260045260246000fd5b7f4e487b7100000000000000000000000000000000000000000000000000000000600052602260045260246000fd5b6000601f19601f8301169050919050565b6119ca816117da565b81146119d557600080fd5b50565b6119e181611822565b81146119ec57600080fd5b5056fea2646970667358221220f44f740985a80b2f8db97cf671eab15448d97c31f27a8783999ff5e7b7c7690b64736f6c63430008000033",
  "immutableReferences": {},
  "source": "pragma solidity ^0.8.0;\n\nimport \"./lib/SafeMathInt.sol\";\nimport \"./lib/UInt256Lib.sol\";\n\nimport \"./IndexProtocol.sol\";\n\nimport \"./Oracle.sol\";\n\n\ncontract Rebase is IndexProtocol {\n    uint test;\n    // uint256 public oracleMarket;\n    // uint256 public oracleTarget;\n    // using SafeMathInt for int256;\n    // using UInt256Lib for uint256;\n\n    // //event Rebase(address indexed caller, uint targetPrice, uint marketPrice, uint change);\n\n    // function deltaChange(uint targetPrice, uint marketPrice) public returns (int){\n        \n    //     int change = (int(marketPrice) - int(targetPrice)) * 1000;\n    //     change = (change / int(targetPrice));\n    //     return change;\n        \n    //     // return (int(x) / 1000) * -500;\n    // }\n    \n    \n    \n    // function rebasefunc(uint256 oracleMarket, uint256 oracleTarget) public returns (bool){\n        \n    //     // uint256 change = 1;\n    //     uint256 supplyDelta;\n    //     uint256 userDelta;\n    //     uint256 targetPrice = 10;\n    //     uint256 marketPrice = 9;\n    //     int256 change;\n    //     bool neg = false;\n        \n        \n    //     uint timesAmount = 10**16;\n    //     //oracleTarget = oracleTarget / timesAmount;\n    //     //oracleMarket = oracleMarket / timesAmount;\n    //     //oracleTarget = 10 * timesAmount;\n    //     //oracleMarket = 5 * timesAmount;\n\n    //     // uint256 oracleTarget = query();\n    //     // uint256 oracleMarket;\n        \n        \n    //     change = deltaChange(oracleTarget, oracleMarket);\n        \n    //     oracleTarget = oracleTarget / timesAmount;\n    //     oracleMarket = oracleMarket / 10**14;\n        \n    //     if (change == 0){\n    //         //No rebase needed\n    //         return true;\n    //     }\n        \n    //     if (change < 0) {\n    //         change = change * -1;\n    //         neg = true;\n    //         }\n        \n    //     //emit Rebase(msg.sender, oracleTarget, oracleMarket, uint256(change.abs()));\n            \n    //     supplyDelta = uint256(change.abs());\n    //     supplyDelta *= totalSupply;\n    //     supplyDelta /= 1000;\n    //     //supplyDelta /= timesAmount;\n        \n    //     //Split or merge token supply\n    //     if (neg == true){\n    //         totalSupply = totalSupply - supplyDelta;\n    //     } else{\n    //         totalSupply = totalSupply + supplyDelta;\n    //     }\n        \n        \n    //     //Split or merge user balance\n    //     for (uint i = 0; i < holders.length; i++) {\n            \n    //         userDelta = uint256(change.abs());\n    //         userDelta *= balances[holders[i]];\n    //         userDelta /= 1000;\n    //         //userDelta /= timesAmount;\n       \n    //         //rebase user supply\n    //         if (neg == true){\n    //             balances[holders[i]] = balances[holders[i]] - userDelta;\n    //         } else{\n    //             balances[holders[i]] = balances[holders[i]] + userDelta;\n    //         }\n            \n    //     }\n        \n    //     return true;\n    // }\n\n\n\n}",
  "sourcePath": "/Users/mac/Desktop/repos/indexprotocol/contracts/Rebase.sol",
  "compiler": {
    "name": "solc",
    "version": "0.8.0+commit.c7dfd78e.Emscripten.clang"
  },
  "schemaVersion": "3.4.2",
  "updatedAt": "2021-08-14T14:17:38.529Z",
  "networkType": "ethereum",
  "devdoc": {
    "kind": "dev",
    "methods": {},
    "version": 1
  },
  "userdoc": {
    "kind": "user",
    "methods": {},
    "version": 1
  }
}